{"abi":[{"type":"constructor","inputs":[{"name":"_poolManager","type":"address","internalType":"address"},{"name":"_policyNFT","type":"address","internalType":"address"}],"stateMutability":"nonpayable"},{"type":"function","name":"flightStatuses","inputs":[{"name":"","type":"bytes32","internalType":"bytes32"}],"outputs":[{"name":"","type":"uint8","internalType":"enum OracleAdapter.FlightStatus"}],"stateMutability":"view"},{"type":"function","name":"getFlightStatus","inputs":[{"name":"flightId","type":"bytes32","internalType":"bytes32"}],"outputs":[{"name":"","type":"uint8","internalType":"enum OracleAdapter.FlightStatus"}],"stateMutability":"view"},{"type":"function","name":"hasPayoutExecuted","inputs":[{"name":"policyId","type":"uint256","internalType":"uint256"}],"outputs":[{"name":"","type":"bool","internalType":"bool"}],"stateMutability":"view"},{"type":"function","name":"owner","inputs":[],"outputs":[{"name":"","type":"address","internalType":"address"}],"stateMutability":"view"},{"type":"function","name":"payoutExecuted","inputs":[{"name":"","type":"uint256","internalType":"uint256"}],"outputs":[{"name":"","type":"bool","internalType":"bool"}],"stateMutability":"view"},{"type":"function","name":"policyNFT","inputs":[],"outputs":[{"name":"","type":"address","internalType":"address"}],"stateMutability":"view"},{"type":"function","name":"poolManager","inputs":[],"outputs":[{"name":"","type":"address","internalType":"address"}],"stateMutability":"view"},{"type":"function","name":"renounceOwnership","inputs":[],"outputs":[],"stateMutability":"nonpayable"},{"type":"function","name":"setPolicyNFT","inputs":[{"name":"_policyNFT","type":"address","internalType":"address"}],"outputs":[],"stateMutability":"nonpayable"},{"type":"function","name":"setPoolManager","inputs":[{"name":"_poolManager","type":"address","internalType":"address"}],"outputs":[],"stateMutability":"nonpayable"},{"type":"function","name":"submitFlightStatus","inputs":[{"name":"flightId","type":"bytes32","internalType":"bytes32"},{"name":"status","type":"uint8","internalType":"enum OracleAdapter.FlightStatus"}],"outputs":[],"stateMutability":"nonpayable"},{"type":"function","name":"submitFlightStatusForPolicy","inputs":[{"name":"policyId","type":"uint256","internalType":"uint256"},{"name":"status","type":"uint8","internalType":"enum OracleAdapter.FlightStatus"}],"outputs":[],"stateMutability":"nonpayable"},{"type":"function","name":"transferOwnership","inputs":[{"name":"newOwner","type":"address","internalType":"address"}],"outputs":[],"stateMutability":"nonpayable"},{"type":"event","name":"FlightStatusSubmitted","inputs":[{"name":"flightId","type":"bytes32","indexed":true,"internalType":"bytes32"},{"name":"status","type":"uint8","indexed":false,"internalType":"enum OracleAdapter.FlightStatus"},{"name":"timestamp","type":"uint256","indexed":false,"internalType":"uint256"}],"anonymous":false},{"type":"event","name":"OwnershipTransferred","inputs":[{"name":"previousOwner","type":"address","indexed":true,"internalType":"address"},{"name":"newOwner","type":"address","indexed":true,"internalType":"address"}],"anonymous":false},{"type":"event","name":"PayoutExecuted","inputs":[{"name":"policyId","type":"uint256","indexed":true,"internalType":"uint256"},{"name":"recipient","type":"address","indexed":true,"internalType":"address"},{"name":"amount","type":"uint256","indexed":false,"internalType":"uint256"},{"name":"status","type":"uint8","indexed":false,"internalType":"enum OracleAdapter.FlightStatus"}],"anonymous":false},{"type":"error","name":"InsufficientPoolFunds","inputs":[]},{"type":"error","name":"InvalidStatus","inputs":[]},{"type":"error","name":"OwnableInvalidOwner","inputs":[{"name":"owner","type":"address","internalType":"address"}]},{"type":"error","name":"OwnableUnauthorizedAccount","inputs":[{"name":"account","type":"address","internalType":"address"}]},{"type":"error","name":"PayoutAlreadyExecuted","inputs":[{"name":"policyId","type":"uint256","internalType":"uint256"}]},{"type":"error","name":"PolicyExpired","inputs":[{"name":"policyId","type":"uint256","internalType":"uint256"}]},{"type":"error","name":"PolicyNFTNotSet","inputs":[]},{"type":"error","name":"PolicyNotFound","inputs":[{"name":"policyId","type":"uint256","internalType":"uint256"}]},{"type":"error","name":"PoolManagerNotSet","inputs":[]},{"type":"error","name":"ReentrancyGuardReentrantCall","inputs":[]}],"bytecode":{"object":"0x6080604052346100305761001a610014610104565b906101a0565b610022610035565b611a276103978239611a2790f35b61003b565b60405190565b5f80fd5b601f801991011690565b634e487b7160e01b5f52604160045260245ffd5b906100679061003f565b810190811060018060401b0382111761007f57604052565b610049565b90610097610090610035565b928361005d565b565b5f80fd5b60018060a01b031690565b6100b19061009d565b90565b6100bd816100a8565b036100c457565b5f80fd5b905051906100d5826100b4565b565b91906040838203126100ff57806100f36100fc925f86016100c8565b936020016100c8565b90565b610099565b610122611dbe8038038061011781610084565b9283398101906100d7565b9091565b5f1b90565b9061013c60018060a01b0391610126565b9181191691161790565b90565b61015d6101586101629261009d565b610146565b61009d565b90565b61016e90610149565b90565b61017a90610165565b90565b90565b9061019561019061019c92610171565b61017d565b825461012b565b9055565b906101b86101bf926101b133610245565b6002610180565b6003610180565b565b90565b90565b6101db6101d66101e0926101c1565b610146565b6101c4565b90565b6101ed60016101c7565b90565b906101fc5f1991610126565b9181191691161790565b61021a61021561021f926101c4565b610146565b6101c4565b90565b90565b9061023a61023561024192610206565b610222565b82546101f0565b9055565b61024e906102af565b6102606102596101e3565b6001610225565b565b90565b61027961027461027e92610262565b610146565b61009d565b90565b61028a90610265565b90565b610296906100a8565b9052565b91906102ad905f6020850194019061028d565b565b806102ca6102c46102bf5f610281565b6100a8565b916100a8565b146102da576102d890610337565b565b6102fd6102e65f610281565b5f918291631e4fbdf760e01b83526004830161029a565b0390fd5b5f1c90565b60018060a01b031690565b61031d61032291610301565b610306565b90565b61032f9054610311565b90565b5f0190565b6103405f610325565b61034a825f610180565b9061037e6103787f8be0079c531659141344cd1fd0a4f28419497f9722a3daafe3b4186f6b6457e093610171565b91610171565b91610387610035565b8061039181610332565b0390a356fe60806040526004361015610013575b6106f0565b61001d5f356100ec565b806303cb55d6146100e75780635aea5296146100e2578063715018a6146100dd57806372f5b6df146100d857806379fca285146100d35780637aef6715146100ce5780638da5cb5b146100c9578063af02808a146100c4578063d455e145146100bf578063d753975d146100ba578063dc4c90d3146100b5578063ea57f4e6146100b05763f2fde38b0361000e576106bd565b610688565b6105ec565b6105a8565b6104fa565b610498565b61041f565b6103ca565b610395565b6102e7565b61025c565b610218565b610179565b60e01c90565b60405190565b5f80fd5b5f80fd5b5f80fd5b90565b61011081610104565b0361011757565b5f80fd5b9050359061012882610107565b565b6003111561013457565b5f80fd5b905035906101458261012a565b565b919060408382031261016f578061016361016c925f860161011b565b93602001610138565b90565b6100fc565b5f0190565b346101a85761019261018c366004610147565b90610890565b61019a6100f2565b806101a481610174565b0390f35b6100f8565b90565b6101b9816101ad565b036101c057565b5f80fd5b905035906101d1826101b0565b565b906020828203126101ec576101e9915f016101c4565b90565b6100fc565b151590565b6101ff906101f1565b9052565b9190610216905f602085019401906101f6565b565b346102485761024461023361022e3660046101d3565b6108c6565b61023b6100f2565b91829182610203565b0390f35b6100f8565b5f91031261025757565b6100fc565b3461028a5761026c36600461024d565b610274610935565b61027c6100f2565b8061028681610174565b0390f35b6100f8565b60018060a01b031690565b6102a39061028f565b90565b6102af8161029a565b036102b657565b5f80fd5b905035906102c7826102a6565b565b906020828203126102e2576102df915f016102ba565b90565b6100fc565b34610315576102ff6102fa3660046102c9565b6109d1565b6103076100f2565b8061031181610174565b0390f35b6100f8565b9060208282031261033357610330915f0161011b565b90565b6100fc565b634e487b7160e01b5f52602160045260245ffd5b6003111561035657565b610338565b906103658261034c565b565b6103709061035b565b90565b61037c90610367565b9052565b9190610393905f60208501940190610373565b565b346103c5576103c16103b06103ab36600461031a565b610a01565b6103b86100f2565b91829182610380565b0390f35b6100f8565b346103f8576103e26103dd3660046102c9565b610a40565b6103ea6100f2565b806103f481610174565b0390f35b6100f8565b6104069061029a565b9052565b919061041d905f602085019401906103fd565b565b3461044f5761042f36600461024d565b61044b61043a610a70565b6104426100f2565b9182918261040a565b0390f35b6100f8565b1c90565b60018060a01b031690565b6104739060086104789302610454565b610458565b90565b906104869154610463565b90565b61049560035f9061047b565b90565b346104c8576104a836600461024d565b6104c46104b3610489565b6104bb6100f2565b9182918261040a565b0390f35b6100f8565b91906040838203126104f557806104e96104f2925f86016101c4565b93602001610138565b90565b6100fc565b346105295761051361050d3660046104cd565b90611024565b61051b6100f2565b8061052581610174565b0390f35b6100f8565b90565b61054561054061054a926101ad565b61052e565b6101ad565b90565b9061055790610531565b5f5260205260405f2090565b60ff1690565b61057990600861057e9302610454565b610563565b90565b9061058c9154610569565b90565b6105a5906105a06005915f9261054d565b610581565b90565b346105d8576105d46105c36105be3660046101d3565b61058f565b6105cb6100f2565b91829182610203565b0390f35b6100f8565b6105e960025f9061047b565b90565b3461061c576105fc36600461024d565b6106186106076105dd565b61060f6100f2565b9182918261040a565b0390f35b6100f8565b61062a90610104565b90565b9061063790610621565b5f5260205260405f2090565b60ff1690565b61065990600861065e9302610454565b610643565b90565b9061066c9154610649565b90565b610685906106806004915f9261062d565b610661565b90565b346106b8576106b46106a361069e36600461031a565b61066f565b6106ab6100f2565b91829182610380565b0390f35b6100f8565b346106eb576106d56106d03660046102c9565b611095565b6106dd6100f2565b806106e781610174565b0390f35b6100f8565b5f80fd5b90610706916107016110a0565b6107a7565b565b60ff1690565b90565b61072561072061072a9261070e565b61052e565b610708565b90565b5f1b90565b9061073e60ff9161072d565b9181191691161790565b6107519061035b565b90565b90565b9061076c61076761077392610748565b610754565b8254610732565b9055565b610780906101ad565b9052565b9160206107a592949361079e60408201965f830190610373565b0190610777565b565b906107b181610367565b6107c46107be6002610711565b91610708565b11610874576107de816107d96004859061062d565b610757565b8181904261080c7fbc5d3579fffdba4f992f52f4bf3033f6e7a5e85a104945130b8691c608c9a29092610621565b926108216108186100f2565b92839283610784565b0390a280610838610832600161035b565b9161035b565b148015610859575b610849575b5050565b61085291611227565b5f80610845565b508061086e610868600261035b565b9161035b565b14610840565b5f6307a92f1960e51b81528061088c60048201610174565b0390fd5b9061089a916106f4565b565b5f90565b5f1c90565b6108b16108b6916108a0565b610563565b90565b6108c390546108a5565b90565b6108dd6108e2916108d561089c565b50600561054d565b6108b9565b90565b6108ed6110a0565b6108f5610922565b565b90565b61090e610909610913926108f7565b61052e565b61028f565b90565b61091f906108fa565b90565b61093361092e5f610916565b611406565b565b61093d6108e5565b565b6109509061094b6110a0565b6109c4565b565b9061096360018060a01b039161072d565b9181191691161790565b61098161097c6109869261028f565b61052e565b61028f565b90565b6109929061096d565b90565b61099e90610989565b90565b90565b906109b96109b46109c092610995565b6109a1565b8254610952565b9055565b6109cf9060036109a4565b565b6109da9061093f565b565b5f90565b6109ec6109f1916108a0565b610643565b90565b6109fe90546109e0565b90565b610a18610a1d91610a106109dc565b50600461062d565b6109f4565b90565b610a3190610a2c6110a0565b610a33565b565b610a3e9060026109a4565b565b610a4990610a20565b565b5f90565b610a5b610a60916108a0565b610458565b90565b610a6d9054610a4f565b90565b610a78610a4b565b50610a825f610a63565b90565b90610a9791610a926110a0565b610a99565b565b90610aab91610aa66114eb565b610d9f565b610ab361156f565b565b610abe9061096d565b90565b610aca90610ab5565b90565b610ad690610989565b90565b5f80fd5b601f801991011690565b634e487b7160e01b5f52604160045260245ffd5b90610b0590610add565b810190811067ffffffffffffffff821117610b1f57604052565b610ae7565b60e01b90565b5f80fd5b90610b41610b3a6100f2565b9283610afb565b565b5f80fd5b90505190610b5482610107565b565b5f80fd5b5f80fd5b67ffffffffffffffff8111610b7c57610b78602091610add565b0190565b610ae7565b90825f9392825e0152565b90929192610ba1610b9c82610b5e565b610b2e565b93818552602085019082840111610bbd57610bbb92610b81565b565b610b5a565b9080601f83011215610be057816020610bdd93519101610b8c565b90565b610b56565b610bee81610708565b03610bf557565b5f80fd5b90505190610c0682610be5565b565b90505190610c15826101b0565b565b90505190610c24826102a6565b565b610c2f816101f1565b03610c3657565b5f80fd5b90505190610c4782610c26565b565b91909161010081840312610d0a57610c62610100610b2e565b92610c6f815f8401610b47565b5f85015260208201519167ffffffffffffffff8311610d0557610c9782610cfe948301610bc2565b6020860152610ca98260408301610bf9565b6040860152610cbb8260608301610c08565b6060860152610ccd8260808301610c08565b6080860152610cdf8260a08301610c08565b60a0860152610cf18260c08301610c17565b60c086015260e001610c3a565b60e0830152565b610b43565b610b2a565b90602082820312610d3f575f82015167ffffffffffffffff8111610d3a57610d379201610c49565b90565b610100565b6100fc565b9190610d57905f60208501940190610777565b565b610d616100f2565b3d5f823e3d90fd5b610d7390516101ad565b90565b610d8a610d85610d8f926108f7565b61052e565b6101ad565b90565b610d9c9051610104565b90565b90610daa6003610a63565b610dc4610dbe610db95f610916565b61029a565b9161029a565b1461100857610dd281610367565b610de5610ddf6002610711565b91610708565b11610fec57610e325f610e08610e03610dfe6003610a63565b610ac1565b610acd565b632b07fce390610e278692610e1b6100f2565b95869485938493610b24565b835260048301610d44565b03915afa908115610fe7575f91610fc5575b5090610e5260a08301610d69565b610e64610e5e5f610d76565b916101ad565b14610fa657610e7d610e786005859061054d565b6108b9565b610f875742610e9f610e99610e9460a08601610d69565b6101ad565b916101ad565b11610f6857610ec381610ebe6004610eb85f8701610d92565b9061062d565b610757565b610ece5f8301610d92565b819042610efb7fbc5d3579fffdba4f992f52f4bf3033f6e7a5e85a104945130b8691c608c9a29092610621565b92610f10610f076100f2565b92839283610784565b0390a280610f27610f21600161035b565b9161035b565b148015610f4d575b610f39575b505050565b610f4592919091611713565b5f8080610f34565b5080610f62610f5c600261035b565b9161035b565b14610f2f565b610f83835f91829163b22aa54160e01b835260048301610d44565b0390fd5b610fa2835f91829163ab9e5cd560e01b835260048301610d44565b0390fd5b610fc1835f9182916321df5fa560e11b835260048301610d44565b0390fd5b610fe191503d805f833e610fd98183610afb565b810190610d0f565b5f610e44565b610d59565b5f6307a92f1960e51b81528061100460048201610174565b0390fd5b5f6307a53bfb60e51b81528061102060048201610174565b0390fd5b9061102e91610a85565b565b6110419061103c6110a0565b611043565b565b8061105e6110586110535f610916565b61029a565b9161029a565b1461106e5761106c90611406565b565b61109161107a5f610916565b5f918291631e4fbdf760e01b83526004830161040a565b0390fd5b61109e90611030565b565b6110a8610a70565b6110c16110bb6110b66119e4565b61029a565b9161029a565b036110c857565b6110ea6110d36119e4565b5f91829163118cdaa760e01b83526004830161040a565b0390fd5b67ffffffffffffffff81116111065760208091020190565b610ae7565b5f80fd5b9092919261112461111f826110ee565b610b2e565b938185526020808601920283019281841161116157915b8383106111485750505050565b602080916111568486610c08565b81520192019161113b565b61110b565b9080601f83011215611184578160206111819351910161110f565b90565b610b56565b906020828203126111b9575f82015167ffffffffffffffff81116111b4576111b19201611166565b90565b610100565b6100fc565b6111c790610104565b9052565b91906111de905f602085019401906111be565b565b60016111ec91016101ad565b90565b5190565b634e487b7160e01b5f52603260045260245ffd5b90611211826111ef565b811015611222576020809102010190565b6111f3565b9190916112346003610a63565b61124e6112486112435f610916565b61029a565b9161029a565b14611401575f6112999161127261126d6112686003610a63565b610ac1565b610acd565b61128e630b0546c46112826100f2565b95869485938493610b24565b8352600483016111cb565b03915afa9081156113fc575f916113da575b506112b55f610d76565b5b806112d16112cb6112c6856111ef565b6101ad565b916101ad565b10156113d4576112ea6112e5838390611207565b610d69565b906112ff6112fa6005849061054d565b6108b9565b6113ca5761134c915f61132261131d6113186003610a63565b610ac1565b610acd565b632b07fce39061134184926113356100f2565b97889485938493610b24565b835260048301610d44565b03915afa80156113c557611397935f916113a3575b504261138061137a61137560a08501610d69565b6101ad565b916101ad565b1161139c5761139191908791611713565b5b6111e0565b6112b6565b5050611392565b6113bf91503d805f833e6113b78183610afb565b810190610d0f565b5f611361565b610d59565b6113979150611392565b50509050565b6113f691503d805f833e6113ee8183610afb565b810190611189565b5f6112ab565b610d59565b509050565b61140f5f610a63565b611419825f6109a4565b9061144d6114477f8be0079c531659141344cd1fd0a4f28419497f9722a3daafe3b4186f6b6457e093610995565b91610995565b916114566100f2565b8061146081610174565b0390a3565b90565b611474611479916108a0565b611465565b90565b6114869054611468565b90565b61149d6114986114a29261070e565b61052e565b6101ad565b90565b6114af6002611489565b90565b906114be5f199161072d565b9181191691161790565b90565b906114e06114db6114e792610531565b6114c8565b82546114b2565b9055565b6114f5600161147c565b61150e6115086115036114a5565b6101ad565b916101ad565b146115275761152561151e6114a5565b60016114cb565b565b5f633ee5aeb560e01b81528061153f60048201610174565b0390fd5b90565b61155a61155561155f92611543565b61052e565b6101ad565b90565b61156c6001611546565b90565b61158161157a611562565b60016114cb565b565b61158c906101f1565b90565b90565b906115a76115a26115ae92611583565b61158f565b8254610732565b9055565b906020828203126115cb576115c8915f01610c17565b90565b6100fc565b90565b6115e76115e26115ec926115d0565b61052e565b6101ad565b90565b634e487b7160e01b5f52601160045260245ffd5b611612611618919392936101ad565b926101ad565b916116248382026101ad565b92818404149015171561163357565b6115ef565b90565b61164f61164a61165492611638565b61052e565b6101ad565b90565b634e487b7160e01b5f52601260045260245ffd5b61167761167d916101ad565b916101ad565b908115611688570490565b611657565b611697905161029a565b90565b6116a39061096d565b90565b6116af9061169a565b90565b6116bb90610989565b90565b5f9103126116c857565b6100fc565b9160206116ee9294936116e760408201965f8301906103fd565b0190610777565b565b91602061171192949361170a60408201965f830190610777565b0190610373565b565b6117276117226005839061054d565b6108b9565b6119df57611741600161173c6005849061054d565b611592565b61178a602061176061175b6117566003610a63565b610ac1565b610acd565b636352211e9061177f85926117736100f2565b95869485938493610b24565b835260048301610d44565b03915afa9081156119da575f916119ac575b50906117aa60608401610d69565b92846117bf6117b9600161035b565b9161035b565b1461196e575b6117dc6117d760c06117e1930161168d565b6116a6565b6116b2565b63117de2fd838592803b156119695761180d5f80946118186118016100f2565b97889687958694610b24565b8452600484016116cd565b03925af1908161193d575b50155f1461185457505050506001611838575b565b5f6316d5c93f60e21b81528061185060048201610174565b0390fd5b61186e6118696118646003610a63565b610ac1565b610acd565b631bc33b4982823b15611938576118a4926118995f809461188d6100f2565b96879586948593610b24565b835260048301610d44565b03925af1801561193357611907575b509091926118ea6118e47fb225f2477e8798a2956f9336f770e4f6e95c30ff838bc64f1c67aa3eac803a5a93610531565b93610995565b936118ff6118f66100f2565b928392836116f0565b0390a3611836565b611926905f3d811161192c575b61191e8183610afb565b8101906116be565b5f6118b3565b503d611914565b610d59565b610ad9565b61195c905f3d8111611962575b6119548183610afb565b8101906116be565b5f611823565b503d61194a565b610ad9565b926117dc6117d760c06119a16119916117e19561198b60326115d3565b90611603565b61199b606461163b565b9061166b565b9693505050506117c5565b6119cd915060203d81116119d3575b6119c58183610afb565b8101906115b2565b5f61179c565b503d6119bb565b610d59565b505050565b6119ec610a4b565b50339056fea264697066735822122062a612cd5e09f32eee7468e43385cd732264b1cfd7a2ecea8aa5ffcf60a32d6364736f6c634300081a0033","linkReferences":{}},"methodIdentifiers":{"flightStatuses(bytes32)":"ea57f4e6","getFlightStatus(bytes32)":"79fca285","hasPayoutExecuted(uint256)":"5aea5296","owner()":"8da5cb5b","payoutExecuted(uint256)":"d753975d","policyNFT()":"af02808a","poolManager()":"dc4c90d3","renounceOwnership()":"715018a6","setPolicyNFT(address)":"72f5b6df","setPoolManager(address)":"7aef6715","submitFlightStatus(bytes32,uint8)":"03cb55d6","submitFlightStatusForPolicy(uint256,uint8)":"d455e145","transferOwnership(address)":"f2fde38b"},"id":47}