{"abi":[{"type":"constructor","inputs":[{"name":"_stablecoin","type":"address","internalType":"address"},{"name":"_globalPool","type":"address","internalType":"address"},{"name":"_policyNFT","type":"address","internalType":"address"},{"name":"_oracleAdapter","type":"address","internalType":"address"}],"stateMutability":"nonpayable"},{"type":"function","name":"airlinePools","inputs":[{"name":"","type":"string","internalType":"string"}],"outputs":[{"name":"","type":"address","internalType":"address"}],"stateMutability":"view"},{"type":"function","name":"buyInsuranceAirline","inputs":[{"name":"user","type":"address","internalType":"address"},{"name":"airlineCode","type":"string","internalType":"string"},{"name":"flightId","type":"bytes32","internalType":"bytes32"},{"name":"pnr","type":"string","internalType":"string"},{"name":"coverageAmount","type":"uint256","internalType":"uint256"},{"name":"premium","type":"uint256","internalType":"uint256"},{"name":"expiryTimestamp","type":"uint256","internalType":"uint256"}],"outputs":[{"name":"","type":"uint256","internalType":"uint256"}],"stateMutability":"nonpayable"},{"type":"function","name":"buyInsuranceCrowdFill","inputs":[{"name":"user","type":"address","internalType":"address"},{"name":"flightId","type":"bytes32","internalType":"bytes32"},{"name":"pnr","type":"string","internalType":"string"},{"name":"coverageAmount","type":"uint256","internalType":"uint256"},{"name":"premium","type":"uint256","internalType":"uint256"},{"name":"expiryTimestamp","type":"uint256","internalType":"uint256"}],"outputs":[{"name":"","type":"uint256","internalType":"uint256"},{"name":"","type":"address","internalType":"address"}],"stateMutability":"nonpayable"},{"type":"function","name":"buyInsuranceGlobal","inputs":[{"name":"user","type":"address","internalType":"address"},{"name":"flightId","type":"bytes32","internalType":"bytes32"},{"name":"pnr","type":"string","internalType":"string"},{"name":"coverageAmount","type":"uint256","internalType":"uint256"},{"name":"premium","type":"uint256","internalType":"uint256"},{"name":"expiryTimestamp","type":"uint256","internalType":"uint256"}],"outputs":[{"name":"","type":"uint256","internalType":"uint256"}],"stateMutability":"nonpayable"},{"type":"function","name":"createCrowdFillPool","inputs":[{"name":"policyOwner","type":"address","internalType":"address"},{"name":"coverageRequired","type":"uint256","internalType":"uint256"},{"name":"premium","type":"uint256","internalType":"uint256"},{"name":"flightId","type":"bytes32","internalType":"bytes32"},{"name":"policyId","type":"uint256","internalType":"uint256"}],"outputs":[{"name":"","type":"address","internalType":"address"}],"stateMutability":"nonpayable"},{"type":"function","name":"getAirlinePool","inputs":[{"name":"airlineCode","type":"string","internalType":"string"}],"outputs":[{"name":"","type":"address","internalType":"address"}],"stateMutability":"view"},{"type":"function","name":"getRegisteredAirlines","inputs":[],"outputs":[{"name":"","type":"string[]","internalType":"string[]"}],"stateMutability":"view"},{"type":"function","name":"globalPool","inputs":[],"outputs":[{"name":"","type":"address","internalType":"address"}],"stateMutability":"view"},{"type":"function","name":"isPoolRegistered","inputs":[{"name":"poolAddress","type":"address","internalType":"address"}],"outputs":[{"name":"","type":"bool","internalType":"bool"}],"stateMutability":"view"},{"type":"function","name":"oracleAdapter","inputs":[],"outputs":[{"name":"","type":"address","internalType":"address"}],"stateMutability":"view"},{"type":"function","name":"owner","inputs":[],"outputs":[{"name":"","type":"address","internalType":"address"}],"stateMutability":"view"},{"type":"function","name":"policyNFT","inputs":[],"outputs":[{"name":"","type":"address","internalType":"address"}],"stateMutability":"view"},{"type":"function","name":"registerAirline","inputs":[{"name":"airlineCode","type":"string","internalType":"string"},{"name":"poolAddress","type":"address","internalType":"address"}],"outputs":[],"stateMutability":"nonpayable"},{"type":"function","name":"registeredAirlines","inputs":[{"name":"","type":"uint256","internalType":"uint256"}],"outputs":[{"name":"","type":"string","internalType":"string"}],"stateMutability":"view"},{"type":"function","name":"registeredPools","inputs":[{"name":"","type":"address","internalType":"address"}],"outputs":[{"name":"","type":"bool","internalType":"bool"}],"stateMutability":"view"},{"type":"function","name":"renounceOwnership","inputs":[],"outputs":[],"stateMutability":"nonpayable"},{"type":"function","name":"setGlobalPool","inputs":[{"name":"_globalPool","type":"address","internalType":"address"}],"outputs":[],"stateMutability":"nonpayable"},{"type":"function","name":"setOracleAdapter","inputs":[{"name":"_oracleAdapter","type":"address","internalType":"address"}],"outputs":[],"stateMutability":"nonpayable"},{"type":"function","name":"setPolicyNFT","inputs":[{"name":"_policyNFT","type":"address","internalType":"address"}],"outputs":[],"stateMutability":"nonpayable"},{"type":"function","name":"stablecoin","inputs":[],"outputs":[{"name":"","type":"address","internalType":"address"}],"stateMutability":"view"},{"type":"function","name":"transferOwnership","inputs":[{"name":"newOwner","type":"address","internalType":"address"}],"outputs":[],"stateMutability":"nonpayable"},{"type":"event","name":"AirlineRegistered","inputs":[{"name":"airlineCode","type":"string","indexed":true,"internalType":"string"},{"name":"poolAddress","type":"address","indexed":true,"internalType":"address"}],"anonymous":false},{"type":"event","name":"CrowdFillPoolCreated","inputs":[{"name":"poolAddress","type":"address","indexed":true,"internalType":"address"},{"name":"flightId","type":"bytes32","indexed":true,"internalType":"bytes32"},{"name":"policyId","type":"uint256","indexed":true,"internalType":"uint256"}],"anonymous":false},{"type":"event","name":"OwnershipTransferred","inputs":[{"name":"previousOwner","type":"address","indexed":true,"internalType":"address"},{"name":"newOwner","type":"address","indexed":true,"internalType":"address"}],"anonymous":false},{"type":"event","name":"PoolRegistered","inputs":[{"name":"poolAddress","type":"address","indexed":true,"internalType":"address"},{"name":"poolType","type":"uint8","indexed":false,"internalType":"uint8"}],"anonymous":false},{"type":"error","name":"AirlineAlreadyRegistered","inputs":[{"name":"airlineCode","type":"string","internalType":"string"}]},{"type":"error","name":"GlobalPoolNotSet","inputs":[]},{"type":"error","name":"InvalidAddress","inputs":[]},{"type":"error","name":"OracleAdapterNotSet","inputs":[]},{"type":"error","name":"OwnableInvalidOwner","inputs":[{"name":"owner","type":"address","internalType":"address"}]},{"type":"error","name":"OwnableUnauthorizedAccount","inputs":[{"name":"account","type":"address","internalType":"address"}]},{"type":"error","name":"PolicyNFTNotSet","inputs":[]},{"type":"error","name":"PoolNotRegistered","inputs":[]},{"type":"error","name":"ReentrancyGuardReentrantCall","inputs":[]}],"bytecode":{"object":"0x60a0604052346100435761001d610014610130565b9291909161025e565b610025610048565b614aaa6105038239608051818181610e040152611d280152614aaa90f35b61004e565b60405190565b5f80fd5b601f801991011690565b634e487b7160e01b5f52604160045260245ffd5b9061007a90610052565b810190811060018060401b0382111761009257604052565b61005c565b906100aa6100a3610048565b9283610070565b565b5f80fd5b60018060a01b031690565b6100c4906100b0565b90565b6100d0816100bb565b036100d757565b5f80fd5b905051906100e8826100c7565b565b60808183031261012b57610100825f83016100db565b9261012861011184602085016100db565b9361011f81604086016100db565b936060016100db565b90565b6100ac565b61014e614fad8038038061014381610097565b9283398101906100ea565b90919293565b90565b90565b61016e61016961017392610154565b610157565b6100b0565b90565b61017f9061015a565b90565b5f0190565b5f1b90565b9061019d60018060a01b0391610187565b9181191691161790565b6101bb6101b66101c0926100b0565b610157565b6100b0565b90565b6101cc906101a7565b90565b6101d8906101c3565b90565b90565b906101f36101ee6101fa926101cf565b6101db565b825461018c565b9055565b90610208906101cf565b5f5260205260405f2090565b9061022060ff91610187565b9181191691161790565b151590565b6102389061022a565b90565b90565b9061025361024e61025a9261022f565b61023b565b8254610214565b9055565b9291909161026b336103e1565b8361028661028061027b5f610176565b6100bb565b916100bb565b14801561033b575b8015610319575b80156102f7575b6102db576102c06102c7926102d9956080526102b98560026101de565b60036101de565b60046101de565b6102d460019160066101fe565b61023e565b565b5f63e6c4247b60e01b8152806102f360048201610182565b0390fd5b508061031361030d6103085f610176565b6100bb565b916100bb565b1461029c565b508161033561032f61032a5f610176565b6100bb565b916100bb565b14610295565b508261035761035161034c5f610176565b6100bb565b916100bb565b1461028e565b90565b90565b61037761037261037c9261035d565b610157565b610360565b90565b6103896001610363565b90565b906103985f1991610187565b9181191691161790565b6103b66103b16103bb92610360565b610157565b610360565b90565b90565b906103d66103d16103dd926103a2565b6103be565b825461038c565b9055565b6103ea90610420565b6103fc6103f561037f565b60016103c1565b565b610407906100bb565b9052565b919061041e905f602085019401906103fe565b565b8061043b6104356104305f610176565b6100bb565b916100bb565b1461044b57610449906104a3565b565b61046e6104575f610176565b5f918291631e4fbdf760e01b83526004830161040b565b0390fd5b5f1c90565b60018060a01b031690565b61048e61049391610472565b610477565b90565b6104a09054610482565b90565b6104ac5f610496565b6104b6825f6101de565b906104ea6104e47f8be0079c531659141344cd1fd0a4f28419497f9722a3daafe3b4186f6b6457e0936101cf565b916101cf565b916104f3610048565b806104fd81610182565b0390a356fe60806040526004361015610013575b610ec1565b61001d5f3561016c565b80630e2c4129146101675780631767cb571461016257806334bc2eaa1461015d57806339115784146101585780633d9f3163146101535780634578d2901461014e5780635b1e1f3c146101495780635fd6704b14610144578063715018a61461013f57806372df3a2f1461013a57806372f5b6df146101355780638da5cb5b1461013057806392e6f2611461012b57806398a262f314610126578063af02808a14610121578063c23bcf091461011c578063c673bdaf14610117578063de08e92614610112578063e9cbd8221461010d578063edb6d075146101085763f2fde38b0361000e57610e8e565b610e5b565b610e26565b610dcd565b610b86565b610b51565b610a3d565b6109f9565b610911565b610886565b610853565b610816565b6107c0565b61078b565b61071a565b610645565b610557565b610513565b61046b565b610411565b6102f3565b60e01c90565b60405190565b5f80fd5b5f80fd5b5f80fd5b5f80fd5b5f80fd5b601f801991011690565b634e487b7160e01b5f52604160045260245ffd5b906101b49061018c565b810190811067ffffffffffffffff8211176101ce57604052565b610196565b906101e66101df610172565b92836101aa565b565b67ffffffffffffffff81116102065761020260209161018c565b0190565b610196565b90825f939282370152565b9092919261022b610226826101e8565b6101d3565b93818552602085019082840111610247576102459261020b565b565b610188565b9080601f8301121561026a5781602061026793359101610216565b90565b610184565b60018060a01b031690565b6102839061026f565b90565b61028f8161027a565b0361029657565b5f80fd5b905035906102a782610286565b565b91906040838203126102e9575f8301359067ffffffffffffffff82116102e4576102d8816102e193860161024c565b9360200161029a565b90565b610180565b61017c565b5f0190565b346103225761030c6103063660046102a9565b90611374565b610314610172565b8061031e816102ee565b0390f35b610178565b90565b61033381610327565b0361033a57565b5f80fd5b9050359061034b8261032a565b565b90565b6103598161034d565b0361036057565b5f80fd5b9050359061037182610350565b565b909160c0828403126103ea5761038b835f840161029a565b92610399816020850161033e565b92604081013567ffffffffffffffff81116103e557826103ba91830161024c565b926103e26103cb8460608501610364565b936103d98160808601610364565b9360a001610364565b90565b610180565b61017c565b6103f89061034d565b9052565b919061040f905f602085019401906103ef565b565b3461044857610444610433610427366004610373565b949390939291926114f8565b61043b610172565b918291826103fc565b0390f35b610178565b9060208282031261046657610463915f0161029a565b90565b61017c565b346104995761048361047e36600461044d565b611744565b61048b610172565b80610495816102ee565b0390f35b610178565b5f9103126104a857565b61017c565b1c90565b60018060a01b031690565b6104cc9060086104d193026104ad565b6104b1565b90565b906104df91546104bc565b90565b6104ee60025f906104d4565b90565b6104fa9061027a565b9052565b9190610511905f602085019401906104f1565b565b346105435761052336600461049e565b61053f61052e6104e2565b610536610172565b918291826104fe565b0390f35b610178565b61055460045f906104d4565b90565b346105875761056736600461049e565b610583610572610548565b61057a610172565b918291826104fe565b0390f35b610178565b90565b6105a361059e6105a89261026f565b61058c565b61026f565b90565b6105b49061058f565b90565b6105c0906105ab565b90565b906105cd906105b7565b5f5260205260405f2090565b60ff1690565b6105ef9060086105f493026104ad565b6105d9565b90565b9061060291546105df565b90565b61061b906106166006915f926105c3565b6105f7565b90565b151590565b61062c9061061e565b9052565b9190610643905f60208501940190610623565b565b346106755761067161066061065b36600461044d565b610605565b610668610172565b91829182610630565b0390f35b610178565b60e08183031261071557610690825f830161029a565b92602082013567ffffffffffffffff811161071057836106b191840161024c565b926106bf816040850161033e565b92606081013567ffffffffffffffff811161070b57826106e091830161024c565b926107086106f18460808501610364565b936106ff8160a08601610364565b9360c001610364565b90565b610180565b610180565b61017c565b346107515761074d61073c61073036600461067a565b959490949391936117f6565b610744610172565b918291826103fc565b0390f35b610178565b90602082820312610786575f82013567ffffffffffffffff81116107815761077e920161024c565b90565b610180565b61017c565b346107bb576107b76107a66107a1366004610756565b6119ce565b6107ae610172565b918291826104fe565b0390f35b610178565b346107ee576107d036600461049e565b6107d8611a12565b6107e0610172565b806107ea816102ee565b0390f35b610178565b91602061081492949361080d60408201965f8301906103ef565b01906104f1565b565b3461084e57610835610829366004610373565b94939093929192611adf565b9061084a610841610172565b928392836107f3565b0390f35b610178565b346108815761086b61086636600461044d565b611c51565b610873610172565b8061087d816102ee565b0390f35b610178565b346108b65761089636600461049e565b6108b26108a1611c5c565b6108a9610172565b918291826104fe565b0390f35b610178565b919060a08382031261090c576108d3815f850161029a565b926108e18260208301610364565b926109096108f28460408501610364565b93610900816060860161033e565b93608001610364565b90565b61017c565b34610945576109416109306109273660046108bb565b93929092611cf1565b610938610172565b918291826104fe565b0390f35b610178565b5190565b905090565b90825f9392825e0152565b61098361097a926020926109718161094a565b9485809361094e565b93849101610953565b0190565b90565b61099661099b9161034d565b610987565b9052565b6109af6109b6916020949361095e565b809261098a565b0190565b6109ce6109c5610172565b9283928361099f565b03902090565b6109dd916109ba565b90565b6109f6906109f16005915f926109d4565b6104d4565b90565b34610a2957610a25610a14610a0f366004610756565b6109e0565b610a1c610172565b918291826104fe565b0390f35b610178565b610a3a60035f906104d4565b90565b34610a6d57610a4d36600461049e565b610a69610a58610a2e565b610a60610172565b918291826104fe565b0390f35b610178565b5190565b60209181520190565b60200190565b60209181520190565b610aad610ab6602093610abb93610aa48161094a565b93848093610a85565b95869101610953565b61018c565b0190565b90610ac991610a8e565b90565b60200190565b90610ae6610adf83610a72565b8092610a76565b9081610af760208302840194610a7f565b925f915b838310610b0a57505050505090565b90919293946020610b2c610b2683856001950387528951610abf565b97610acc565b9301930191939290610afb565b610b4e9160208201915f818403910152610ad2565b90565b34610b8157610b6136600461049e565b610b7d610b6c611ed4565b610b74610172565b91829182610b39565b0390f35b610178565b34610bb657610bb2610ba1610b9c36600461044d565b611f0f565b610ba9610172565b91829182610630565b0390f35b610178565b90602082820312610bd457610bd1915f01610364565b90565b61017c565b634e487b7160e01b5f52603260045260245ffd5b5490565b5f5260205f2090565b610c0381610bed565b821015610c1d57610c15600191610bf1565b910201905f90565b610bd9565b634e487b7160e01b5f525f60045260245ffd5b634e487b7160e01b5f52602260045260245ffd5b9060016002830492168015610c69575b6020831014610c6457565b610c35565b91607f1691610c59565b5f5260205f2090565b905f9291805490610c96610c8f83610c49565b8094610a85565b916001811690815f14610ced5750600114610cb1575b505050565b610cbe9192939450610c73565b915f925b818410610cd557505001905f8080610cac565b60018160209295939554848601520191019290610cc2565b92949550505060ff19168252151560200201905f8080610cac565b90610d1291610c7c565b90565b90610d35610d2e92610d25610172565b93848092610d08565b03836101aa565b565b905f10610d4a57610d4790610d15565b90565b610c22565b6007610d5a81610bed565b821015610d7757610d7491610d6e91610bfa565b90610d37565b90565b5f80fd5b60209181520190565b610da3610dac602093610db193610d9a8161094a565b93848093610d7b565b95869101610953565b61018c565b0190565b610dca9160208201915f818403910152610d84565b90565b34610dfd57610df9610de8610de3366004610bbb565b610d4f565b610df0610172565b91829182610db5565b0390f35b610178565b7f000000000000000000000000000000000000000000000000000000000000000090565b34610e5657610e3636600461049e565b610e52610e41610e02565b610e49610172565b918291826104fe565b0390f35b610178565b34610e8957610e73610e6e36600461044d565b611f8a565b610e7b610172565b80610e85816102ee565b0390f35b610178565b34610ebc57610ea6610ea136600461044d565b611ffa565b610eae610172565b80610eb8816102ee565b0390f35b610178565b5f80fd5b90610ed791610ed2612005565b611254565b565b90565b610ef0610eeb610ef592610ed9565b61058c565b61026f565b90565b610f0190610edc565b90565b5f1c90565b610f15610f1a91610f04565b6104b1565b90565b610f279054610f09565b90565b5f1b90565b90610f4060018060a01b0391610f2a565b9181191691161790565b90565b90610f62610f5d610f69926105b7565b610f4a565b8254610f2f565b9055565b90610f7960ff91610f2a565b9181191691161790565b610f8c9061061e565b90565b90565b90610fa7610fa2610fae92610f83565b610f8f565b8254610f6d565b9055565b90565b5f5260205f2090565b5490565b610fcb81610fbe565b821015610fe557610fdd600191610fb5565b910201905f90565b610bd9565b601f602091010490565b1b90565b9190600861101391029161100d5f1984610ff4565b92610ff4565b9181191691161790565b61103161102c6110369261034d565b61058c565b61034d565b90565b90565b919061105261104d61105a9361101d565b611039565b908354610ff8565b9055565b5f90565b6110749161106e61105e565b9161103c565b565b5b818110611082575050565b8061108f5f600193611062565b01611077565b9190601f81116110a5575b505050565b6110b16110d693610c73565b9060206110bd84610fea565b830193106110de575b6110cf90610fea565b0190611076565b5f80806110a0565b91506110cf819290506110c6565b906110fc905f19906008026104ad565b191690565b8161110b916110ec565b906002021790565b9061111d8161094a565b9067ffffffffffffffff82116111dd576111418261113b8554610c49565b85611095565b602090601f831160011461117557918091611164935f92611169575b5050611101565b90555b565b90915001515f8061115d565b601f1983169161118485610c73565b925f5b8181106111c5575091600293918560019694106111ab575b50505002019055611167565b6111bb910151601f8416906110ec565b90555f808061119f565b91936020600181928787015181550195019201611187565b610196565b91906111f3576111f191611113565b565b610c22565b9081549168010000000000000000831015611228578261122091600161122695018155610fc2565b906111e2565b565b610196565b6112369161095e565b90565b61124e90611245610172565b9182918261122d565b03902090565b8161126f6112696112645f610ef8565b61027a565b9161027a565b1461135857611288611283600583906109d4565b610f1d565b6112a261129c6112975f610ef8565b61027a565b9161027a565b03611332576112bc826112b7600584906109d4565b610f4d565b6112d260016112cd600685906105c3565b610f92565b6112e66112df6007610fb2565b82906111f8565b9061131a6113147f4389233d1d7e817e3a41447176300b89c596c24ed4d58896d501ddb378abe2c493611239565b916105b7565b91611323610172565b8061132d816102ee565b0390a3565b6113549061133e610172565b91829163994086f760e01b835260048301610db5565b0390fd5b5f63e6c4247b60e01b815280611370600482016102ee565b0390fd5b9061137e91610ec5565b565b6113899061058f565b90565b61139590611380565b90565b6113a1906105ab565b90565b5f80fd5b60e01b90565b5f9103126113b857565b61017c565b9160206113de9294936113d760408201965f8301906104f1565b01906103ef565b565b6113e8610172565b3d5f823e3d90fd5b6113f99061058f565b90565b611405906113f0565b90565b611411906105ab565b90565b9050519061142182610350565b565b9060208282031261143c57611439915f01611414565b90565b61017c565b61144a90610327565b9052565b60ff1690565b61146861146361146d92610ed9565b61058c565b61144e565b90565b61147990611454565b9052565b939897956114db60e0966114d16114c6886114ef986114b96114f69e996114af6114e59a5f61010087019601906104f1565b60208d0190611441565b8a820360408c0152610d84565b9c6060890190611470565b60808701906103ef565b60a08501906103ef565b60c08301906103ef565b01906104f1565b565b94919492909261150661105e565b506115116002610f1d565b61152b6115256115205f610ef8565b61027a565b9161027a565b146116b65761153a6003610f1d565b61155461154e6115495f610ef8565b61027a565b9161027a565b1461169a5761157361156e6115696002610f1d565b61138c565b611398565b90638c8ac76d818793803b15611695576115a05f80946115ab611594610172565b988996879586946113a8565b8452600484016113bd565b03925af1801561169057602096611610945f9461161b93611664575b506115e26115dd6115d86003610f1d565b6113fc565b611408565b9663f9ee42f694989a9286929091926115fb6002610f1d565b94611604610172565b9d8e9c8d9b8c9a6113a8565b8a5260048a0161147d565b03925af190811561165f575f91611631575b5090565b611652915060203d8111611658575b61164a81836101aa565b810190611423565b5f61162d565b503d611640565b6113e0565b61168390863d8111611689575b61167b81836101aa565b8101906113ae565b5f6115c7565b503d611671565b6113e0565b6113a4565b5f6307a53bfb60e51b8152806116b2600482016102ee565b0390fd5b5f630a367d0760e31b8152806116ce600482016102ee565b0390fd5b6116e3906116de612005565b6116e5565b565b806117006116fa6116f55f610ef8565b61027a565b9161027a565b146117285780611714611726926002610f4d565b61172160019160066105c3565b610f92565b565b5f63e6c4247b60e01b815280611740600482016102ee565b0390fd5b61174d906116d2565b565b90565b61176661176161176b9261174f565b61058c565b61144e565b90565b61177790611752565b9052565b939897956117d960e0966117cf6117c4886117ed986117b76117f49e996117ad6117e39a5f61010087019601906104f1565b60208d0190611441565b8a820360408c0152610d84565b9c606089019061176e565b60808701906103ef565b60a08501906103ef565b60c08301906103ef565b01906104f1565b565b9492959193906118136118189161180b61105e565b5060056109d4565b610f1d565b948561183461182e6118295f610ef8565b61027a565b9161027a565b146119ae576118436003610f1d565b61185d6118576118525f610ef8565b61027a565b9161027a565b146119925761187361186e8761138c565b611398565b91638c8ac76d828694803b1561198d576118a05f80946118ab611894610172565b998a96879586946113a8565b8452600484016113bd565b03925af190811561198857602097611908955f956119139461195c575b506118e36118de6118d96003610f1d565b6113fc565b611408565b9763f9ee42f695999b93600190919293946118fc610172565b9d8e9c8d9b8c9a6113a8565b8a5260048a0161177b565b03925af1908115611957575f91611929575b5090565b61194a915060203d8111611950575b61194281836101aa565b810190611423565b5f611925565b503d611938565b6113e0565b61197b90873d8111611981575b61197381836101aa565b8101906113ae565b5f6118c8565b503d611969565b6113e0565b6113a4565b5f6307a53bfb60e51b8152806119aa600482016102ee565b0390fd5b5f63739f418560e01b8152806119c6600482016102ee565b0390fd5b5f90565b6119e56119ea916119dd6119ca565b5060056109d4565b610f1d565b90565b6119f5612005565b6119fd6119ff565b565b611a10611a0b5f610ef8565b612053565b565b611a1a6119ed565b565b611a30611a2b611a3592610ed9565b61058c565b61034d565b90565b90565b611a4f611a4a611a5492611a38565b61058c565b61144e565b90565b611a6090611a3b565b9052565b93989795611ac260e096611ab8611aad88611ad698611aa0611add9e99611a96611acc9a5f61010087019601906104f1565b60208d0190611441565b8a820360408c0152610d84565b9c6060890190611a57565b60808701906103ef565b60a08501906103ef565b60c08301906103ef565b01906104f1565b565b95949593909193611aee61105e565b50611af76119ca565b50611b026003610f1d565b611b1c611b16611b115f610ef8565b61027a565b9161027a565b14611bd9575f81611b8f602096611b43611b849582888a91611b3d89611a1c565b93611cf1565b809b611b5f611b5a611b556003610f1d565b6113fc565b611408565b9763f9ee42f695999b9360029091929394611b78610172565b9d8e9c8d9b8c9a6113a8565b8a5260048a01611a64565b03925af1908115611bd4575f91611ba6575b509190565b611bc7915060203d8111611bcd575b611bbf81836101aa565b810190611423565b5f611ba1565b503d611bb5565b6113e0565b5f6307a53bfb60e51b815280611bf1600482016102ee565b0390fd5b611c0690611c01612005565b611c08565b565b80611c23611c1d611c185f610ef8565b61027a565b9161027a565b14611c3557611c33906003610f4d565b565b5f63e6c4247b60e01b815280611c4d600482016102ee565b0390fd5b611c5a90611bf5565b565b611c646119ca565b50611c6e5f610f1d565b90565b949290979695939160e08601985f8701611c8a916104f1565b60208601611c97916104f1565b60408501611ca4916104f1565b60608401611cb1916103ef565b60808301611cbe916103ef565b60a08201611ccb91611441565b60c001611cd7916103ef565b565b611ce2906105ab565b90565b611cee90610327565b90565b919091611cfc6119ca565b50611d076004610f1d565b611d21611d1b611d165f610ef8565b61027a565b9161027a565b14611e19577f000000000000000000000000000000000000000000000000000000000000000091611d526004610f1d565b91939085908792611d61610172565b966129b588019588871067ffffffffffffffff881117611e14578897611d8e976129b56120c08b39611c71565b03905ff08015611e0f57611da190611cd9565b91611db86001611db3600686906105c3565b610f92565b8291611df6611df0611dea7f53a5c9c3d59d99d9cb2a63e5447e3eff24f660a8da50147af644f7b4b1cfe18d956105b7565b92611ce5565b9261101d565b92611dff610172565b80611e09816102ee565b0390a490565b6113e0565b610196565b5f63bb962f3960e01b815280611e31600482016102ee565b0390fd5b606090565b67ffffffffffffffff8111611e525760208091020190565b610196565b90611e69611e6483611e3a565b6101d3565b918252565b611e7790610d15565b90565b90611e8482610bed565b611e8d81611e57565b92611e9b6020850191610bf1565b5f915b838310611eab5750505050565b600160208192611eba85611e6e565b815201920192019190611e9e565b611ed190611e7a565b90565b611edc611e35565b50611ee76007611ec8565b90565b5f90565b611efa611eff91610f04565b6105d9565b90565b611f0c9054611eee565b90565b611f26611f2b91611f1e611eea565b5060066105c3565b611f02565b90565b611f3f90611f3a612005565b611f41565b565b80611f5c611f56611f515f610ef8565b61027a565b9161027a565b14611f6e57611f6c906004610f4d565b565b5f63e6c4247b60e01b815280611f86600482016102ee565b0390fd5b611f9390611f2e565b565b611fa690611fa1612005565b611fa8565b565b80611fc3611fbd611fb85f610ef8565b61027a565b9161027a565b14611fd357611fd190612053565b565b611ff6611fdf5f610ef8565b5f918291631e4fbdf760e01b8352600483016104fe565b0390fd5b61200390611f95565b565b61200d611c5c565b61202661202061201b6120b2565b61027a565b9161027a565b0361202d57565b61204f6120386120b2565b5f91829163118cdaa760e01b8352600483016104fe565b0390fd5b61205c5f610f1d565b612066825f610f4d565b9061209a6120947f8be0079c531659141344cd1fd0a4f28419497f9722a3daafe3b4186f6b6457e0936105b7565b916105b7565b916120a3610172565b806120ad816102ee565b0390a3565b6120ba6119ca565b50339056fe60a060405234610070576100206100146101d3565b9594909493919361031e565b610028610075565b6124bb6104fa823960805181818161097201528181610ebb01528181611364015281816115d401528181611778015281816118a601528181611b9001526122ff01526124bb90f35b61007b565b60405190565b5f80fd5b601f801991011690565b634e487b7160e01b5f52604160045260245ffd5b906100a79061007f565b810190811060018060401b038211176100bf57604052565b610089565b906100d76100d0610075565b928361009d565b565b5f80fd5b60018060a01b031690565b6100f1906100dd565b90565b6100fd816100e8565b0361010457565b5f80fd5b90505190610115826100f4565b565b90565b61012381610117565b0361012a57565b5f80fd5b9050519061013b8261011a565b565b90565b6101498161013d565b0361015057565b5f80fd5b9050519061016182610140565b565b60e0818303126101ce57610179825f8301610108565b926101878360208401610108565b926101958160408501610108565b926101a3826060830161012e565b926101cb6101b4846080850161012e565b936101c28160a08601610154565b9360c00161012e565b90565b6100d9565b6101f16129b5803803806101e6816100c4565b928339810190610163565b90919293949596565b90565b61021161020c610216926100dd565b6101fa565b6100dd565b90565b610222906101fd565b90565b61022e90610219565b90565b5f1b90565b9061024760018060a01b0391610231565b9181191691161790565b61025a906101fd565b90565b61026690610251565b90565b90565b9061028161027c6102889261025d565b610269565b8254610236565b9055565b906102985f1991610231565b9181191691161790565b6102b66102b16102bb92610117565b6101fa565b610117565b90565b90565b906102d66102d16102dd926102a2565b6102be565b825461028c565b9055565b6102ea9061013d565b90565b5f1c90565b6102fb906102ed565b90565b9061031361030e61031a926102e1565b6102f2565b825461028c565b9055565b6103759695936103596103679461035261036e989561034861036096610343336103c4565b610225565b608052600261026c565b600361026c565b60066102c1565b60076102c1565b60096102fe565b600a6102c1565b565b90565b61038e61038961039392610377565b6101fa565b6100dd565b90565b61039f9061037a565b90565b6103ab906100e8565b9052565b91906103c2905f602085019401906103a2565b565b6103cc61041e565b806103e76103e16103dc5f610396565b6100e8565b916100e8565b146103f7576103f590610498565b565b61041a6104035f610396565b5f918291631e4fbdf760e01b8352600483016103af565b0390fd5b610426610454565b565b90565b61043f61043a61044492610428565b6101fa565b610117565b90565b610451600161042b565b90565b61046561045f610447565b5f6102c1565b565b60018060a01b031690565b61047e610483916102ed565b610467565b90565b6104909054610472565b90565b5f0190565b6104a26001610486565b6104ad82600161026c565b906104e16104db7f8be0079c531659141344cd1fd0a4f28419497f9722a3daafe3b4186f6b6457e09361025d565b9161025d565b916104ea610075565b806104f481610493565b0390a356fe60806040526004361015610013575b610acc565b61001d5f3561019c565b8063117de2fd14610197578063253da8bd1461019257806326be90bf1461018d5780632e1a7d4d146101885780633cb5d100146101835780633d9f31631461017e57806356c7f461146101795780635954252e146101745780635daf3c061461016f578063692a3d8e1461016a578063715018a6146101655780638c8ac76d146101605780638da5cb5b1461015b578063aebc34e414610156578063b2cc6e9114610151578063b6b55f251461014c578063c764636e14610147578063c9c9019114610142578063d2258beb1461013d578063e0a73a9314610138578063e9cbd82214610133578063edb6d0751461012e578063ee89ef3a146101295763f2fde38b0361000e57610a99565b610a64565b610a22565b6109ed565b61093b565b6108f7565b6108a4565b610860565b61081e565b6107e9565b6107a5565b610770565b61073c565b610709565b6106d4565b61066a565b6105d8565b610542565b61050d565b610487565b61032f565b6102dc565b6102a7565b610242565b60e01c90565b60405190565b5f80fd5b5f80fd5b60018060a01b031690565b6101c4906101b0565b90565b6101d0816101bb565b036101d757565b5f80fd5b905035906101e8826101c7565b565b90565b6101f6816101ea565b036101fd57565b5f80fd5b9050359061020e826101ed565b565b9190604083820312610238578061022c610235925f86016101db565b93602001610201565b90565b6101ac565b5f0190565b346102715761025b610255366004610210565b90610fb0565b6102636101a2565b8061026d8161023d565b0390f35b6101a8565b5f91031261028057565b6101ac565b61028e906101ea565b9052565b91906102a5905f60208501940190610285565b565b346102d7576102b7366004610276565b6102d36102c2610fc0565b6102ca6101a2565b91829182610292565b0390f35b6101a8565b3461030c576102ec366004610276565b6103086102f7610fd6565b6102ff6101a2565b91829182610292565b0390f35b6101a8565b9060208282031261032a57610327915f01610201565b90565b6101ac565b3461035d57610347610342366004610311565b6114f3565b61034f6101a2565b806103598161023d565b0390f35b6101a8565b634e487b7160e01b5f52603260045260245ffd5b5490565b5f5260205f2090565b61038c81610376565b8210156103a65761039e60039161037a565b910201905f90565b610362565b5f1c90565b60018060a01b031690565b6103c76103cc916103ab565b6103b0565b90565b6103d990546103bb565b90565b90565b6103eb6103f0916103ab565b6103dc565b90565b6103fd90546103df565b90565b60049061040c82610376565b8110156104445761041c91610383565b506104285f82016103cf565b91610441600261043a600185016103f3565b93016103f3565b90565b5f80fd5b610451906101bb565b9052565b60409061047e610485949695939661047460608401985f850190610448565b6020830190610285565b0190610285565b565b346104ba576104b66104a261049d366004610311565b610400565b6104ad9391936101a2565b93849384610455565b0390f35b6101a8565b1c90565b6104d39060086104d893026104bf565b6103b0565b90565b906104e691546104c3565b90565b6104f560025f906104db565b90565b919061050b905f60208501940190610448565b565b3461053d5761051d366004610276565b6105396105286104e9565b6105306101a2565b918291826104f8565b0390f35b6101a8565b3461057057610552366004610276565b61055a6116ba565b6105626101a2565b8061056c8161023d565b0390f35b6101a8565b60ff1690565b61058b90600861059093026104bf565b610575565b90565b9061059e915461057b565b90565b6105ae6008600190610593565b90565b151590565b6105bf906105b1565b9052565b91906105d6905f602085019401906105b6565b565b34610608576105e8366004610276565b6106046105f36105a1565b6105fb6101a2565b918291826105c3565b0390f35b6101a8565b90565b61062090600861062593026104bf565b61060d565b90565b906106339154610610565b90565b61064260095f90610628565b90565b90565b61065190610645565b9052565b9190610668905f60208501940190610648565b565b3461069a5761067a366004610276565b610696610685610636565b61068d6101a2565b91829182610655565b0390f35b6101a8565b6106af9060086106b493026104bf565b6103dc565b90565b906106c2915461069f565b90565b6106d160055f906106b7565b90565b34610704576106e4366004610276565b6107006106ef6106c5565b6106f76101a2565b91829182610292565b0390f35b6101a8565b3461073757610719366004610276565b610721611711565b6107296101a2565b806107338161023d565b0390f35b6101a8565b3461076b5761075561074f366004610210565b90611983565b61075d6101a2565b806107678161023d565b0390f35b6101a8565b346107a057610780366004610276565b61079c61078b611993565b6107936101a2565b918291826104f8565b0390f35b6101a8565b346107d5576107b5366004610276565b6107d16107c06119ad565b6107c86101a2565b918291826105c3565b0390f35b6101a8565b6107e660035f906104db565b90565b34610819576107f9366004610276565b6108156108046107da565b61080c6101a2565b918291826104f8565b0390f35b6101a8565b3461084c57610836610831366004610311565b611db7565b61083e6101a2565b806108488161023d565b0390f35b6101a8565b61085d60085f90610593565b90565b3461089057610870366004610276565b61088c61087b610851565b6108836101a2565b918291826105c3565b0390f35b6101a8565b6108a160065f906106b7565b90565b346108d4576108b4366004610276565b6108d06108bf610895565b6108c76101a2565b91829182610292565b0390f35b6101a8565b906020828203126108f2576108ef915f016101db565b90565b6101ac565b346109275761092361091261090d3660046108d9565b611dc2565b61091a6101a2565b91829182610292565b0390f35b6101a8565b61093860075f906106b7565b90565b3461096b5761094b366004610276565b61096761095661092c565b61095e6101a2565b91829182610292565b0390f35b6101a8565b7f000000000000000000000000000000000000000000000000000000000000000090565b90565b6109ab6109a66109b0926101b0565b610994565b6101b0565b90565b6109bc90610997565b90565b6109c8906109b3565b90565b6109d4906109bf565b9052565b91906109eb905f602085019401906109cb565b565b34610a1d576109fd366004610276565b610a19610a08610970565b610a106101a2565b918291826109d8565b0390f35b6101a8565b34610a5057610a3a610a353660046108d9565b611e7d565b610a426101a2565b80610a4c8161023d565b0390f35b6101a8565b610a61600a5f906106b7565b90565b34610a9457610a74366004610276565b610a90610a7f610a55565b610a876101a2565b91829182610292565b0390f35b6101a8565b34610ac757610ab1610aac3660046108d9565b611eed565b610ab96101a2565b80610ac38161023d565b0390f35b6101a8565b5f80fd5b9033610aed610ae7610ae260026103cf565b6101bb565b916101bb565b03610afd57610afb91610b19565b565b5f63db8d1fb760e01b815280610b156004820161023d565b0390fd5b90610b2b91610b26611f24565b610d0e565b610b33611f87565b565b90565b610b4c610b47610b5192610b35565b610994565b6101ea565b90565b610b60610b65916103ab565b610575565b90565b610b729054610b54565b90565b60081c90565b610b87610b8c91610b75565b610575565b90565b610b999054610b7b565b90565b60081b90565b90610baf61ff0091610b9c565b9181191691161790565b610bc2906105b1565b90565b90565b90610bdd610bd8610be492610bb9565b610bc5565b8254610ba2565b9055565b634e487b7160e01b5f52601160045260245ffd5b610c05906101ea565b5f198114610c135760010190565b610be8565b610c27610c2d919392936101ea565b926101ea565b91610c398382026101ea565b928184041490151715610c4857565b610be8565b634e487b7160e01b5f52601260045260245ffd5b610c6d610c73916101ea565b916101ea565b908115610c7e570490565b610c4d565b610c92610c98919392936101ea565b926101ea565b8203918211610ca357565b610be8565b5f1b90565b90610cb95f1991610ca8565b9181191691161790565b610cd7610cd2610cdc926101ea565b610994565b6101ea565b90565b90565b90610cf7610cf2610cfe92610cc3565b610cdf565b8254610cad565b9055565b610d0b906109b3565b90565b9080610d22610d1c5f610b38565b916101ea565b14610f9457610d3a610d346008610b68565b156105b1565b610f7857610d486008610b8f565b610f5c57610d5660056103f3565b610d68610d62836101ea565b916101ea565b10610f4057610d7960016008610bc8565b8092610d845f610b38565b935b84610da2610d9c610d976004610376565b6101ea565b916101ea565b1080610f26575b15610eb257610e81610e8791610dea610dda610dd36001610dcc60048c90610383565b50016103f3565b8790610c18565b610de460066103f3565b90610c61565b80610e13610e0d610e086001610e018d6004610383565b50016103f3565b6101ea565b916101ea565b11610e94575b80610e2c610e26846101ea565b916101ea565b11610e8d575b610e5e81610e586001610e4760048d90610383565b500191610e53836103f3565b610c83565b90610ce2565b610e7b610e7482610e6f60056103f3565b610c83565b6005610ce2565b90610c83565b94610bfc565b93610d86565b5080610e32565b50610ead6001610ea660048a90610383565b50016103f3565b610e19565b50925090610ee27f0000000000000000000000000000000000000000000000000000000000000000828491611ff4565b610f21610f0f7f5afeca38b2064c23a692c4cf353015d80ab3ecc417b4f893f372690c11fbd9a692610d02565b92610f186101a2565b91829182610292565b0390a2565b5080610f3a610f345f610b38565b916101ea565b11610da9565b5f63356680b760e01b815280610f586004820161023d565b0390fd5b5f636fd6bb0960e01b815280610f746004820161023d565b0390fd5b5f638966b51f60e01b815280610f906004820161023d565b0390fd5b5f63162908e360e11b815280610fac6004820161023d565b0390fd5b90610fba91610ad0565b565b5f90565b610fc8610fbc565b50610fd36004610376565b90565b610fde610fbc565b50610fe960056103f3565b90565b610ffd90610ff8611f24565b61122f565b611005611f87565b565b600161101391016101ea565b90565b90565b61102d61102861103292611016565b610994565b6101ea565b90565b61104461104a919392936101ea565b926101ea565b820180921161105557565b610be8565b634e487b7160e01b5f525f60045260245ffd5b9061107e60018060a01b0391610ca8565b9181191691161790565b90565b906110a061109b6110a792610d02565b611088565b825461106d565b9055565b908082036110b8575b5050565b6110fa600280846110d95f61110097016110d35f88016103cf565b9061108b565b6110f2600182016110ec600188016103f3565b90610ce2565b0192016103f3565b90610ce2565b5f806110b4565b919061111857611116916110ab565b565b61105a565b90565b634e487b7160e01b5f52603160045260245ffd5b5490565b5f5260205f2090565b61114a81611134565b8210156111645761115c600391611138565b910201905f90565b610362565b1b90565b919060086111889102916111825f1984611169565b92611169565b9181191691161790565b91906111a86111a36111b093610cc3565b610cdf565b90835461116d565b9055565b6111c6916111c0610fbc565b91611192565b565b5f60026111e79282808201556111e183600183016111b4565b016111b4565b565b905f036111fb576111f9906111c8565b565b61105a565b61120981611134565b801561122a5760019003906112276112218383611141565b906111e9565b55565b611120565b8061124261123c5f610b38565b916101ea565b146114d7576112516008610b68565b6114bb5761125f6004610376565b905f9161126b5f610b38565b5b8061128861128261127d6004610376565b6101ea565b916101ea565b10156114af576112a55f61129e60048490610383565b50016103cf565b6112b76112b1336101bb565b916101bb565b146112ca576112c590611007565b61126c565b919250506112da60015b156105b1565b801561147e575b611462576113118261130b60016112fa60048690610383565b500191611306836103f3565b610c83565b90610ce2565b61132e6113278361132260056103f3565b610c83565b6005610ce2565b611346600161133f60048490610383565b50016103f3565b6113586113525f610b38565b916101ea565b146113d0575b5061138b7f0000000000000000000000000000000000000000000000000000000000000000338391611ff4565b336113cb6113b97f884edad9ce6fa2440d8a54cc123490eb96d2768479d49ff9c7366125a942436492610d02565b926113c26101a2565b91829182610292565b0390a2565b5b806114006113fa6113f56113e56004610376565b6113ef6001611019565b90610c83565b6101ea565b916101ea565b1015611449576114449061143f61142c6004611426846114206001611019565b90611035565b90610383565b5061143960048490610383565b90611107565b611007565b6113d1565b5061145c611457600461111d565b611200565b5f61135e565b5f63356680b760e01b81528061147a6004820161023d565b0390fd5b50611497600161149060048490610383565b50016103f3565b6114a96114a3846101ea565b916101ea565b106112e1565b5090916112da906112d4565b5f634384d4cf60e01b8152806114d36004820161023d565b0390fd5b5f63162908e360e11b8152806114ef6004820161023d565b0390fd5b6114fc90610fec565b565b611506611f24565b61150e611518565b611516611f87565b565b6115226008610b68565b806116a1575b611685576115355f610b38565b5b8061155261154c6115476004610376565b6101ea565b916101ea565b101561166f5761159190611574600161156d60048490610383565b50016103f3565b6115866115805f610b38565b916101ea565b11611596575b611007565b611536565b6115ae60016115a760048490610383565b50016103f3565b6115cf6115ba5f610b38565b60016115c860048690610383565b5001610ce2565b6116117f000000000000000000000000000000000000000000000000000000000000000061160a5f61160360048790610383565b50016103cf565b8391611ff4565b6116285f61162160048590610383565b50016103cf565b6116676116557fa171b6942063c6f2800ce40a780edce37baa2b618571b11eedd1e69e626e7d7692610d02565b9261165e6101a2565b91829182610292565b0390a261158c565b5061168361167c5f610b38565b6005610ce2565b565b5f638966b51f60e01b81528061169d6004820161023d565b0390fd5b506116b56116af6008610b8f565b156105b1565b611528565b6116c26114fe565b565b6116cc612042565b6116d46116fe565b565b6116ea6116e56116ef92610b35565b610994565b6101b0565b90565b6116fb906116d6565b90565b61170f61170a5f6116f2565b612090565b565b6117196116c4565b565b9061172d91611728611f24565b611743565b611735611f87565b565b611740906109b3565b90565b816117566117505f610b38565b916101ea565b146119675761176e6117686008610b68565b156105b1565b61194b576117a9907f0000000000000000000000000000000000000000000000000000000000000000906117a130611737565b908492612123565b6117c66117bf826117ba60076103f3565b611035565b6007610ce2565b6117d06004610376565b6117e26117dc5f610b38565b916101ea565b116117eb575b50565b906117f55f610b38565b5b8061181261180c6118076004610376565b6101ea565b916101ea565b10156119425761189c9061185161184161183a600161183360048690610383565b50016103f3565b8690610c18565b61184b60066103f3565b90610c61565b61187d81611877600261186660048790610383565b500191611872836103f3565b611035565b90610ce2565b8061189061188a5f610b38565b916101ea565b116118a1575b50611007565b6117f6565b6118e37f00000000000000000000000000000000000000000000000000000000000000006118dc5f6118d560048790610383565b50016103cf565b8391611ff4565b6118fa5f6118f360048590610383565b50016103cf565b6119396119277f33798b4297ef6b211addd8421ab89981de2a0b8a2da7f2ed5ae66a7bdd676e4392610d02565b926119306101a2565b91829182610292565b0390a25f611896565b5090505f6117e8565b5f638966b51f60e01b8152806119636004820161023d565b0390fd5b5f63162908e360e11b81528061197f6004820161023d565b0390fd5b9061198d9161171b565b565b5f90565b61199b61198f565b506119a660016103cf565b90565b5f90565b6119b56119a9565b506119c060056103f3565b6119db6119d56119d060066103f3565b6101ea565b916101ea565b101590565b6119f1906119ec611f24565b611b31565b6119f9611f87565b565b601f801991011690565b634e487b7160e01b5f52604160045260245ffd5b90611a23906119fb565b810190811067ffffffffffffffff821117611a3d57604052565b611a05565b90611a55611a4e6101a2565b9283611a19565b565b611a616060611a42565b90565b90611a6e906101bb565b9052565b90611a7c906101ea565b9052565b611a8a90516101bb565b90565b611a9790516101ea565b90565b90611ade60406002611ae494611abd5f8201611ab75f8801611a80565b9061108b565b611ad660018201611ad060208801611a8d565b90610ce2565b019201611a8d565b90610ce2565b565b9190611af757611af591611a9a565b565b61105a565b9081549168010000000000000000831015611b2c5782611b24916001611b2a95018155611141565b90611ae6565b565b611a05565b80611b44611b3e5f610b38565b916101ea565b14611d9b57611b536008610b68565b611d7f57611b6b611b6460056103f3565b8290611035565b611b86611b80611b7b60066103f3565b6101ea565b916101ea565b11611d6357611bc17f000000000000000000000000000000000000000000000000000000000000000033611bb930611737565b908492612123565b611bcb6004610376565b905f91611bd75f610b38565b5b80611bf4611bee611be96004610376565b6101ea565b916101ea565b1015611d5b57611c115f611c0a60048490610383565b50016103cf565b611c23611c1d336101bb565b916101bb565b14611c3657611c3190611007565b611bd8565b9192505060015b5f14611d0a57611c6f90611c696001611c5885936004610383565b500191611c64836103f3565b611035565b90610ce2565b5b611c8d611c8682611c8160056103f3565b611035565b6005610ce2565b33611ccd611cbb7fc3c35c0e1648b9d3680278ad9b2de1cdc43d35e65295324601644b1fe5cd6af692610d02565b92611cc46101a2565b91829182610292565b0390a2611cda60056103f3565b611cf5611cef611cea60066103f3565b6101ea565b916101ea565b14611cfd575b565b611d056121cc565b611cfb565b50611d56611d18600461111d565b3390611d51611d4885611d435f91611d3a611d31611a57565b975f8901611a64565b60208701611a72565b610b38565b60408401611a72565b611afc565b611c70565b509091611c3d565b5f63a119bbe760e01b815280611d7b6004820161023d565b0390fd5b5f634384d4cf60e01b815280611d976004820161023d565b0390fd5b5f63162908e360e11b815280611db36004820161023d565b0390fd5b611dc0906119e0565b565b611dca610fbc565b50611dd45f610b38565b5b80611df1611deb611de66004610376565b6101ea565b916101ea565b1015611e4f57611e0e5f611e0760048490610383565b50016103cf565b611e20611e1a846101bb565b916101bb565b14611e3357611e2e90611007565b611dd5565b611e4c9150611e456001916004610383565b50016103f3565b90565b5050611e5a5f610b38565b90565b611e6e90611e69612042565b611e70565b565b611e7b90600261108b565b565b611e8690611e5d565b565b611e9990611e94612042565b611e9b565b565b80611eb6611eb0611eab5f6116f2565b6101bb565b916101bb565b14611ec657611ec490612090565b565b611ee9611ed25f6116f2565b5f918291631e4fbdf760e01b8352600483016104f8565b0390fd5b611ef690611e88565b565b90565b611f0f611f0a611f1492611ef8565b610994565b6101ea565b90565b611f216002611efb565b90565b611f2d5f6103f3565b611f46611f40611f3b611f17565b6101ea565b916101ea565b14611f5e57611f5c611f56611f17565b5f610ce2565b565b5f633ee5aeb560e01b815280611f766004820161023d565b0390fd5b611f846001611019565b90565b611f98611f92611f7a565b5f610ce2565b565b63ffffffff1690565b63ffffffff60e01b1690565b60e01b90565b611fc9611fc4611fce92611f9a565b611faf565b611fa3565b90565b916020611ff2929493611feb60408201965f830190610448565b0190610285565b565b9061203b6120409361202c6004949361201363a9059cbb919391611fb5565b9261201c6101a2565b9687946020860190815201611fd1565b60208201810382520383611a19565b6123c4565b565b61204a611993565b61206361205d612058612478565b6101bb565b916101bb565b0361206a57565b61208c612075612478565b5f91829163118cdaa760e01b8352600483016104f8565b0390fd5b61209a60016103cf565b6120a582600161108b565b906120d96120d37f8be0079c531659141344cd1fd0a4f28419497f9722a3daafe3b4186f6b6457e093610d02565b91610d02565b916120e26101a2565b806120ec8161023d565b0390a3565b60409061211a612121949695939661211060608401985f850190610448565b6020830190610448565b0190610285565b565b60049261215d612171959361216c93946121446323b872dd92949192611fb5565b9361214d6101a2565b97889560208701908152016120f1565b60208201810382520383611a19565b6123c4565b565b9061217f60ff91610ca8565b9181191691161790565b9061219e6121996121a592610bb9565b610bc5565b8254612173565b9055565b9160206121ca9294936121c360408201965f830190610285565b0190610285565b565b6121d860016008612189565b6121e260076103f3565b6121f46121ee5f610b38565b916101ea565b11806123a1575b61224f575b61220a60066103f3565b61221460076103f3565b7f3f8123372734fb13d1b8ab3f6f2587b5f6525008a9cfc41e67738e01904e67ad9161224a6122416101a2565b928392836121a9565b0390a1565b6122585f610b38565b5b8061227561226f61226a6004610376565b6101ea565b916101ea565b101561239b576122f5906122bd6122ad61229d600161229660048690610383565b50016103f3565b6122a760076103f3565b90610c18565b6122b760066103f3565b90610c61565b6122d68160026122cf60048690610383565b5001610ce2565b806122e96122e35f610b38565b916101ea565b116122fa575b50611007565b612259565b61233c7f00000000000000000000000000000000000000000000000000000000000000006123355f61232e60048790610383565b50016103cf565b8391611ff4565b6123535f61234c60048590610383565b50016103cf565b6123926123807f33798b4297ef6b211addd8421ab89981de2a0b8a2da7f2ed5ae66a7bdd676e4392610d02565b926123896101a2565b91829182610292565b0390a25f6122ef565b50612200565b506123ac6004610376565b6123be6123b85f610b38565b916101ea565b116121fb565b905f6020916123d1610fbc565b506123da610fbc565b50828151910182855af11561246d573d5f51906123ff6123f95f610b38565b916101ea565b145f146124535750612410816109bf565b3b61242361241d5f610b38565b916101ea565b145b61242c5750565b61243861244f916109bf565b5f918291635274afe760e01b8352600483016104f8565b0390fd5b6124666124606001611019565b916101ea565b1415612425565b6040513d5f823e3d90fd5b61248061198f565b50339056fea2646970667358221220afb6e6c2d94acf26e65d27191bbc170ad93a399172c03f0037dd2725ced3655264736f6c634300081a0033a26469706673582212206b875a82c9121b32aacac0aa0cf10837d401770fdb85a82a69f8f59c2564ff6f64736f6c634300081a0033","linkReferences":{}},"methodIdentifiers":{"airlinePools(string)":"98a262f3","buyInsuranceAirline(address,string,bytes32,string,uint256,uint256,uint256)":"5b1e1f3c","buyInsuranceCrowdFill(address,bytes32,string,uint256,uint256,uint256)":"72df3a2f","buyInsuranceGlobal(address,bytes32,string,uint256,uint256,uint256)":"1767cb57","createCrowdFillPool(address,uint256,uint256,bytes32,uint256)":"92e6f261","getAirlinePool(string)":"5fd6704b","getRegisteredAirlines()":"c23bcf09","globalPool()":"39115784","isPoolRegistered(address)":"c673bdaf","oracleAdapter()":"3d9f3163","owner()":"8da5cb5b","policyNFT()":"af02808a","registerAirline(string,address)":"0e2c4129","registeredAirlines(uint256)":"de08e926","registeredPools(address)":"4578d290","renounceOwnership()":"715018a6","setGlobalPool(address)":"34bc2eaa","setOracleAdapter(address)":"edb6d075","setPolicyNFT(address)":"72f5b6df","stablecoin()":"e9cbd822","transferOwnership(address)":"f2fde38b"},"id":49}