{"abi":[{"type":"constructor","inputs":[{"name":"_stablecoin","type":"address","internalType":"address"},{"name":"_oracleAdapter","type":"address","internalType":"address"},{"name":"_policyOwner","type":"address","internalType":"address"},{"name":"_coverageRequired","type":"uint256","internalType":"uint256"},{"name":"_premium","type":"uint256","internalType":"uint256"},{"name":"_flightId","type":"bytes32","internalType":"bytes32"},{"name":"_policyId","type":"uint256","internalType":"uint256"}],"stateMutability":"nonpayable"},{"type":"function","name":"collectPremium","inputs":[{"name":"from","type":"address","internalType":"address"},{"name":"amount","type":"uint256","internalType":"uint256"}],"outputs":[],"stateMutability":"nonpayable"},{"type":"function","name":"contributors","inputs":[{"name":"","type":"uint256","internalType":"uint256"}],"outputs":[{"name":"lp","type":"address","internalType":"address"},{"name":"amount","type":"uint256","internalType":"uint256"},{"name":"premiumShare","type":"uint256","internalType":"uint256"}],"stateMutability":"view"},{"type":"function","name":"coverageRequired","inputs":[],"outputs":[{"name":"","type":"uint256","internalType":"uint256"}],"stateMutability":"view"},{"type":"function","name":"currentFilled","inputs":[],"outputs":[{"name":"","type":"uint256","internalType":"uint256"}],"stateMutability":"view"},{"type":"function","name":"deposit","inputs":[{"name":"amount","type":"uint256","internalType":"uint256"}],"outputs":[],"stateMutability":"nonpayable"},{"type":"function","name":"flightId","inputs":[],"outputs":[{"name":"","type":"bytes32","internalType":"bytes32"}],"stateMutability":"view"},{"type":"function","name":"getContributorCount","inputs":[],"outputs":[{"name":"","type":"uint256","internalType":"uint256"}],"stateMutability":"view"},{"type":"function","name":"getLPBalance","inputs":[{"name":"user","type":"address","internalType":"address"}],"outputs":[{"name":"","type":"uint256","internalType":"uint256"}],"stateMutability":"view"},{"type":"function","name":"getPoolTVL","inputs":[],"outputs":[{"name":"","type":"uint256","internalType":"uint256"}],"stateMutability":"view"},{"type":"function","name":"isFullyFunded","inputs":[],"outputs":[{"name":"","type":"bool","internalType":"bool"}],"stateMutability":"view"},{"type":"function","name":"oracleAdapter","inputs":[],"outputs":[{"name":"","type":"address","internalType":"address"}],"stateMutability":"view"},{"type":"function","name":"owner","inputs":[],"outputs":[{"name":"","type":"address","internalType":"address"}],"stateMutability":"view"},{"type":"function","name":"payout","inputs":[{"name":"to","type":"address","internalType":"address"},{"name":"amount","type":"uint256","internalType":"uint256"}],"outputs":[],"stateMutability":"nonpayable"},{"type":"function","name":"payoutExecuted","inputs":[],"outputs":[{"name":"","type":"bool","internalType":"bool"}],"stateMutability":"view"},{"type":"function","name":"policyActive","inputs":[],"outputs":[{"name":"","type":"bool","internalType":"bool"}],"stateMutability":"view"},{"type":"function","name":"policyId","inputs":[],"outputs":[{"name":"","type":"uint256","internalType":"uint256"}],"stateMutability":"view"},{"type":"function","name":"policyOwner","inputs":[],"outputs":[{"name":"","type":"address","internalType":"address"}],"stateMutability":"view"},{"type":"function","name":"premium","inputs":[],"outputs":[{"name":"","type":"uint256","internalType":"uint256"}],"stateMutability":"view"},{"type":"function","name":"refundContributors","inputs":[],"outputs":[],"stateMutability":"nonpayable"},{"type":"function","name":"renounceOwnership","inputs":[],"outputs":[],"stateMutability":"nonpayable"},{"type":"function","name":"setOracleAdapter","inputs":[{"name":"_oracleAdapter","type":"address","internalType":"address"}],"outputs":[],"stateMutability":"nonpayable"},{"type":"function","name":"stablecoin","inputs":[],"outputs":[{"name":"","type":"address","internalType":"contract IERC20"}],"stateMutability":"view"},{"type":"function","name":"transferOwnership","inputs":[{"name":"newOwner","type":"address","internalType":"address"}],"outputs":[],"stateMutability":"nonpayable"},{"type":"function","name":"withdraw","inputs":[{"name":"amount","type":"uint256","internalType":"uint256"}],"outputs":[],"stateMutability":"nonpayable"},{"type":"event","name":"CrowdFillActivated","inputs":[{"name":"coverageRequired","type":"uint256","indexed":false,"internalType":"uint256"},{"name":"premium","type":"uint256","indexed":false,"internalType":"uint256"}],"anonymous":false},{"type":"event","name":"CrowdFillContribution","inputs":[{"name":"contributor","type":"address","indexed":true,"internalType":"address"},{"name":"amount","type":"uint256","indexed":false,"internalType":"uint256"}],"anonymous":false},{"type":"event","name":"OwnershipTransferred","inputs":[{"name":"previousOwner","type":"address","indexed":true,"internalType":"address"},{"name":"newOwner","type":"address","indexed":true,"internalType":"address"}],"anonymous":false},{"type":"event","name":"Payout","inputs":[{"name":"user","type":"address","indexed":true,"internalType":"address"},{"name":"amount","type":"uint256","indexed":false,"internalType":"uint256"}],"anonymous":false},{"type":"event","name":"PremiumDistributed","inputs":[{"name":"contributor","type":"address","indexed":true,"internalType":"address"},{"name":"amount","type":"uint256","indexed":false,"internalType":"uint256"}],"anonymous":false},{"type":"event","name":"RefundIssued","inputs":[{"name":"contributor","type":"address","indexed":true,"internalType":"address"},{"name":"amount","type":"uint256","indexed":false,"internalType":"uint256"}],"anonymous":false},{"type":"event","name":"Withdraw","inputs":[{"name":"lp","type":"address","indexed":true,"internalType":"address"},{"name":"amount","type":"uint256","indexed":false,"internalType":"uint256"}],"anonymous":false},{"type":"error","name":"ExceedsCoverageRequired","inputs":[]},{"type":"error","name":"InsufficientFunds","inputs":[]},{"type":"error","name":"InvalidAmount","inputs":[]},{"type":"error","name":"OwnableInvalidOwner","inputs":[{"name":"owner","type":"address","internalType":"address"}]},{"type":"error","name":"OwnableUnauthorizedAccount","inputs":[{"name":"account","type":"address","internalType":"address"}]},{"type":"error","name":"PayoutAlreadyExecuted","inputs":[]},{"type":"error","name":"PolicyAlreadyActive","inputs":[]},{"type":"error","name":"PolicyNotActive","inputs":[]},{"type":"error","name":"PolicyNotFullyFunded","inputs":[]},{"type":"error","name":"ReentrancyGuardReentrantCall","inputs":[]},{"type":"error","name":"SafeERC20FailedOperation","inputs":[{"name":"token","type":"address","internalType":"address"}]},{"type":"error","name":"UnauthorizedOracle","inputs":[]}],"bytecode":{"object":"0x60a060405234610070576100206100146101d3565b9594909493919361031e565b610028610075565b6124bb6104fa823960805181818161097201528181610ebb01528181611364015281816115d401528181611778015281816118a601528181611b9001526122ff01526124bb90f35b61007b565b60405190565b5f80fd5b601f801991011690565b634e487b7160e01b5f52604160045260245ffd5b906100a79061007f565b810190811060018060401b038211176100bf57604052565b610089565b906100d76100d0610075565b928361009d565b565b5f80fd5b60018060a01b031690565b6100f1906100dd565b90565b6100fd816100e8565b0361010457565b5f80fd5b90505190610115826100f4565b565b90565b61012381610117565b0361012a57565b5f80fd5b9050519061013b8261011a565b565b90565b6101498161013d565b0361015057565b5f80fd5b9050519061016182610140565b565b60e0818303126101ce57610179825f8301610108565b926101878360208401610108565b926101958160408501610108565b926101a3826060830161012e565b926101cb6101b4846080850161012e565b936101c28160a08601610154565b9360c00161012e565b90565b6100d9565b6101f16129b5803803806101e6816100c4565b928339810190610163565b90919293949596565b90565b61021161020c610216926100dd565b6101fa565b6100dd565b90565b610222906101fd565b90565b61022e90610219565b90565b5f1b90565b9061024760018060a01b0391610231565b9181191691161790565b61025a906101fd565b90565b61026690610251565b90565b90565b9061028161027c6102889261025d565b610269565b8254610236565b9055565b906102985f1991610231565b9181191691161790565b6102b66102b16102bb92610117565b6101fa565b610117565b90565b90565b906102d66102d16102dd926102a2565b6102be565b825461028c565b9055565b6102ea9061013d565b90565b5f1c90565b6102fb906102ed565b90565b9061031361030e61031a926102e1565b6102f2565b825461028c565b9055565b6103759695936103596103679461035261036e989561034861036096610343336103c4565b610225565b608052600261026c565b600361026c565b60066102c1565b60076102c1565b60096102fe565b600a6102c1565b565b90565b61038e61038961039392610377565b6101fa565b6100dd565b90565b61039f9061037a565b90565b6103ab906100e8565b9052565b91906103c2905f602085019401906103a2565b565b6103cc61041e565b806103e76103e16103dc5f610396565b6100e8565b916100e8565b146103f7576103f590610498565b565b61041a6104035f610396565b5f918291631e4fbdf760e01b8352600483016103af565b0390fd5b610426610454565b565b90565b61043f61043a61044492610428565b6101fa565b610117565b90565b610451600161042b565b90565b61046561045f610447565b5f6102c1565b565b60018060a01b031690565b61047e610483916102ed565b610467565b90565b6104909054610472565b90565b5f0190565b6104a26001610486565b6104ad82600161026c565b906104e16104db7f8be0079c531659141344cd1fd0a4f28419497f9722a3daafe3b4186f6b6457e09361025d565b9161025d565b916104ea610075565b806104f481610493565b0390a356fe60806040526004361015610013575b610acc565b61001d5f3561019c565b8063117de2fd14610197578063253da8bd1461019257806326be90bf1461018d5780632e1a7d4d146101885780633cb5d100146101835780633d9f31631461017e57806356c7f461146101795780635954252e146101745780635daf3c061461016f578063692a3d8e1461016a578063715018a6146101655780638c8ac76d146101605780638da5cb5b1461015b578063aebc34e414610156578063b2cc6e9114610151578063b6b55f251461014c578063c764636e14610147578063c9c9019114610142578063d2258beb1461013d578063e0a73a9314610138578063e9cbd82214610133578063edb6d0751461012e578063ee89ef3a146101295763f2fde38b0361000e57610a99565b610a64565b610a22565b6109ed565b61093b565b6108f7565b6108a4565b610860565b61081e565b6107e9565b6107a5565b610770565b61073c565b610709565b6106d4565b61066a565b6105d8565b610542565b61050d565b610487565b61032f565b6102dc565b6102a7565b610242565b60e01c90565b60405190565b5f80fd5b5f80fd5b60018060a01b031690565b6101c4906101b0565b90565b6101d0816101bb565b036101d757565b5f80fd5b905035906101e8826101c7565b565b90565b6101f6816101ea565b036101fd57565b5f80fd5b9050359061020e826101ed565b565b9190604083820312610238578061022c610235925f86016101db565b93602001610201565b90565b6101ac565b5f0190565b346102715761025b610255366004610210565b90610fb0565b6102636101a2565b8061026d8161023d565b0390f35b6101a8565b5f91031261028057565b6101ac565b61028e906101ea565b9052565b91906102a5905f60208501940190610285565b565b346102d7576102b7366004610276565b6102d36102c2610fc0565b6102ca6101a2565b91829182610292565b0390f35b6101a8565b3461030c576102ec366004610276565b6103086102f7610fd6565b6102ff6101a2565b91829182610292565b0390f35b6101a8565b9060208282031261032a57610327915f01610201565b90565b6101ac565b3461035d57610347610342366004610311565b6114f3565b61034f6101a2565b806103598161023d565b0390f35b6101a8565b634e487b7160e01b5f52603260045260245ffd5b5490565b5f5260205f2090565b61038c81610376565b8210156103a65761039e60039161037a565b910201905f90565b610362565b5f1c90565b60018060a01b031690565b6103c76103cc916103ab565b6103b0565b90565b6103d990546103bb565b90565b90565b6103eb6103f0916103ab565b6103dc565b90565b6103fd90546103df565b90565b60049061040c82610376565b8110156104445761041c91610383565b506104285f82016103cf565b91610441600261043a600185016103f3565b93016103f3565b90565b5f80fd5b610451906101bb565b9052565b60409061047e610485949695939661047460608401985f850190610448565b6020830190610285565b0190610285565b565b346104ba576104b66104a261049d366004610311565b610400565b6104ad9391936101a2565b93849384610455565b0390f35b6101a8565b1c90565b6104d39060086104d893026104bf565b6103b0565b90565b906104e691546104c3565b90565b6104f560025f906104db565b90565b919061050b905f60208501940190610448565b565b3461053d5761051d366004610276565b6105396105286104e9565b6105306101a2565b918291826104f8565b0390f35b6101a8565b3461057057610552366004610276565b61055a6116ba565b6105626101a2565b8061056c8161023d565b0390f35b6101a8565b60ff1690565b61058b90600861059093026104bf565b610575565b90565b9061059e915461057b565b90565b6105ae6008600190610593565b90565b151590565b6105bf906105b1565b9052565b91906105d6905f602085019401906105b6565b565b34610608576105e8366004610276565b6106046105f36105a1565b6105fb6101a2565b918291826105c3565b0390f35b6101a8565b90565b61062090600861062593026104bf565b61060d565b90565b906106339154610610565b90565b61064260095f90610628565b90565b90565b61065190610645565b9052565b9190610668905f60208501940190610648565b565b3461069a5761067a366004610276565b610696610685610636565b61068d6101a2565b91829182610655565b0390f35b6101a8565b6106af9060086106b493026104bf565b6103dc565b90565b906106c2915461069f565b90565b6106d160055f906106b7565b90565b34610704576106e4366004610276565b6107006106ef6106c5565b6106f76101a2565b91829182610292565b0390f35b6101a8565b3461073757610719366004610276565b610721611711565b6107296101a2565b806107338161023d565b0390f35b6101a8565b3461076b5761075561074f366004610210565b90611983565b61075d6101a2565b806107678161023d565b0390f35b6101a8565b346107a057610780366004610276565b61079c61078b611993565b6107936101a2565b918291826104f8565b0390f35b6101a8565b346107d5576107b5366004610276565b6107d16107c06119ad565b6107c86101a2565b918291826105c3565b0390f35b6101a8565b6107e660035f906104db565b90565b34610819576107f9366004610276565b6108156108046107da565b61080c6101a2565b918291826104f8565b0390f35b6101a8565b3461084c57610836610831366004610311565b611db7565b61083e6101a2565b806108488161023d565b0390f35b6101a8565b61085d60085f90610593565b90565b3461089057610870366004610276565b61088c61087b610851565b6108836101a2565b918291826105c3565b0390f35b6101a8565b6108a160065f906106b7565b90565b346108d4576108b4366004610276565b6108d06108bf610895565b6108c76101a2565b91829182610292565b0390f35b6101a8565b906020828203126108f2576108ef915f016101db565b90565b6101ac565b346109275761092361091261090d3660046108d9565b611dc2565b61091a6101a2565b91829182610292565b0390f35b6101a8565b61093860075f906106b7565b90565b3461096b5761094b366004610276565b61096761095661092c565b61095e6101a2565b91829182610292565b0390f35b6101a8565b7f000000000000000000000000000000000000000000000000000000000000000090565b90565b6109ab6109a66109b0926101b0565b610994565b6101b0565b90565b6109bc90610997565b90565b6109c8906109b3565b90565b6109d4906109bf565b9052565b91906109eb905f602085019401906109cb565b565b34610a1d576109fd366004610276565b610a19610a08610970565b610a106101a2565b918291826109d8565b0390f35b6101a8565b34610a5057610a3a610a353660046108d9565b611e7d565b610a426101a2565b80610a4c8161023d565b0390f35b6101a8565b610a61600a5f906106b7565b90565b34610a9457610a74366004610276565b610a90610a7f610a55565b610a876101a2565b91829182610292565b0390f35b6101a8565b34610ac757610ab1610aac3660046108d9565b611eed565b610ab96101a2565b80610ac38161023d565b0390f35b6101a8565b5f80fd5b9033610aed610ae7610ae260026103cf565b6101bb565b916101bb565b03610afd57610afb91610b19565b565b5f63db8d1fb760e01b815280610b156004820161023d565b0390fd5b90610b2b91610b26611f24565b610d0e565b610b33611f87565b565b90565b610b4c610b47610b5192610b35565b610994565b6101ea565b90565b610b60610b65916103ab565b610575565b90565b610b729054610b54565b90565b60081c90565b610b87610b8c91610b75565b610575565b90565b610b999054610b7b565b90565b60081b90565b90610baf61ff0091610b9c565b9181191691161790565b610bc2906105b1565b90565b90565b90610bdd610bd8610be492610bb9565b610bc5565b8254610ba2565b9055565b634e487b7160e01b5f52601160045260245ffd5b610c05906101ea565b5f198114610c135760010190565b610be8565b610c27610c2d919392936101ea565b926101ea565b91610c398382026101ea565b928184041490151715610c4857565b610be8565b634e487b7160e01b5f52601260045260245ffd5b610c6d610c73916101ea565b916101ea565b908115610c7e570490565b610c4d565b610c92610c98919392936101ea565b926101ea565b8203918211610ca357565b610be8565b5f1b90565b90610cb95f1991610ca8565b9181191691161790565b610cd7610cd2610cdc926101ea565b610994565b6101ea565b90565b90565b90610cf7610cf2610cfe92610cc3565b610cdf565b8254610cad565b9055565b610d0b906109b3565b90565b9080610d22610d1c5f610b38565b916101ea565b14610f9457610d3a610d346008610b68565b156105b1565b610f7857610d486008610b8f565b610f5c57610d5660056103f3565b610d68610d62836101ea565b916101ea565b10610f4057610d7960016008610bc8565b8092610d845f610b38565b935b84610da2610d9c610d976004610376565b6101ea565b916101ea565b1080610f26575b15610eb257610e81610e8791610dea610dda610dd36001610dcc60048c90610383565b50016103f3565b8790610c18565b610de460066103f3565b90610c61565b80610e13610e0d610e086001610e018d6004610383565b50016103f3565b6101ea565b916101ea565b11610e94575b80610e2c610e26846101ea565b916101ea565b11610e8d575b610e5e81610e586001610e4760048d90610383565b500191610e53836103f3565b610c83565b90610ce2565b610e7b610e7482610e6f60056103f3565b610c83565b6005610ce2565b90610c83565b94610bfc565b93610d86565b5080610e32565b50610ead6001610ea660048a90610383565b50016103f3565b610e19565b50925090610ee27f0000000000000000000000000000000000000000000000000000000000000000828491611ff4565b610f21610f0f7f5afeca38b2064c23a692c4cf353015d80ab3ecc417b4f893f372690c11fbd9a692610d02565b92610f186101a2565b91829182610292565b0390a2565b5080610f3a610f345f610b38565b916101ea565b11610da9565b5f63356680b760e01b815280610f586004820161023d565b0390fd5b5f636fd6bb0960e01b815280610f746004820161023d565b0390fd5b5f638966b51f60e01b815280610f906004820161023d565b0390fd5b5f63162908e360e11b815280610fac6004820161023d565b0390fd5b90610fba91610ad0565b565b5f90565b610fc8610fbc565b50610fd36004610376565b90565b610fde610fbc565b50610fe960056103f3565b90565b610ffd90610ff8611f24565b61122f565b611005611f87565b565b600161101391016101ea565b90565b90565b61102d61102861103292611016565b610994565b6101ea565b90565b61104461104a919392936101ea565b926101ea565b820180921161105557565b610be8565b634e487b7160e01b5f525f60045260245ffd5b9061107e60018060a01b0391610ca8565b9181191691161790565b90565b906110a061109b6110a792610d02565b611088565b825461106d565b9055565b908082036110b8575b5050565b6110fa600280846110d95f61110097016110d35f88016103cf565b9061108b565b6110f2600182016110ec600188016103f3565b90610ce2565b0192016103f3565b90610ce2565b5f806110b4565b919061111857611116916110ab565b565b61105a565b90565b634e487b7160e01b5f52603160045260245ffd5b5490565b5f5260205f2090565b61114a81611134565b8210156111645761115c600391611138565b910201905f90565b610362565b1b90565b919060086111889102916111825f1984611169565b92611169565b9181191691161790565b91906111a86111a36111b093610cc3565b610cdf565b90835461116d565b9055565b6111c6916111c0610fbc565b91611192565b565b5f60026111e79282808201556111e183600183016111b4565b016111b4565b565b905f036111fb576111f9906111c8565b565b61105a565b61120981611134565b801561122a5760019003906112276112218383611141565b906111e9565b55565b611120565b8061124261123c5f610b38565b916101ea565b146114d7576112516008610b68565b6114bb5761125f6004610376565b905f9161126b5f610b38565b5b8061128861128261127d6004610376565b6101ea565b916101ea565b10156114af576112a55f61129e60048490610383565b50016103cf565b6112b76112b1336101bb565b916101bb565b146112ca576112c590611007565b61126c565b919250506112da60015b156105b1565b801561147e575b611462576113118261130b60016112fa60048690610383565b500191611306836103f3565b610c83565b90610ce2565b61132e6113278361132260056103f3565b610c83565b6005610ce2565b611346600161133f60048490610383565b50016103f3565b6113586113525f610b38565b916101ea565b146113d0575b5061138b7f0000000000000000000000000000000000000000000000000000000000000000338391611ff4565b336113cb6113b97f884edad9ce6fa2440d8a54cc123490eb96d2768479d49ff9c7366125a942436492610d02565b926113c26101a2565b91829182610292565b0390a2565b5b806114006113fa6113f56113e56004610376565b6113ef6001611019565b90610c83565b6101ea565b916101ea565b1015611449576114449061143f61142c6004611426846114206001611019565b90611035565b90610383565b5061143960048490610383565b90611107565b611007565b6113d1565b5061145c611457600461111d565b611200565b5f61135e565b5f63356680b760e01b81528061147a6004820161023d565b0390fd5b50611497600161149060048490610383565b50016103f3565b6114a96114a3846101ea565b916101ea565b106112e1565b5090916112da906112d4565b5f634384d4cf60e01b8152806114d36004820161023d565b0390fd5b5f63162908e360e11b8152806114ef6004820161023d565b0390fd5b6114fc90610fec565b565b611506611f24565b61150e611518565b611516611f87565b565b6115226008610b68565b806116a1575b611685576115355f610b38565b5b8061155261154c6115476004610376565b6101ea565b916101ea565b101561166f5761159190611574600161156d60048490610383565b50016103f3565b6115866115805f610b38565b916101ea565b11611596575b611007565b611536565b6115ae60016115a760048490610383565b50016103f3565b6115cf6115ba5f610b38565b60016115c860048690610383565b5001610ce2565b6116117f000000000000000000000000000000000000000000000000000000000000000061160a5f61160360048790610383565b50016103cf565b8391611ff4565b6116285f61162160048590610383565b50016103cf565b6116676116557fa171b6942063c6f2800ce40a780edce37baa2b618571b11eedd1e69e626e7d7692610d02565b9261165e6101a2565b91829182610292565b0390a261158c565b5061168361167c5f610b38565b6005610ce2565b565b5f638966b51f60e01b81528061169d6004820161023d565b0390fd5b506116b56116af6008610b8f565b156105b1565b611528565b6116c26114fe565b565b6116cc612042565b6116d46116fe565b565b6116ea6116e56116ef92610b35565b610994565b6101b0565b90565b6116fb906116d6565b90565b61170f61170a5f6116f2565b612090565b565b6117196116c4565b565b9061172d91611728611f24565b611743565b611735611f87565b565b611740906109b3565b90565b816117566117505f610b38565b916101ea565b146119675761176e6117686008610b68565b156105b1565b61194b576117a9907f0000000000000000000000000000000000000000000000000000000000000000906117a130611737565b908492612123565b6117c66117bf826117ba60076103f3565b611035565b6007610ce2565b6117d06004610376565b6117e26117dc5f610b38565b916101ea565b116117eb575b50565b906117f55f610b38565b5b8061181261180c6118076004610376565b6101ea565b916101ea565b10156119425761189c9061185161184161183a600161183360048690610383565b50016103f3565b8690610c18565b61184b60066103f3565b90610c61565b61187d81611877600261186660048790610383565b500191611872836103f3565b611035565b90610ce2565b8061189061188a5f610b38565b916101ea565b116118a1575b50611007565b6117f6565b6118e37f00000000000000000000000000000000000000000000000000000000000000006118dc5f6118d560048790610383565b50016103cf565b8391611ff4565b6118fa5f6118f360048590610383565b50016103cf565b6119396119277f33798b4297ef6b211addd8421ab89981de2a0b8a2da7f2ed5ae66a7bdd676e4392610d02565b926119306101a2565b91829182610292565b0390a25f611896565b5090505f6117e8565b5f638966b51f60e01b8152806119636004820161023d565b0390fd5b5f63162908e360e11b81528061197f6004820161023d565b0390fd5b9061198d9161171b565b565b5f90565b61199b61198f565b506119a660016103cf565b90565b5f90565b6119b56119a9565b506119c060056103f3565b6119db6119d56119d060066103f3565b6101ea565b916101ea565b101590565b6119f1906119ec611f24565b611b31565b6119f9611f87565b565b601f801991011690565b634e487b7160e01b5f52604160045260245ffd5b90611a23906119fb565b810190811067ffffffffffffffff821117611a3d57604052565b611a05565b90611a55611a4e6101a2565b9283611a19565b565b611a616060611a42565b90565b90611a6e906101bb565b9052565b90611a7c906101ea565b9052565b611a8a90516101bb565b90565b611a9790516101ea565b90565b90611ade60406002611ae494611abd5f8201611ab75f8801611a80565b9061108b565b611ad660018201611ad060208801611a8d565b90610ce2565b019201611a8d565b90610ce2565b565b9190611af757611af591611a9a565b565b61105a565b9081549168010000000000000000831015611b2c5782611b24916001611b2a95018155611141565b90611ae6565b565b611a05565b80611b44611b3e5f610b38565b916101ea565b14611d9b57611b536008610b68565b611d7f57611b6b611b6460056103f3565b8290611035565b611b86611b80611b7b60066103f3565b6101ea565b916101ea565b11611d6357611bc17f000000000000000000000000000000000000000000000000000000000000000033611bb930611737565b908492612123565b611bcb6004610376565b905f91611bd75f610b38565b5b80611bf4611bee611be96004610376565b6101ea565b916101ea565b1015611d5b57611c115f611c0a60048490610383565b50016103cf565b611c23611c1d336101bb565b916101bb565b14611c3657611c3190611007565b611bd8565b9192505060015b5f14611d0a57611c6f90611c696001611c5885936004610383565b500191611c64836103f3565b611035565b90610ce2565b5b611c8d611c8682611c8160056103f3565b611035565b6005610ce2565b33611ccd611cbb7fc3c35c0e1648b9d3680278ad9b2de1cdc43d35e65295324601644b1fe5cd6af692610d02565b92611cc46101a2565b91829182610292565b0390a2611cda60056103f3565b611cf5611cef611cea60066103f3565b6101ea565b916101ea565b14611cfd575b565b611d056121cc565b611cfb565b50611d56611d18600461111d565b3390611d51611d4885611d435f91611d3a611d31611a57565b975f8901611a64565b60208701611a72565b610b38565b60408401611a72565b611afc565b611c70565b509091611c3d565b5f63a119bbe760e01b815280611d7b6004820161023d565b0390fd5b5f634384d4cf60e01b815280611d976004820161023d565b0390fd5b5f63162908e360e11b815280611db36004820161023d565b0390fd5b611dc0906119e0565b565b611dca610fbc565b50611dd45f610b38565b5b80611df1611deb611de66004610376565b6101ea565b916101ea565b1015611e4f57611e0e5f611e0760048490610383565b50016103cf565b611e20611e1a846101bb565b916101bb565b14611e3357611e2e90611007565b611dd5565b611e4c9150611e456001916004610383565b50016103f3565b90565b5050611e5a5f610b38565b90565b611e6e90611e69612042565b611e70565b565b611e7b90600261108b565b565b611e8690611e5d565b565b611e9990611e94612042565b611e9b565b565b80611eb6611eb0611eab5f6116f2565b6101bb565b916101bb565b14611ec657611ec490612090565b565b611ee9611ed25f6116f2565b5f918291631e4fbdf760e01b8352600483016104f8565b0390fd5b611ef690611e88565b565b90565b611f0f611f0a611f1492611ef8565b610994565b6101ea565b90565b611f216002611efb565b90565b611f2d5f6103f3565b611f46611f40611f3b611f17565b6101ea565b916101ea565b14611f5e57611f5c611f56611f17565b5f610ce2565b565b5f633ee5aeb560e01b815280611f766004820161023d565b0390fd5b611f846001611019565b90565b611f98611f92611f7a565b5f610ce2565b565b63ffffffff1690565b63ffffffff60e01b1690565b60e01b90565b611fc9611fc4611fce92611f9a565b611faf565b611fa3565b90565b916020611ff2929493611feb60408201965f830190610448565b0190610285565b565b9061203b6120409361202c6004949361201363a9059cbb919391611fb5565b9261201c6101a2565b9687946020860190815201611fd1565b60208201810382520383611a19565b6123c4565b565b61204a611993565b61206361205d612058612478565b6101bb565b916101bb565b0361206a57565b61208c612075612478565b5f91829163118cdaa760e01b8352600483016104f8565b0390fd5b61209a60016103cf565b6120a582600161108b565b906120d96120d37f8be0079c531659141344cd1fd0a4f28419497f9722a3daafe3b4186f6b6457e093610d02565b91610d02565b916120e26101a2565b806120ec8161023d565b0390a3565b60409061211a612121949695939661211060608401985f850190610448565b6020830190610448565b0190610285565b565b60049261215d612171959361216c93946121446323b872dd92949192611fb5565b9361214d6101a2565b97889560208701908152016120f1565b60208201810382520383611a19565b6123c4565b565b9061217f60ff91610ca8565b9181191691161790565b9061219e6121996121a592610bb9565b610bc5565b8254612173565b9055565b9160206121ca9294936121c360408201965f830190610285565b0190610285565b565b6121d860016008612189565b6121e260076103f3565b6121f46121ee5f610b38565b916101ea565b11806123a1575b61224f575b61220a60066103f3565b61221460076103f3565b7f3f8123372734fb13d1b8ab3f6f2587b5f6525008a9cfc41e67738e01904e67ad9161224a6122416101a2565b928392836121a9565b0390a1565b6122585f610b38565b5b8061227561226f61226a6004610376565b6101ea565b916101ea565b101561239b576122f5906122bd6122ad61229d600161229660048690610383565b50016103f3565b6122a760076103f3565b90610c18565b6122b760066103f3565b90610c61565b6122d68160026122cf60048690610383565b5001610ce2565b806122e96122e35f610b38565b916101ea565b116122fa575b50611007565b612259565b61233c7f00000000000000000000000000000000000000000000000000000000000000006123355f61232e60048790610383565b50016103cf565b8391611ff4565b6123535f61234c60048590610383565b50016103cf565b6123926123807f33798b4297ef6b211addd8421ab89981de2a0b8a2da7f2ed5ae66a7bdd676e4392610d02565b926123896101a2565b91829182610292565b0390a25f6122ef565b50612200565b506123ac6004610376565b6123be6123b85f610b38565b916101ea565b116121fb565b905f6020916123d1610fbc565b506123da610fbc565b50828151910182855af11561246d573d5f51906123ff6123f95f610b38565b916101ea565b145f146124535750612410816109bf565b3b61242361241d5f610b38565b916101ea565b145b61242c5750565b61243861244f916109bf565b5f918291635274afe760e01b8352600483016104f8565b0390fd5b6124666124606001611019565b916101ea565b1415612425565b6040513d5f823e3d90fd5b61248061198f565b50339056fea2646970667358221220afb6e6c2d94acf26e65d27191bbc170ad93a399172c03f0037dd2725ced3655264736f6c634300081a0033","linkReferences":{}},"methodIdentifiers":{"collectPremium(address,uint256)":"8c8ac76d","contributors(uint256)":"3cb5d100","coverageRequired()":"c9c90191","currentFilled()":"692a3d8e","deposit(uint256)":"b6b55f25","flightId()":"5daf3c06","getContributorCount()":"253da8bd","getLPBalance(address)":"d2258beb","getPoolTVL()":"26be90bf","isFullyFunded()":"aebc34e4","oracleAdapter()":"3d9f3163","owner()":"8da5cb5b","payout(address,uint256)":"117de2fd","payoutExecuted()":"5954252e","policyActive()":"c764636e","policyId()":"ee89ef3a","policyOwner()":"b2cc6e91","premium()":"e0a73a93","refundContributors()":"56c7f461","renounceOwnership()":"715018a6","setOracleAdapter(address)":"edb6d075","stablecoin()":"e9cbd822","transferOwnership(address)":"f2fde38b","withdraw(uint256)":"2e1a7d4d"},"id":45}