{"abi":[{"type":"constructor","inputs":[{"name":"_stablecoin","type":"address","internalType":"address"},{"name":"_oracleAdapter","type":"address","internalType":"address"}],"stateMutability":"nonpayable"},{"type":"function","name":"authorizePool","inputs":[{"name":"pool","type":"address","internalType":"address"}],"outputs":[],"stateMutability":"nonpayable"},{"type":"function","name":"authorizedPools","inputs":[{"name":"","type":"address","internalType":"address"}],"outputs":[{"name":"","type":"bool","internalType":"bool"}],"stateMutability":"view"},{"type":"function","name":"balances","inputs":[{"name":"","type":"address","internalType":"address"}],"outputs":[{"name":"","type":"uint256","internalType":"uint256"}],"stateMutability":"view"},{"type":"function","name":"collectPremium","inputs":[{"name":"from","type":"address","internalType":"address"},{"name":"amount","type":"uint256","internalType":"uint256"}],"outputs":[],"stateMutability":"nonpayable"},{"type":"function","name":"deposit","inputs":[{"name":"amount","type":"uint256","internalType":"uint256"}],"outputs":[],"stateMutability":"nonpayable"},{"type":"function","name":"getAPY","inputs":[],"outputs":[{"name":"","type":"uint256","internalType":"uint256"}],"stateMutability":"view"},{"type":"function","name":"getActiveLPCount","inputs":[],"outputs":[{"name":"","type":"uint256","internalType":"uint256"}],"stateMutability":"view"},{"type":"function","name":"getLPBalance","inputs":[{"name":"user","type":"address","internalType":"address"}],"outputs":[{"name":"","type":"uint256","internalType":"uint256"}],"stateMutability":"view"},{"type":"function","name":"getPoolTVL","inputs":[],"outputs":[{"name":"","type":"uint256","internalType":"uint256"}],"stateMutability":"view"},{"type":"function","name":"getTotalLPCount","inputs":[],"outputs":[{"name":"","type":"uint256","internalType":"uint256"}],"stateMutability":"view"},{"type":"function","name":"getUtilization","inputs":[],"outputs":[{"name":"","type":"uint256","internalType":"uint256"}],"stateMutability":"view"},{"type":"function","name":"oracleAdapter","inputs":[],"outputs":[{"name":"","type":"address","internalType":"address"}],"stateMutability":"view"},{"type":"function","name":"owner","inputs":[],"outputs":[{"name":"","type":"address","internalType":"address"}],"stateMutability":"view"},{"type":"function","name":"payout","inputs":[{"name":"to","type":"address","internalType":"address"},{"name":"amount","type":"uint256","internalType":"uint256"}],"outputs":[],"stateMutability":"nonpayable"},{"type":"function","name":"renounceOwnership","inputs":[],"outputs":[],"stateMutability":"nonpayable"},{"type":"function","name":"revokePool","inputs":[{"name":"pool","type":"address","internalType":"address"}],"outputs":[],"stateMutability":"nonpayable"},{"type":"function","name":"setOracleAdapter","inputs":[{"name":"_oracleAdapter","type":"address","internalType":"address"}],"outputs":[],"stateMutability":"nonpayable"},{"type":"function","name":"stablecoin","inputs":[],"outputs":[{"name":"","type":"address","internalType":"contract IERC20"}],"stateMutability":"view"},{"type":"function","name":"totalLiquidity","inputs":[],"outputs":[{"name":"","type":"uint256","internalType":"uint256"}],"stateMutability":"view"},{"type":"function","name":"totalPayouts","inputs":[],"outputs":[{"name":"","type":"uint256","internalType":"uint256"}],"stateMutability":"view"},{"type":"function","name":"totalPremiums","inputs":[],"outputs":[{"name":"","type":"uint256","internalType":"uint256"}],"stateMutability":"view"},{"type":"function","name":"transferOwnership","inputs":[{"name":"newOwner","type":"address","internalType":"address"}],"outputs":[],"stateMutability":"nonpayable"},{"type":"function","name":"withdraw","inputs":[{"name":"amount","type":"uint256","internalType":"uint256"}],"outputs":[],"stateMutability":"nonpayable"},{"type":"event","name":"Deposit","inputs":[{"name":"lp","type":"address","indexed":true,"internalType":"address"},{"name":"amount","type":"uint256","indexed":false,"internalType":"uint256"}],"anonymous":false},{"type":"event","name":"OwnershipTransferred","inputs":[{"name":"previousOwner","type":"address","indexed":true,"internalType":"address"},{"name":"newOwner","type":"address","indexed":true,"internalType":"address"}],"anonymous":false},{"type":"event","name":"Payout","inputs":[{"name":"user","type":"address","indexed":true,"internalType":"address"},{"name":"amount","type":"uint256","indexed":false,"internalType":"uint256"}],"anonymous":false},{"type":"event","name":"PoolAuthorized","inputs":[{"name":"pool","type":"address","indexed":true,"internalType":"address"}],"anonymous":false},{"type":"event","name":"PremiumCollected","inputs":[{"name":"user","type":"address","indexed":true,"internalType":"address"},{"name":"amount","type":"uint256","indexed":false,"internalType":"uint256"}],"anonymous":false},{"type":"event","name":"Withdraw","inputs":[{"name":"lp","type":"address","indexed":true,"internalType":"address"},{"name":"amount","type":"uint256","indexed":false,"internalType":"uint256"}],"anonymous":false},{"type":"error","name":"InsufficientBalance","inputs":[]},{"type":"error","name":"InsufficientLiquidity","inputs":[]},{"type":"error","name":"InvalidAmount","inputs":[]},{"type":"error","name":"OwnableInvalidOwner","inputs":[{"name":"owner","type":"address","internalType":"address"}]},{"type":"error","name":"OwnableUnauthorizedAccount","inputs":[{"name":"account","type":"address","internalType":"address"}]},{"type":"error","name":"ReentrancyGuardReentrantCall","inputs":[]},{"type":"error","name":"SafeERC20FailedOperation","inputs":[{"name":"token","type":"address","internalType":"address"}]},{"type":"error","name":"UnauthorizedOracle","inputs":[]}],"bytecode":{"object":"0x60a0604052346100555761001a610014610129565b906101dd565b61002261005a565b611a086103df823960805181818161085d01528181610b9201528181610e1c0152818161119f01526113b20152611a0890f35b610060565b60405190565b5f80fd5b601f801991011690565b634e487b7160e01b5f52604160045260245ffd5b9061008c90610064565b810190811060018060401b038211176100a457604052565b61006e565b906100bc6100b561005a565b9283610082565b565b5f80fd5b60018060a01b031690565b6100d6906100c2565b90565b6100e2816100cd565b036100e957565b5f80fd5b905051906100fa826100d9565b565b91906040838203126101245780610118610121925f86016100ed565b936020016100ed565b90565b6100be565b610147611de78038038061013c816100a9565b9283398101906100fc565b9091565b90565b61016261015d610167926100c2565b61014b565b6100c2565b90565b6101739061014e565b90565b61017f9061016a565b90565b5f1b90565b9061019860018060a01b0391610182565b9181191691161790565b6101ab9061014e565b90565b6101b7906101a2565b90565b90565b906101d26101cd6101d9926101ae565b6101ba565b8254610187565b9055565b906101f36101fd926101ee3361024c565b610176565b60805260026101bd565b565b90565b61021661021161021b926101ff565b61014b565b6100c2565b90565b61022790610202565b90565b610233906100cd565b9052565b919061024a905f6020850194019061022a565b565b6102546102a6565b8061026f6102696102645f61021e565b6100cd565b916100cd565b1461027f5761027d9061037d565b565b6102a261028b5f61021e565b5f918291631e4fbdf760e01b835260048301610237565b0390fd5b6102ae610334565b565b90565b90565b6102ca6102c56102cf926102b0565b61014b565b6102b3565b90565b6102dc60016102b6565b90565b906102eb5f1991610182565b9181191691161790565b61030961030461030e926102b3565b61014b565b6102b3565b90565b90565b90610329610324610330926102f5565b610311565b82546102df565b9055565b61034561033f6102d2565b5f610314565b565b5f1c90565b60018060a01b031690565b61036361036891610347565b61034c565b90565b6103759054610357565b90565b5f0190565b610387600161036b565b6103928260016101bd565b906103c66103c07f8be0079c531659141344cd1fd0a4f28419497f9722a3daafe3b4186f6b6457e0936101ae565b916101ae565b916103cf61005a565b806103d981610378565b0390a356fe60806040526004361015610013575b610948565b61001d5f3561018c565b8063117de2fd1461018757806315770f9214610182578063181490a01461017d57806326be90bf1461017857806327e235e3146101735780632e1a7d4d1461016e5780633059b7c6146101695780633d9f3163146101645780634089b1701461015f5780635bda15841461015a5780636ae3e75b14610155578063715018a6146101505780637eb711311461014b5780638c8ac76d146101465780638da5cb5b146101415780639a15e0f71461013c578063b6b55f2514610137578063d2258beb14610132578063d2cbf7ad1461012d578063e816b39314610128578063e9cbd82214610123578063edb6d0751461011e5763f2fde38b0361000e57610915565b6108e2565b6108ad565b610826565b61076f565b61073a565b610707565b6106d2565b61069d565b610669565b610634565b610601565b6105ce565b610599565b610555565b610511565b61047c565b610449565b6103f6565b61033d565b610308565b6102d3565b610232565b60e01c90565b60405190565b5f80fd5b5f80fd5b60018060a01b031690565b6101b4906101a0565b90565b6101c0816101ab565b036101c757565b5f80fd5b905035906101d8826101b7565b565b90565b6101e6816101da565b036101ed57565b5f80fd5b905035906101fe826101dd565b565b9190604083820312610228578061021c610225925f86016101cb565b936020016101f1565b90565b61019c565b5f0190565b346102615761024b610245366004610200565b90610c35565b610253610192565b8061025d8161022d565b0390f35b610198565b5f91031261027057565b61019c565b1c90565b90565b61028c9060086102919302610275565b610279565b90565b9061029f915461027c565b90565b6102ae60055f90610294565b90565b6102ba906101da565b9052565b91906102d1905f602085019401906102b1565b565b34610303576102e3366004610266565b6102ff6102ee6102a2565b6102f6610192565b918291826102be565b0390f35b610198565b3461033857610318366004610266565b610334610323610cb9565b61032b610192565b918291826102be565b0390f35b610198565b3461036d5761034d366004610266565b610369610358610d5e565b610360610192565b918291826102be565b0390f35b610198565b9060208282031261038b57610388915f016101cb565b90565b61019c565b90565b6103a76103a26103ac926101a0565b610390565b6101a0565b90565b6103b890610393565b90565b6103c4906103af565b90565b906103d1906103bb565b5f5260205260405f2090565b6103f3906103ee6004915f926103c7565b610294565b90565b346104265761042261041161040c366004610372565b6103dd565b610419610192565b918291826102be565b0390f35b610198565b9060208282031261044457610441915f016101f1565b90565b61019c565b346104775761046161045c36600461042b565b610ec0565b610469610192565b806104738161022d565b0390f35b610198565b346104aa5761049461048f366004610372565b610f7b565b61049c610192565b806104a68161022d565b0390f35b610198565b60018060a01b031690565b6104ca9060086104cf9302610275565b6104af565b90565b906104dd91546104ba565b90565b6104ec60025f906104d2565b90565b6104f8906101ab565b9052565b919061050f905f602085019401906104ef565b565b3461054157610521366004610266565b61053d61052c6104e0565b610534610192565b918291826104fc565b0390f35b610198565b61055260075f90610294565b90565b3461058557610565366004610266565b610581610570610546565b610578610192565b918291826102be565b0390f35b610198565b61059660065f90610294565b90565b346105c9576105a9366004610266565b6105c56105b461058a565b6105bc610192565b918291826102be565b0390f35b610198565b346105fc576105e66105e1366004610372565b610fb0565b6105ee610192565b806105f88161022d565b0390f35b610198565b3461062f57610611366004610266565b610619611008565b610621610192565b8061062b8161022d565b0390f35b610198565b3461066457610644366004610266565b61066061064f61109c565b610657610192565b918291826102be565b0390f35b610198565b346106985761068261067c366004610200565b9061126a565b61068a610192565b806106948161022d565b0390f35b610198565b346106cd576106ad366004610266565b6106c96106b861127a565b6106c0610192565b918291826104fc565b0390f35b610198565b34610702576106e2366004610266565b6106fe6106ed611290565b6106f5610192565b918291826102be565b0390f35b610198565b346107355761071f61071a36600461042b565b6114da565b610727610192565b806107318161022d565b0390f35b610198565b3461076a57610766610755610750366004610372565b6114e5565b61075d610192565b918291826102be565b0390f35b610198565b3461079f5761077f366004610266565b61079b61078a611504565b610792610192565b918291826102be565b0390f35b610198565b906107ae906103bb565b5f5260205260405f2090565b60ff1690565b6107d09060086107d59302610275565b6107ba565b90565b906107e391546107c0565b90565b6107fc906107f76003915f926107a4565b6107d8565b90565b151590565b61080d906107ff565b9052565b9190610824905f60208501940190610804565b565b346108565761085261084161083c366004610372565b6107e6565b610849610192565b91829182610811565b0390f35b610198565b7f000000000000000000000000000000000000000000000000000000000000000090565b610888906103af565b90565b6108949061087f565b9052565b91906108ab905f6020850194019061088b565b565b346108dd576108bd366004610266565b6108d96108c861085b565b6108d0610192565b91829182610898565b0390f35b610198565b34610910576108fa6108f5366004610372565b6115c9565b610902610192565b8061090c8161022d565b0390f35b610198565b346109435761092d610928366004610372565b611639565b610935610192565b8061093f8161022d565b0390f35b610198565b5f80fd5b5f1c90565b61095d6109629161094c565b6104af565b90565b61096f9054610951565b90565b61097e6109839161094c565b6107ba565b90565b6109909054610972565b90565b90336109b06109aa6109a56002610965565b6101ab565b916101ab565b1415806109e3575b6109c7576109c591610a06565b565b5f63db8d1fb760e01b8152806109df6004820161022d565b0390fd5b50610a016109fb6109f6600333906107a4565b610986565b156107ff565b6109b8565b90610a1891610a13611670565b610b1a565b610a206116f2565b565b90565b610a39610a34610a3e92610a22565b610390565b6101da565b90565b610a4d610a529161094c565b610279565b90565b610a5f9054610a41565b90565b634e487b7160e01b5f52601160045260245ffd5b610a85610a8b919392936101da565b926101da565b8203918211610a9657565b610a62565b5f1b90565b90610aac5f1991610a9b565b9181191691161790565b610aca610ac5610acf926101da565b610390565b6101da565b90565b90565b90610aea610ae5610af192610ab6565b610ad2565b8254610aa0565b9055565b610b04610b0a919392936101da565b926101da565b8201809211610b1557565b610a62565b81610b2d610b275f610a25565b916101da565b14610c1957610b3c6005610a55565b610b4e610b48846101da565b916101da565b10610bfd57610b70610b6983610b646005610a55565b610a76565b6005610ad5565b610b8d610b8683610b816007610a55565b610af5565b6007610ad5565b610bb97f0000000000000000000000000000000000000000000000000000000000000000828491611792565b610bf8610be67f5afeca38b2064c23a692c4cf353015d80ab3ecc417b4f893f372690c11fbd9a6926103bb565b92610bef610192565b918291826102be565b0390a2565b5f63bb55fd2760e01b815280610c156004820161022d565b0390fd5b5f63162908e360e11b815280610c316004820161022d565b0390fd5b90610c3f91610993565b565b5f90565b6001610c5191016101da565b90565b5490565b634e487b7160e01b5f52603260045260245ffd5b5f5260205f2090565b610c7e81610c54565b821015610c9857610c90600191610c6c565b910201905f90565b610c58565b610ca6906101da565b5f198114610cb45760010190565b610a62565b610cc1610c41565b50610ccb5f610a25565b610cd45f610a25565b5b80610cf1610ceb610ce66008610c54565b6101da565b916101da565b1015610d5a57610d1f610d1a6004610d14610d0e60088690610c75565b906104d2565b906103c7565b610a55565b610d31610d2b5f610a25565b916101da565b11610d45575b610d4090610c45565b610cd5565b90610d52610d4091610c9d565b919050610d37565b5090565b610d66610c41565b50610d716005610a55565b90565b610d8590610d80611670565b610d8f565b610d8d6116f2565b565b80610da2610d9c5f610a25565b916101da565b14610ea457610dbb610db6600433906103c7565b610a55565b610dcd610dc7836101da565b916101da565b10610e8857610dfa81610df4610de5600433906103c7565b91610def83610a55565b610a76565b90610ad5565b610e17610e1082610e0b6005610a55565b610a76565b6005610ad5565b610e437f0000000000000000000000000000000000000000000000000000000000000000338391611792565b33610e83610e717f884edad9ce6fa2440d8a54cc123490eb96d2768479d49ff9c7366125a9424364926103bb565b92610e7a610192565b918291826102be565b0390a2565b5f631e9acf1760e31b815280610ea06004820161022d565b0390fd5b5f63162908e360e11b815280610ebc6004820161022d565b0390fd5b610ec990610d74565b565b610edc90610ed76117e0565b610f23565b565b90610eea60ff91610a9b565b9181191691161790565b610efd906107ff565b90565b90565b90610f18610f13610f1f92610ef4565b610f00565b8254610ede565b9055565b610f396001610f34600384906107a4565b610f03565b610f637fc13bb2196f59e9fa90738150dac5f901de66f89ccf2ab6435c1ab8d0dea1d61c916103bb565b90610f6c610192565b80610f768161022d565b0390a2565b610f8490610ecb565b565b610f9790610f926117e0565b610f99565b565b610fae90610fa95f9160036107a4565b610f03565b565b610fb990610f86565b565b610fc36117e0565b610fcb610ff5565b565b610fe1610fdc610fe692610a22565b610390565b6101a0565b90565b610ff290610fcd565b90565b6110066110015f610fe9565b61182e565b565b611010610fbb565b565b90565b61102961102461102e92611012565b610390565b6101da565b90565b611040611046919392936101da565b926101da565b916110528382026101da565b92818404149015171561106157565b610a62565b634e487b7160e01b5f52601260045260245ffd5b61108661108c916101da565b916101da565b908115611097570490565b611066565b6110a4610c41565b506110af6005610a55565b6110c16110bb5f610a25565b916101da565b1461114e576110d06006610a55565b6110eb6110e56110e06007610a55565b6101da565b916101da565b115f1461113a576111376111276111156111056006610a55565b61110f6007610a55565b90610a76565b5b611121612710611015565b90611031565b6111316005610a55565b9061107a565b90565b6111376111276111495f610a25565b611116565b6111575f610a25565b90565b9061116c91611167611670565b611182565b6111746116f2565b565b61117f906103af565b90565b8161119561118f5f610a25565b916101da565b1461124e576111d07f0000000000000000000000000000000000000000000000000000000000000000826111c830611176565b9085926118c1565b6111ed6111e6836111e16006610a55565b610af5565b6006610ad5565b61120a611203836111fe6005610a55565b610af5565b6005610ad5565b6112496112377f055064f59ab6628ba9c529da6ff89620b1899e1bf0b98385523eb11fbe6621ab926103bb565b92611240610192565b918291826102be565b0390a2565b5f63162908e360e11b8152806112666004820161022d565b0390fd5b906112749161115a565b565b5f90565b611282611276565b5061128d6001610965565b90565b611298610c41565b506112a36008610c54565b90565b6112b7906112b2611670565b611395565b6112bf6116f2565b565b90565b634e487b7160e01b5f52604160045260245ffd5b5f5260205f2090565b5490565b6112ee816112e1565b821015611308576113006001916112d8565b910201905f90565b610c58565b1b90565b9190600861133191029161132b60018060a01b038461130d565b9261130d565b9181191691161790565b90565b919061135461134f61135c936103bb565b61133b565b908354611311565b9055565b9081549168010000000000000000831015611390578261138891600161138e950181556112e5565b9061133e565b565b6112c4565b806113a86113a25f610a25565b916101da565b146114be576113e37f0000000000000000000000000000000000000000000000000000000000000000336113db30611176565b9084926118c1565b6114006113fa6113f5600933906107a4565b610986565b156107ff565b61148f575b61142d81611427611418600433906103c7565b9161142283610a55565b610af5565b90610ad5565b61144a6114438261143e6005610a55565b610af5565b6005610ad5565b3361148a6114787fe1fffcc4923d04b559f4d29a8bfc6cda04eb5b0d3c460751c2402c5c5cc9109c926103bb565b92611481610192565b918291826102be565b0390a2565b6114a560016114a0600933906107a4565b610f03565b6114b96114b260086112c1565b3390611360565b611405565b5f63162908e360e11b8152806114d66004820161022d565b0390fd5b6114e3906112a6565b565b6114fc611501916114f4610c41565b5060046103c7565b610a55565b90565b61150c610c41565b506115176005610a55565b6115296115235f610a25565b916101da565b146115625761155f61154f61153e6006610a55565b611549612710611015565b90611031565b6115596005610a55565b9061107a565b90565b61156b5f610a25565b90565b61157f9061157a6117e0565b6115bc565b565b9061159260018060a01b0391610a9b565b9181191691161790565b906115b16115ac6115b8926103bb565b61133b565b8254611581565b9055565b6115c790600261159c565b565b6115d29061156e565b565b6115e5906115e06117e0565b6115e7565b565b806116026115fc6115f75f610fe9565b6101ab565b916101ab565b14611612576116109061182e565b565b61163561161e5f610fe9565b5f918291631e4fbdf760e01b8352600483016104fc565b0390fd5b611642906115d4565b565b90565b61165b61165661166092611644565b610390565b6101da565b90565b61166d6002611647565b90565b6116795f610a55565b61169261168c611687611663565b6101da565b916101da565b146116aa576116a86116a2611663565b5f610ad5565b565b5f633ee5aeb560e01b8152806116c26004820161022d565b0390fd5b90565b6116dd6116d86116e2926116c6565b610390565b6101da565b90565b6116ef60016116c9565b90565b6117036116fd6116e5565b5f610ad5565b565b63ffffffff1690565b63ffffffff60e01b1690565b60e01b90565b61173461172f61173992611705565b61171a565b61170e565b90565b91602061175d92949361175660408201965f8301906104ef565b01906102b1565b565b601f801991011690565b906117739061175f565b810190811067ffffffffffffffff82111761178d57604052565b6112c4565b906117d96117de936117ca600494936117b163a9059cbb919391611720565b926117ba610192565b968794602086019081520161173c565b60208201810382520383611769565b611911565b565b6117e861127a565b6118016117fb6117f66119c5565b6101ab565b916101ab565b0361180857565b61182a6118136119c5565b5f91829163118cdaa760e01b8352600483016104fc565b0390fd5b6118386001610965565b61184382600161159c565b906118776118717f8be0079c531659141344cd1fd0a4f28419497f9722a3daafe3b4186f6b6457e0936103bb565b916103bb565b91611880610192565b8061188a8161022d565b0390a3565b6040906118b86118bf94969593966118ae60608401985f8501906104ef565b60208301906104ef565b01906102b1565b565b6004926118fb61190f959361190a93946118e26323b872dd92949192611720565b936118eb610192565b978895602087019081520161188f565b60208201810382520383611769565b611911565b565b905f60209161191e610c41565b50611927610c41565b50828151910182855af1156119ba573d5f519061194c6119465f610a25565b916101da565b145f146119a0575061195d8161087f565b3b61197061196a5f610a25565b916101da565b145b6119795750565b61198561199c9161087f565b5f918291635274afe760e01b8352600483016104fc565b0390fd5b6119b36119ad60016116c9565b916101da565b1415611972565b6040513d5f823e3d90fd5b6119cd611276565b50339056fea26469706673582212200673bdeec8254e39c9bfb0f98e55b3806f24fd0545961b24bd0208c4f382d1ce64736f6c634300081a0033","linkReferences":{}},"methodIdentifiers":{"authorizePool(address)":"3059b7c6","authorizedPools(address)":"e816b393","balances(address)":"27e235e3","collectPremium(address,uint256)":"8c8ac76d","deposit(uint256)":"b6b55f25","getAPY()":"d2cbf7ad","getActiveLPCount()":"181490a0","getLPBalance(address)":"d2258beb","getPoolTVL()":"26be90bf","getTotalLPCount()":"9a15e0f7","getUtilization()":"7eb71131","oracleAdapter()":"3d9f3163","owner()":"8da5cb5b","payout(address,uint256)":"117de2fd","renounceOwnership()":"715018a6","revokePool(address)":"6ae3e75b","setOracleAdapter(address)":"edb6d075","stablecoin()":"e9cbd822","totalLiquidity()":"15770f92","totalPayouts()":"4089b170","totalPremiums()":"5bda1584","transferOwnership(address)":"f2fde38b","withdraw(uint256)":"2e1a7d4d"},"id":46}