{"abi":[{"type":"constructor","inputs":[{"name":"_stablecoin","type":"address","internalType":"address"},{"name":"_oracleAdapter","type":"address","internalType":"address"},{"name":"_airlineCode","type":"string","internalType":"string"},{"name":"_globalPoolAddress","type":"address","internalType":"address"}],"stateMutability":"nonpayable"},{"type":"function","name":"airlineCode","inputs":[],"outputs":[{"name":"","type":"string","internalType":"string"}],"stateMutability":"view"},{"type":"function","name":"authorizePool","inputs":[{"name":"pool","type":"address","internalType":"address"}],"outputs":[],"stateMutability":"nonpayable"},{"type":"function","name":"authorizedPools","inputs":[{"name":"","type":"address","internalType":"address"}],"outputs":[{"name":"","type":"bool","internalType":"bool"}],"stateMutability":"view"},{"type":"function","name":"balances","inputs":[{"name":"","type":"address","internalType":"address"}],"outputs":[{"name":"","type":"uint256","internalType":"uint256"}],"stateMutability":"view"},{"type":"function","name":"collectPremium","inputs":[{"name":"from","type":"address","internalType":"address"},{"name":"amount","type":"uint256","internalType":"uint256"}],"outputs":[],"stateMutability":"nonpayable"},{"type":"function","name":"deposit","inputs":[{"name":"amount","type":"uint256","internalType":"uint256"}],"outputs":[],"stateMutability":"nonpayable"},{"type":"function","name":"getAPY","inputs":[],"outputs":[{"name":"","type":"uint256","internalType":"uint256"}],"stateMutability":"view"},{"type":"function","name":"getActiveLPCount","inputs":[],"outputs":[{"name":"","type":"uint256","internalType":"uint256"}],"stateMutability":"view"},{"type":"function","name":"getLPBalance","inputs":[{"name":"user","type":"address","internalType":"address"}],"outputs":[{"name":"","type":"uint256","internalType":"uint256"}],"stateMutability":"view"},{"type":"function","name":"getPoolTVL","inputs":[],"outputs":[{"name":"","type":"uint256","internalType":"uint256"}],"stateMutability":"view"},{"type":"function","name":"getTotalLPCount","inputs":[],"outputs":[{"name":"","type":"uint256","internalType":"uint256"}],"stateMutability":"view"},{"type":"function","name":"getUtilization","inputs":[],"outputs":[{"name":"","type":"uint256","internalType":"uint256"}],"stateMutability":"view"},{"type":"function","name":"globalPoolAddress","inputs":[],"outputs":[{"name":"","type":"address","internalType":"address"}],"stateMutability":"view"},{"type":"function","name":"oracleAdapter","inputs":[],"outputs":[{"name":"","type":"address","internalType":"address"}],"stateMutability":"view"},{"type":"function","name":"owner","inputs":[],"outputs":[{"name":"","type":"address","internalType":"address"}],"stateMutability":"view"},{"type":"function","name":"payout","inputs":[{"name":"to","type":"address","internalType":"address"},{"name":"amount","type":"uint256","internalType":"uint256"}],"outputs":[],"stateMutability":"nonpayable"},{"type":"function","name":"renounceOwnership","inputs":[],"outputs":[],"stateMutability":"nonpayable"},{"type":"function","name":"revokePool","inputs":[{"name":"pool","type":"address","internalType":"address"}],"outputs":[],"stateMutability":"nonpayable"},{"type":"function","name":"setGlobalPoolAddress","inputs":[{"name":"_globalPoolAddress","type":"address","internalType":"address"}],"outputs":[],"stateMutability":"nonpayable"},{"type":"function","name":"setOracleAdapter","inputs":[{"name":"_oracleAdapter","type":"address","internalType":"address"}],"outputs":[],"stateMutability":"nonpayable"},{"type":"function","name":"stablecoin","inputs":[],"outputs":[{"name":"","type":"address","internalType":"contract IERC20"}],"stateMutability":"view"},{"type":"function","name":"totalLiquidity","inputs":[],"outputs":[{"name":"","type":"uint256","internalType":"uint256"}],"stateMutability":"view"},{"type":"function","name":"totalPayouts","inputs":[],"outputs":[{"name":"","type":"uint256","internalType":"uint256"}],"stateMutability":"view"},{"type":"function","name":"totalPremiums","inputs":[],"outputs":[{"name":"","type":"uint256","internalType":"uint256"}],"stateMutability":"view"},{"type":"function","name":"transferOwnership","inputs":[{"name":"newOwner","type":"address","internalType":"address"}],"outputs":[],"stateMutability":"nonpayable"},{"type":"function","name":"withdraw","inputs":[{"name":"amount","type":"uint256","internalType":"uint256"}],"outputs":[],"stateMutability":"nonpayable"},{"type":"event","name":"Deposit","inputs":[{"name":"lp","type":"address","indexed":true,"internalType":"address"},{"name":"amount","type":"uint256","indexed":false,"internalType":"uint256"}],"anonymous":false},{"type":"event","name":"FallbackToGlobalPool","inputs":[{"name":"user","type":"address","indexed":true,"internalType":"address"},{"name":"amount","type":"uint256","indexed":false,"internalType":"uint256"}],"anonymous":false},{"type":"event","name":"OwnershipTransferred","inputs":[{"name":"previousOwner","type":"address","indexed":true,"internalType":"address"},{"name":"newOwner","type":"address","indexed":true,"internalType":"address"}],"anonymous":false},{"type":"event","name":"Payout","inputs":[{"name":"user","type":"address","indexed":true,"internalType":"address"},{"name":"amount","type":"uint256","indexed":false,"internalType":"uint256"}],"anonymous":false},{"type":"event","name":"PoolAuthorized","inputs":[{"name":"pool","type":"address","indexed":true,"internalType":"address"}],"anonymous":false},{"type":"event","name":"PremiumCollected","inputs":[{"name":"user","type":"address","indexed":true,"internalType":"address"},{"name":"amount","type":"uint256","indexed":false,"internalType":"uint256"}],"anonymous":false},{"type":"event","name":"Withdraw","inputs":[{"name":"lp","type":"address","indexed":true,"internalType":"address"},{"name":"amount","type":"uint256","indexed":false,"internalType":"uint256"}],"anonymous":false},{"type":"error","name":"GlobalPoolNotSet","inputs":[]},{"type":"error","name":"InsufficientBalance","inputs":[]},{"type":"error","name":"InsufficientLiquidity","inputs":[]},{"type":"error","name":"InvalidAmount","inputs":[]},{"type":"error","name":"OwnableInvalidOwner","inputs":[{"name":"owner","type":"address","internalType":"address"}]},{"type":"error","name":"OwnableUnauthorizedAccount","inputs":[{"name":"account","type":"address","internalType":"address"}]},{"type":"error","name":"ReentrancyGuardReentrantCall","inputs":[]},{"type":"error","name":"SafeERC20FailedOperation","inputs":[{"name":"token","type":"address","internalType":"address"}]},{"type":"error","name":"UnauthorizedOracle","inputs":[]}],"bytecode":{"object":"0x60a06040523461005f5761001d6100146101f4565b929190916104e6565b610025610064565b611f00610700823960805181818161090401528181610ef6015281816110cc01528181611381015281816116dc01526119410152611f0090f35b61006a565b60405190565b5f80fd5b601f801991011690565b634e487b7160e01b5f52604160045260245ffd5b906100969061006e565b810190811060018060401b038211176100ae57604052565b610078565b906100c66100bf610064565b928361008c565b565b5f80fd5b5f80fd5b60018060a01b031690565b6100e4906100d0565b90565b6100f0816100db565b036100f757565b5f80fd5b90505190610108826100e7565b565b5f80fd5b5f80fd5b60018060401b03811161012e5761012a60209161006e565b0190565b610078565b90825f9392825e0152565b9092919261015361014e82610112565b6100b3565b9381855260208501908284011161016f5761016d92610133565b565b61010e565b9080601f830112156101925781602061018f9351910161013e565b90565b61010a565b6080818303126101ef576101ad825f83016100fb565b926101bb83602084016100fb565b9260408301519060018060401b0382116101ea576101de816101e7938601610174565b936060016100fb565b90565b6100cc565b6100c8565b61021261260080380380610207816100b3565b928339810190610197565b90919293565b5190565b634e487b7160e01b5f52602260045260245ffd5b9060016002830492168015610250575b602083101461024b57565b61021c565b91607f1691610240565b5f5260205f2090565b601f602091010490565b1b90565b9190600861028c9102916102865f198461026d565b9261026d565b9181191691161790565b90565b90565b6102b06102ab6102b592610296565b610299565b610296565b90565b90565b91906102d16102cc6102d99361029c565b6102b8565b908354610271565b9055565b5f90565b6102f3916102ed6102dd565b916102bb565b565b5b818110610301575050565b8061030e5f6001936102e1565b016102f6565b9190601f8111610324575b505050565b6103306103559361025a565b90602061033c84610263565b8301931061035d575b61034e90610263565b01906102f5565b5f808061031f565b915061034e81929050610345565b1c90565b9061037f905f199060080261036b565b191690565b8161038e9161036f565b906002021790565b906103a081610218565b9060018060401b03821161045e576103c2826103bc8554610230565b85610314565b602090601f83116001146103f6579180916103e5935f926103ea575b5050610384565b90555b565b90915001515f806103de565b601f198316916104058561025a565b925f5b8181106104465750916002939185600196941061042c575b505050020190556103e8565b61043c910151601f84169061036f565b90555f8080610420565b91936020600181928787015181550195019201610408565b610078565b9061046d91610396565b565b5f1b90565b9061048560018060a01b039161046f565b9181191691161790565b6104a361049e6104a8926100d0565b610299565b6100d0565b90565b6104b49061048f565b90565b6104c0906104ab565b90565b90565b906104db6104d66104e2926104b7565b6104c3565b8254610474565b9055565b916104f86104ff926105069594610520565b600a610463565b600b6104c6565b565b6105119061048f565b90565b61051d90610508565b90565b90610536610540926105313361058f565b610514565b60805260026104c6565b565b90565b61055961055461055e92610542565b610299565b6100d0565b90565b61056a90610545565b90565b610576906100db565b9052565b919061058d905f6020850194019061056d565b565b6105976105e9565b806105b26105ac6105a75f610561565b6100db565b916100db565b146105c2576105c09061069e565b565b6105e56105ce5f610561565b5f918291631e4fbdf760e01b83526004830161057a565b0390fd5b6105f1610655565b565b90565b61060a61060561060f926105f3565b610299565b610296565b90565b61061c60016105f6565b90565b9061062b5f199161046f565b9181191691161790565b9061064a6106456106519261029c565b6102b8565b825461061f565b9055565b610666610660610612565b5f610635565b565b5f1c90565b60018060a01b031690565b61068461068991610668565b61066d565b90565b6106969054610678565b90565b5f0190565b6106a8600161068c565b6106b38260016104c6565b906106e76106e17f8be0079c531659141344cd1fd0a4f28419497f9722a3daafe3b4186f6b6457e0936104b7565b916104b7565b916106f0610064565b806106fa81610699565b0390a356fe60806040526004361015610013575b610c11565b61001d5f356101bc565b8063117de2fd146101b757806315770f92146101b2578063181490a0146101ad5780631fa7bb79146101a857806326be90bf146101a357806327e235e31461019e5780632e1a7d4d146101995780633059b7c6146101945780633d9f31631461018f5780634089b1701461018a5780635bda1584146101855780636ae3e75b14610180578063715018a61461017b5780637eb71131146101765780638c8ac76d146101715780638da5cb5b1461016c5780639a15e0f714610167578063b2b1e99714610162578063b6b55f251461015d578063d2258beb14610158578063d2cbf7ad14610153578063e816b3931461014e578063e9cbd82214610149578063eb3ac16c14610144578063edb6d0751461013f5763f2fde38b0361000e57610bde565b610bab565b610b76565b610954565b6108cd565b610816565b6107e1565b6107ae565b61077b565b610746565b610711565b6106dd565b6106a8565b610675565b610642565b61060d565b6105c9565b610585565b610543565b610510565b6104bd565b610404565b6103cf565b610338565b610303565b610262565b60e01c90565b60405190565b5f80fd5b5f80fd5b60018060a01b031690565b6101e4906101d0565b90565b6101f0816101db565b036101f757565b5f80fd5b90503590610208826101e7565b565b90565b6102168161020a565b0361021d57565b5f80fd5b9050359061022e8261020d565b565b9190604083820312610258578061024c610255925f86016101fb565b93602001610221565b90565b6101cc565b5f0190565b346102915761027b610275366004610230565b9061119a565b6102836101c2565b8061028d8161025d565b0390f35b6101c8565b5f9103126102a057565b6101cc565b1c90565b90565b6102bc9060086102c193026102a5565b6102a9565b90565b906102cf91546102ac565b90565b6102de60055f906102c4565b90565b6102ea9061020a565b9052565b9190610301905f602085019401906102e1565b565b3461033357610313366004610296565b61032f61031e6102d2565b6103266101c2565b918291826102ee565b0390f35b6101c8565b3461036857610348366004610296565b61036461035361121e565b61035b6101c2565b918291826102ee565b0390f35b6101c8565b60018060a01b031690565b61038890600861038d93026102a5565b61036d565b90565b9061039b9154610378565b90565b6103aa600b5f90610390565b90565b6103b6906101db565b9052565b91906103cd905f602085019401906103ad565b565b346103ff576103df366004610296565b6103fb6103ea61039e565b6103f26101c2565b918291826103ba565b0390f35b6101c8565b3461043457610414366004610296565b61043061041f6112c3565b6104276101c2565b918291826102ee565b0390f35b6101c8565b906020828203126104525761044f915f016101fb565b90565b6101cc565b90565b61046e610469610473926101d0565b610457565b6101d0565b90565b61047f9061045a565b90565b61048b90610476565b90565b9061049890610482565b5f5260205260405f2090565b6104ba906104b56004915f9261048e565b6102c4565b90565b346104ed576104e96104d86104d3366004610439565b6104a4565b6104e06101c2565b918291826102ee565b0390f35b6101c8565b9060208282031261050b57610508915f01610221565b90565b6101cc565b3461053e576105286105233660046104f2565b611425565b6105306101c2565b8061053a8161025d565b0390f35b6101c8565b346105715761055b610556366004610439565b6114e0565b6105636101c2565b8061056d8161025d565b0390f35b6101c8565b61058260025f90610390565b90565b346105b557610595366004610296565b6105b16105a0610576565b6105a86101c2565b918291826103ba565b0390f35b6101c8565b6105c660075f906102c4565b90565b346105f9576105d9366004610296565b6105f56105e46105ba565b6105ec6101c2565b918291826102ee565b0390f35b6101c8565b61060a60065f906102c4565b90565b3461063d5761061d366004610296565b6106396106286105fe565b6106306101c2565b918291826102ee565b0390f35b6101c8565b346106705761065a610655366004610439565b611515565b6106626101c2565b8061066c8161025d565b0390f35b6101c8565b346106a357610685366004610296565b61068d611545565b6106956101c2565b8061069f8161025d565b0390f35b6101c8565b346106d8576106b8366004610296565b6106d46106c36115d9565b6106cb6101c2565b918291826102ee565b0390f35b6101c8565b3461070c576106f66106f0366004610230565b906117a7565b6106fe6101c2565b806107088161025d565b0390f35b6101c8565b3461074157610721366004610296565b61073d61072c6117b7565b6107346101c2565b918291826103ba565b0390f35b6101c8565b3461077657610756366004610296565b6107726107616117cd565b6107696101c2565b918291826102ee565b0390f35b6101c8565b346107a95761079361078e366004610439565b611841565b61079b6101c2565b806107a58161025d565b0390f35b6101c8565b346107dc576107c66107c13660046104f2565b611a69565b6107ce6101c2565b806107d88161025d565b0390f35b6101c8565b346108115761080d6107fc6107f7366004610439565b611a74565b6108046101c2565b918291826102ee565b0390f35b6101c8565b3461084657610826366004610296565b610842610831611a93565b6108396101c2565b918291826102ee565b0390f35b6101c8565b9061085590610482565b5f5260205260405f2090565b60ff1690565b61087790600861087c93026102a5565b610861565b90565b9061088a9154610867565b90565b6108a39061089e6003915f9261084b565b61087f565b90565b151590565b6108b4906108a6565b9052565b91906108cb905f602085019401906108ab565b565b346108fd576108f96108e86108e3366004610439565b61088d565b6108f06101c2565b918291826108b8565b0390f35b6101c8565b7f000000000000000000000000000000000000000000000000000000000000000090565b61092f90610476565b90565b61093b90610926565b9052565b9190610952905f60208501940190610932565b565b3461098457610964366004610296565b61098061096f610902565b6109776101c2565b9182918261093f565b0390f35b6101c8565b634e487b7160e01b5f525f60045260245ffd5b634e487b7160e01b5f52602260045260245ffd5b90600160028304921680156109d0575b60208310146109cb57565b61099c565b91607f16916109c0565b60209181520190565b5f5260205f2090565b905f9291805490610a066109ff836109b0565b80946109da565b916001811690815f14610a5d5750600114610a21575b505050565b610a2e91929394506109e3565b915f925b818410610a4557505001905f8080610a1c565b60018160209295939554848601520191019290610a32565b92949550505060ff19168252151560200201905f8080610a1c565b90610a82916109ec565b90565b601f801991011690565b634e487b7160e01b5f52604160045260245ffd5b90610aad90610a85565b810190811067ffffffffffffffff821117610ac757604052565b610a8f565b90610aec610ae592610adc6101c2565b93848092610a78565b0383610aa3565b565b905f10610b0157610afe90610acc565b90565b610989565b610b12600a5f90610aee565b90565b5190565b60209181520190565b90825f9392825e0152565b610b4c610b55602093610b5a93610b4381610b15565b93848093610b19565b95869101610b22565b610a85565b0190565b610b739160208201915f818403910152610b2d565b90565b34610ba657610b86366004610296565b610ba2610b91610b06565b610b996101c2565b91829182610b5e565b0390f35b6101c8565b34610bd957610bc3610bbe366004610439565b611b1d565b610bcb6101c2565b80610bd58161025d565b0390f35b6101c8565b34610c0c57610bf6610bf1366004610439565b611b8d565b610bfe6101c2565b80610c088161025d565b0390f35b6101c8565b5f80fd5b5f1c90565b610c26610c2b91610c15565b61036d565b90565b610c389054610c1a565b90565b610c47610c4c91610c15565b610861565b90565b610c599054610c3b565b90565b9033610c79610c73610c6e6002610c2e565b6101db565b916101db565b141580610cac575b610c9057610c8e91610ccf565b565b5f63db8d1fb760e01b815280610ca86004820161025d565b0390fd5b50610cca610cc4610cbf6003339061084b565b610c4f565b156108a6565b610c81565b90610ce191610cdc611bc4565b610e7b565b610ce9611c46565b565b90565b610d02610cfd610d0792610ceb565b610457565b61020a565b90565b610d16610d1b91610c15565b6102a9565b90565b610d289054610d0a565b90565b610d3f610d3a610d4492610ceb565b610457565b6101d0565b90565b610d5090610d2b565b90565b634e487b7160e01b5f52601160045260245ffd5b610d76610d7c9193929361020a565b9261020a565b8203918211610d8757565b610d53565b610d9b610da19193929361020a565b9261020a565b8201809211610dac57565b610d53565b5f1b90565b90610dc25f1991610db1565b9181191691161790565b610de0610ddb610de59261020a565b610457565b61020a565b90565b90565b90610e00610dfb610e0792610dcc565b610de8565b8254610db6565b9055565b610e149061045a565b90565b610e2090610e0b565b90565b610e2c90610476565b90565b5f80fd5b60e01b90565b5f910312610e4357565b6101cc565b916020610e69929493610e6260408201965f8301906103ad565b01906102e1565b565b610e736101c2565b3d5f823e3d90fd5b81610e8e610e885f610cee565b9161020a565b1461117e57610e9d6005610d1e565b610eaf610ea98461020a565b9161020a565b10155f14610f6257610ed4610ecd83610ec86005610d1e565b610d67565b6005610deb565b610ef1610eea83610ee56007610d1e565b610d8c565b6007610deb565b610f1d7f0000000000000000000000000000000000000000000000000000000000000000828491611c8a565b610f5c610f4a7f5afeca38b2064c23a692c4cf353015d80ab3ecc417b4f893f372690c11fbd9a692610482565b92610f536101c2565b918291826102ee565b0390a25b565b90610f6d600b610c2e565b610f87610f81610f7c5f610d47565b6101db565b916101db565b1461116257610fa090610f9a6005610d1e565b90610d67565b90610fab6005610d1e565b610fbd610fb75f610cee565b9161020a565b116110a1575b610fdd610fd8610fd3600b610c2e565b610e17565b610e23565b63117de2fd828492803b1561109c576110095f8094611014610ffd6101c2565b97889687958694610e33565b845260048401610e48565b03925af180156110975761106b575b506110636110517fbb2d6dfcdc884130164ecccf613b67dd6ec56794ef7b295e74787a5d5fafec0492610482565b9261105a6101c2565b918291826102ee565b0390a2610f60565b61108a905f3d8111611090575b6110828183610aa3565b810190610e39565b5f611023565b503d611078565b610e6b565b610e2f565b6110c76110c06110b16005610d1e565b6110bb6007610d1e565b610d8c565b6007610deb565b6110fc7f0000000000000000000000000000000000000000000000000000000000000000826110f66005610d1e565b91611c8a565b61110f6111085f610cee565b6005610deb565b8061111a6005610d1e565b9061115a6111487f5afeca38b2064c23a692c4cf353015d80ab3ecc417b4f893f372690c11fbd9a692610482565b926111516101c2565b918291826102ee565b0390a2610fc3565b5f630a367d0760e31b81528061117a6004820161025d565b0390fd5b5f63162908e360e11b8152806111966004820161025d565b0390fd5b906111a491610c5c565b565b5f90565b60016111b6910161020a565b90565b5490565b634e487b7160e01b5f52603260045260245ffd5b5f5260205f2090565b6111e3816111b9565b8210156111fd576111f56001916111d1565b910201905f90565b6111bd565b61120b9061020a565b5f1981146112195760010190565b610d53565b6112266111a6565b506112305f610cee565b6112395f610cee565b5b8061125661125061124b60086111b9565b61020a565b9161020a565b10156112bf5761128461127f6004611279611273600886906111da565b90610390565b9061048e565b610d1e565b6112966112905f610cee565b9161020a565b116112aa575b6112a5906111aa565b61123a565b906112b76112a591611202565b91905061129c565b5090565b6112cb6111a6565b506112d66005610d1e565b90565b6112ea906112e5611bc4565b6112f4565b6112f2611c46565b565b806113076113015f610cee565b9161020a565b146114095761132061131b6004339061048e565b610d1e565b61133261132c8361020a565b9161020a565b106113ed5761135f8161135961134a6004339061048e565b9161135483610d1e565b610d67565b90610deb565b61137c611375826113706005610d1e565b610d67565b6005610deb565b6113a87f0000000000000000000000000000000000000000000000000000000000000000338391611c8a565b336113e86113d67f884edad9ce6fa2440d8a54cc123490eb96d2768479d49ff9c7366125a942436492610482565b926113df6101c2565b918291826102ee565b0390a2565b5f631e9acf1760e31b8152806114056004820161025d565b0390fd5b5f63162908e360e11b8152806114216004820161025d565b0390fd5b61142e906112d9565b565b6114419061143c611cd8565b611488565b565b9061144f60ff91610db1565b9181191691161790565b611462906108a6565b90565b90565b9061147d61147861148492611459565b611465565b8254611443565b9055565b61149e60016114996003849061084b565b611468565b6114c87fc13bb2196f59e9fa90738150dac5f901de66f89ccf2ab6435c1ab8d0dea1d61c91610482565b906114d16101c2565b806114db8161025d565b0390a2565b6114e990611430565b565b6114fc906114f7611cd8565b6114fe565b565b6115139061150e5f91600361084b565b611468565b565b61151e906114eb565b565b611528611cd8565b611530611532565b565b61154361153e5f610d47565b611d26565b565b61154d611520565b565b90565b61156661156161156b9261154f565b610457565b61020a565b90565b61157d6115839193929361020a565b9261020a565b9161158f83820261020a565b92818404149015171561159e57565b610d53565b634e487b7160e01b5f52601260045260245ffd5b6115c36115c99161020a565b9161020a565b9081156115d4570490565b6115a3565b6115e16111a6565b506115ec6005610d1e565b6115fe6115f85f610cee565b9161020a565b1461168b5761160d6006610d1e565b61162861162261161d6007610d1e565b61020a565b9161020a565b115f14611677576116746116646116526116426006610d1e565b61164c6007610d1e565b90610d67565b5b61165e612710611552565b9061156e565b61166e6005610d1e565b906115b7565b90565b6116746116646116865f610cee565b611653565b6116945f610cee565b90565b906116a9916116a4611bc4565b6116bf565b6116b1611c46565b565b6116bc90610476565b90565b816116d26116cc5f610cee565b9161020a565b1461178b5761170d7f000000000000000000000000000000000000000000000000000000000000000082611705306116b3565b908592611db9565b61172a6117238361171e6006610d1e565b610d8c565b6006610deb565b6117476117408361173b6005610d1e565b610d8c565b6005610deb565b6117866117747f055064f59ab6628ba9c529da6ff89620b1899e1bf0b98385523eb11fbe6621ab92610482565b9261177d6101c2565b918291826102ee565b0390a2565b5f63162908e360e11b8152806117a36004820161025d565b0390fd5b906117b191611697565b565b5f90565b6117bf6117b3565b506117ca6001610c2e565b90565b6117d56111a6565b506117e060086111b9565b90565b6117f4906117ef611cd8565b611834565b565b9061180760018060a01b0391610db1565b9181191691161790565b90565b9061182961182461183092610482565b611811565b82546117f6565b9055565b61183f90600b611814565b565b61184a906117e3565b565b61185d90611858611bc4565b611924565b611865611c46565b565b90565b5f5260205f2090565b5490565b61188081611873565b82101561189a5761189260019161186a565b910201905f90565b6111bd565b1b90565b919060086118c39102916118bd60018060a01b038461189f565b9261189f565b9181191691161790565b91906118e36118de6118eb93610482565b611811565b9083546118a3565b9055565b908154916801000000000000000083101561191f578261191791600161191d95018155611877565b906118cd565b565b610a8f565b806119376119315f610cee565b9161020a565b14611a4d576119727f00000000000000000000000000000000000000000000000000000000000000003361196a306116b3565b908492611db9565b61198f6119896119846009339061084b565b610c4f565b156108a6565b611a1e575b6119bc816119b66119a76004339061048e565b916119b183610d1e565b610d8c565b90610deb565b6119d96119d2826119cd6005610d1e565b610d8c565b6005610deb565b33611a19611a077fe1fffcc4923d04b559f4d29a8bfc6cda04eb5b0d3c460751c2402c5c5cc9109c92610482565b92611a106101c2565b918291826102ee565b0390a2565b611a346001611a2f6009339061084b565b611468565b611a48611a416008611867565b33906118ef565b611994565b5f63162908e360e11b815280611a656004820161025d565b0390fd5b611a729061184c565b565b611a8b611a9091611a836111a6565b50600461048e565b610d1e565b90565b611a9b6111a6565b50611aa66005610d1e565b611ab8611ab25f610cee565b9161020a565b14611af157611aee611ade611acd6006610d1e565b611ad8612710611552565b9061156e565b611ae86005610d1e565b906115b7565b90565b611afa5f610cee565b90565b611b0e90611b09611cd8565b611b10565b565b611b1b906002611814565b565b611b2690611afd565b565b611b3990611b34611cd8565b611b3b565b565b80611b56611b50611b4b5f610d47565b6101db565b916101db565b14611b6657611b6490611d26565b565b611b89611b725f610d47565b5f918291631e4fbdf760e01b8352600483016103ba565b0390fd5b611b9690611b28565b565b90565b611baf611baa611bb492611b98565b610457565b61020a565b90565b611bc16002611b9b565b90565b611bcd5f610d1e565b611be6611be0611bdb611bb7565b61020a565b9161020a565b14611bfe57611bfc611bf6611bb7565b5f610deb565b565b5f633ee5aeb560e01b815280611c166004820161025d565b0390fd5b90565b611c31611c2c611c3692611c1a565b610457565b61020a565b90565b611c436001611c1d565b90565b611c57611c51611c39565b5f610deb565b565b63ffffffff1690565b63ffffffff60e01b1690565b611c82611c7d611c8792611c59565b610e33565b611c62565b90565b90611cd1611cd693611cc260049493611ca963a9059cbb919391611c6e565b92611cb26101c2565b9687946020860190815201610e48565b60208201810382520383610aa3565b611e09565b565b611ce06117b7565b611cf9611cf3611cee611ebd565b6101db565b916101db565b03611d0057565b611d22611d0b611ebd565b5f91829163118cdaa760e01b8352600483016103ba565b0390fd5b611d306001610c2e565b611d3b826001611814565b90611d6f611d697f8be0079c531659141344cd1fd0a4f28419497f9722a3daafe3b4186f6b6457e093610482565b91610482565b91611d786101c2565b80611d828161025d565b0390a3565b604090611db0611db79496959396611da660608401985f8501906103ad565b60208301906103ad565b01906102e1565b565b600492611df3611e079593611e029394611dda6323b872dd92949192611c6e565b93611de36101c2565b9788956020870190815201611d87565b60208201810382520383610aa3565b611e09565b565b905f602091611e166111a6565b50611e1f6111a6565b50828151910182855af115611eb2573d5f5190611e44611e3e5f610cee565b9161020a565b145f14611e985750611e5581610926565b3b611e68611e625f610cee565b9161020a565b145b611e715750565b611e7d611e9491610926565b5f918291635274afe760e01b8352600483016103ba565b0390fd5b611eab611ea56001611c1d565b9161020a565b1415611e6a565b6040513d5f823e3d90fd5b611ec56117b3565b50339056fea264697066735822122027885a56da8f5795b143bf2051b47bdb86090516f48d290d861b19544f25b96764736f6c634300081a0033","linkReferences":{}},"methodIdentifiers":{"airlineCode()":"eb3ac16c","authorizePool(address)":"3059b7c6","authorizedPools(address)":"e816b393","balances(address)":"27e235e3","collectPremium(address,uint256)":"8c8ac76d","deposit(uint256)":"b6b55f25","getAPY()":"d2cbf7ad","getActiveLPCount()":"181490a0","getLPBalance(address)":"d2258beb","getPoolTVL()":"26be90bf","getTotalLPCount()":"9a15e0f7","getUtilization()":"7eb71131","globalPoolAddress()":"1fa7bb79","oracleAdapter()":"3d9f3163","owner()":"8da5cb5b","payout(address,uint256)":"117de2fd","renounceOwnership()":"715018a6","revokePool(address)":"6ae3e75b","setGlobalPoolAddress(address)":"b2b1e997","setOracleAdapter(address)":"edb6d075","stablecoin()":"e9cbd822","totalLiquidity()":"15770f92","totalPayouts()":"4089b170","totalPremiums()":"5bda1584","transferOwnership(address)":"f2fde38b","withdraw(uint256)":"2e1a7d4d"},"id":44}