{"abi":[{"type":"constructor","inputs":[],"stateMutability":"nonpayable"},{"type":"function","name":"approve","inputs":[{"name":"to","type":"address","internalType":"address"},{"name":"tokenId","type":"uint256","internalType":"uint256"}],"outputs":[],"stateMutability":"nonpayable"},{"type":"function","name":"balanceOf","inputs":[{"name":"owner","type":"address","internalType":"address"}],"outputs":[{"name":"","type":"uint256","internalType":"uint256"}],"stateMutability":"view"},{"type":"function","name":"flightPolicies","inputs":[{"name":"","type":"bytes32","internalType":"bytes32"},{"name":"","type":"uint256","internalType":"uint256"}],"outputs":[{"name":"","type":"uint256","internalType":"uint256"}],"stateMutability":"view"},{"type":"function","name":"getApproved","inputs":[{"name":"tokenId","type":"uint256","internalType":"uint256"}],"outputs":[{"name":"","type":"address","internalType":"address"}],"stateMutability":"view"},{"type":"function","name":"getFlightPolicies","inputs":[{"name":"flightId","type":"bytes32","internalType":"bytes32"}],"outputs":[{"name":"","type":"uint256[]","internalType":"uint256[]"}],"stateMutability":"view"},{"type":"function","name":"getPolicy","inputs":[{"name":"tokenId","type":"uint256","internalType":"uint256"}],"outputs":[{"name":"","type":"tuple","internalType":"struct PolicyNFT.PolicyMetadata","components":[{"name":"flightId","type":"bytes32","internalType":"bytes32"},{"name":"pnr","type":"string","internalType":"string"},{"name":"poolType","type":"uint8","internalType":"uint8"},{"name":"coverageAmount","type":"uint256","internalType":"uint256"},{"name":"premiumPaid","type":"uint256","internalType":"uint256"},{"name":"expiryTimestamp","type":"uint256","internalType":"uint256"},{"name":"poolAddress","type":"address","internalType":"address"},{"name":"payoutExecuted","type":"bool","internalType":"bool"}]}],"stateMutability":"view"},{"type":"function","name":"isApprovedForAll","inputs":[{"name":"owner","type":"address","internalType":"address"},{"name":"operator","type":"address","internalType":"address"}],"outputs":[{"name":"","type":"bool","internalType":"bool"}],"stateMutability":"view"},{"type":"function","name":"markPayoutExecuted","inputs":[{"name":"tokenId","type":"uint256","internalType":"uint256"}],"outputs":[],"stateMutability":"nonpayable"},{"type":"function","name":"mintPolicy","inputs":[{"name":"to","type":"address","internalType":"address"},{"name":"flightId","type":"bytes32","internalType":"bytes32"},{"name":"pnr","type":"string","internalType":"string"},{"name":"poolType","type":"uint8","internalType":"uint8"},{"name":"coverageAmount","type":"uint256","internalType":"uint256"},{"name":"premiumPaid","type":"uint256","internalType":"uint256"},{"name":"expiryTimestamp","type":"uint256","internalType":"uint256"},{"name":"poolAddress","type":"address","internalType":"address"}],"outputs":[{"name":"","type":"uint256","internalType":"uint256"}],"stateMutability":"nonpayable"},{"type":"function","name":"minter","inputs":[],"outputs":[{"name":"","type":"address","internalType":"address"}],"stateMutability":"view"},{"type":"function","name":"name","inputs":[],"outputs":[{"name":"","type":"string","internalType":"string"}],"stateMutability":"view"},{"type":"function","name":"oracleAdapter","inputs":[],"outputs":[{"name":"","type":"address","internalType":"address"}],"stateMutability":"view"},{"type":"function","name":"owner","inputs":[],"outputs":[{"name":"","type":"address","internalType":"address"}],"stateMutability":"view"},{"type":"function","name":"ownerOf","inputs":[{"name":"tokenId","type":"uint256","internalType":"uint256"}],"outputs":[{"name":"","type":"address","internalType":"address"}],"stateMutability":"view"},{"type":"function","name":"pnrUsed","inputs":[{"name":"","type":"string","internalType":"string"}],"outputs":[{"name":"","type":"bool","internalType":"bool"}],"stateMutability":"view"},{"type":"function","name":"policies","inputs":[{"name":"","type":"uint256","internalType":"uint256"}],"outputs":[{"name":"flightId","type":"bytes32","internalType":"bytes32"},{"name":"pnr","type":"string","internalType":"string"},{"name":"poolType","type":"uint8","internalType":"uint8"},{"name":"coverageAmount","type":"uint256","internalType":"uint256"},{"name":"premiumPaid","type":"uint256","internalType":"uint256"},{"name":"expiryTimestamp","type":"uint256","internalType":"uint256"},{"name":"poolAddress","type":"address","internalType":"address"},{"name":"payoutExecuted","type":"bool","internalType":"bool"}],"stateMutability":"view"},{"type":"function","name":"renounceOwnership","inputs":[],"outputs":[],"stateMutability":"nonpayable"},{"type":"function","name":"safeTransferFrom","inputs":[{"name":"from","type":"address","internalType":"address"},{"name":"to","type":"address","internalType":"address"},{"name":"tokenId","type":"uint256","internalType":"uint256"}],"outputs":[],"stateMutability":"nonpayable"},{"type":"function","name":"safeTransferFrom","inputs":[{"name":"from","type":"address","internalType":"address"},{"name":"to","type":"address","internalType":"address"},{"name":"tokenId","type":"uint256","internalType":"uint256"},{"name":"data","type":"bytes","internalType":"bytes"}],"outputs":[],"stateMutability":"nonpayable"},{"type":"function","name":"setApprovalForAll","inputs":[{"name":"operator","type":"address","internalType":"address"},{"name":"approved","type":"bool","internalType":"bool"}],"outputs":[],"stateMutability":"nonpayable"},{"type":"function","name":"setMinter","inputs":[{"name":"_minter","type":"address","internalType":"address"}],"outputs":[],"stateMutability":"nonpayable"},{"type":"function","name":"setOracleAdapter","inputs":[{"name":"_oracleAdapter","type":"address","internalType":"address"}],"outputs":[],"stateMutability":"nonpayable"},{"type":"function","name":"supportsInterface","inputs":[{"name":"interfaceId","type":"bytes4","internalType":"bytes4"}],"outputs":[{"name":"","type":"bool","internalType":"bool"}],"stateMutability":"view"},{"type":"function","name":"symbol","inputs":[],"outputs":[{"name":"","type":"string","internalType":"string"}],"stateMutability":"view"},{"type":"function","name":"tokenURI","inputs":[{"name":"tokenId","type":"uint256","internalType":"uint256"}],"outputs":[{"name":"","type":"string","internalType":"string"}],"stateMutability":"view"},{"type":"function","name":"tokensOfOwner","inputs":[{"name":"owner","type":"address","internalType":"address"}],"outputs":[{"name":"","type":"uint256[]","internalType":"uint256[]"}],"stateMutability":"view"},{"type":"function","name":"transferFrom","inputs":[{"name":"from","type":"address","internalType":"address"},{"name":"to","type":"address","internalType":"address"},{"name":"tokenId","type":"uint256","internalType":"uint256"}],"outputs":[],"stateMutability":"nonpayable"},{"type":"function","name":"transferOwnership","inputs":[{"name":"newOwner","type":"address","internalType":"address"}],"outputs":[],"stateMutability":"nonpayable"},{"type":"event","name":"Approval","inputs":[{"name":"owner","type":"address","indexed":true,"internalType":"address"},{"name":"approved","type":"address","indexed":true,"internalType":"address"},{"name":"tokenId","type":"uint256","indexed":true,"internalType":"uint256"}],"anonymous":false},{"type":"event","name":"ApprovalForAll","inputs":[{"name":"owner","type":"address","indexed":true,"internalType":"address"},{"name":"operator","type":"address","indexed":true,"internalType":"address"},{"name":"approved","type":"bool","indexed":false,"internalType":"bool"}],"anonymous":false},{"type":"event","name":"MinterUpdated","inputs":[{"name":"oldMinter","type":"address","indexed":true,"internalType":"address"},{"name":"newMinter","type":"address","indexed":true,"internalType":"address"}],"anonymous":false},{"type":"event","name":"OwnershipTransferred","inputs":[{"name":"previousOwner","type":"address","indexed":true,"internalType":"address"},{"name":"newOwner","type":"address","indexed":true,"internalType":"address"}],"anonymous":false},{"type":"event","name":"PayoutExecuted","inputs":[{"name":"tokenId","type":"uint256","indexed":true,"internalType":"uint256"},{"name":"recipient","type":"address","indexed":true,"internalType":"address"},{"name":"amount","type":"uint256","indexed":false,"internalType":"uint256"}],"anonymous":false},{"type":"event","name":"PolicyMinted","inputs":[{"name":"tokenId","type":"uint256","indexed":true,"internalType":"uint256"},{"name":"owner","type":"address","indexed":true,"internalType":"address"},{"name":"flightId","type":"bytes32","indexed":true,"internalType":"bytes32"},{"name":"pnr","type":"string","indexed":false,"internalType":"string"},{"name":"poolType","type":"uint8","indexed":false,"internalType":"uint8"},{"name":"coverageAmount","type":"uint256","indexed":false,"internalType":"uint256"}],"anonymous":false},{"type":"event","name":"Transfer","inputs":[{"name":"from","type":"address","indexed":true,"internalType":"address"},{"name":"to","type":"address","indexed":true,"internalType":"address"},{"name":"tokenId","type":"uint256","indexed":true,"internalType":"uint256"}],"anonymous":false},{"type":"error","name":"ERC721IncorrectOwner","inputs":[{"name":"sender","type":"address","internalType":"address"},{"name":"tokenId","type":"uint256","internalType":"uint256"},{"name":"owner","type":"address","internalType":"address"}]},{"type":"error","name":"ERC721InsufficientApproval","inputs":[{"name":"operator","type":"address","internalType":"address"},{"name":"tokenId","type":"uint256","internalType":"uint256"}]},{"type":"error","name":"ERC721InvalidApprover","inputs":[{"name":"approver","type":"address","internalType":"address"}]},{"type":"error","name":"ERC721InvalidOperator","inputs":[{"name":"operator","type":"address","internalType":"address"}]},{"type":"error","name":"ERC721InvalidOwner","inputs":[{"name":"owner","type":"address","internalType":"address"}]},{"type":"error","name":"ERC721InvalidReceiver","inputs":[{"name":"receiver","type":"address","internalType":"address"}]},{"type":"error","name":"ERC721InvalidSender","inputs":[{"name":"sender","type":"address","internalType":"address"}]},{"type":"error","name":"ERC721NonexistentToken","inputs":[{"name":"tokenId","type":"uint256","internalType":"uint256"}]},{"type":"error","name":"OwnableInvalidOwner","inputs":[{"name":"owner","type":"address","internalType":"address"}]},{"type":"error","name":"OwnableUnauthorizedAccount","inputs":[{"name":"account","type":"address","internalType":"address"}]},{"type":"error","name":"PNRAlreadyUsed","inputs":[{"name":"pnr","type":"string","internalType":"string"}]},{"type":"error","name":"PayoutAlreadyExecuted","inputs":[{"name":"tokenId","type":"uint256","internalType":"uint256"}]},{"type":"error","name":"PolicyExpired","inputs":[{"name":"tokenId","type":"uint256","internalType":"uint256"}]},{"type":"error","name":"PolicyNotFound","inputs":[{"name":"tokenId","type":"uint256","internalType":"uint256"}]},{"type":"error","name":"ReentrancyGuardReentrantCall","inputs":[]},{"type":"error","name":"TransferDisabled","inputs":[]},{"type":"error","name":"UnauthorizedMinter","inputs":[]}],"bytecode":{"object":"0x6080604052346100275761001161015e565b61001961002c565b613798610638823961379890f35b610032565b60405190565b5f80fd5b601f801991011690565b634e487b7160e01b5f52604160045260245ffd5b9061005e90610036565b810190811060018060401b0382111761007657604052565b610040565b9061008e61008761002c565b9283610054565b565b60018060401b0381116100ac576100a8602091610036565b0190565b610040565b906100c36100be83610090565b61007b565b918252565b5f7f57696e67466920506f6c69637900000000000000000000000000000000000000910152565b6100f9600d6100b1565b90610106602083016100c8565b565b6101106100ef565b90565b5f7f5746500000000000000000000000000000000000000000000000000000000000910152565b61014460036100b1565b9061015160208301610113565b565b61015b61013a565b90565b6101783361016a610108565b610172610153565b91610206565b565b90565b90565b90565b61019761019261019c9261017a565b610180565b61017d565b90565b6101a96001610183565b90565b5f1b90565b906101bd5f19916101ac565b9181191691161790565b6101db6101d66101e09261017d565b610180565b61017d565b90565b90565b906101fb6101f6610202926101c7565b6101e3565b82546101b1565b9055565b906102119291610289565b61022361021c61019f565b60076101e6565b565b90565b60018060a01b031690565b61024761024261024c92610225565b610180565b610228565b90565b61025890610233565b90565b61026490610228565b90565b6102709061025b565b9052565b9190610287905f60208501940190610267565b565b9161029391610517565b806102ae6102a86102a35f61024f565b61025b565b9161025b565b146102be576102bc906105d6565b565b6102e16102ca5f61024f565b5f918291631e4fbdf760e01b835260048301610274565b0390fd5b5190565b634e487b7160e01b5f52602260045260245ffd5b906001600283049216801561031d575b602083101461031857565b6102e9565b91607f169161030d565b5f5260205f2090565b601f602091010490565b1b90565b919060086103599102916103535f198461033a565b9261033a565b9181191691161790565b9190610379610374610381936101c7565b6101e3565b90835461033e565b9055565b5f90565b61039b91610395610385565b91610363565b565b5b8181106103a9575050565b806103b65f600193610389565b0161039e565b9190601f81116103cc575b505050565b6103d86103fd93610327565b9060206103e484610330565b83019310610405575b6103f690610330565b019061039d565b5f80806103c7565b91506103f6819290506103ed565b1c90565b90610427905f1990600802610413565b191690565b8161043691610417565b906002021790565b90610448816102e5565b9060018060401b0382116105065761046a8261046485546102fd565b856103bc565b602090601f831160011461049e5791809161048d935f92610492575b505061042c565b90555b565b90915001515f80610486565b601f198316916104ad85610327565b925f5b8181106104ee575091600293918560019694106104d4575b50505002019055610490565b6104e4910151601f841690610417565b90555f80806104c8565b919360206001819287870151815501950192016104b0565b610040565b906105159161043e565b565b9061052561052c925f61050b565b600161050b565b565b5f1c90565b60018060a01b031690565b61054a61054f9161052e565b610533565b90565b61055c905461053e565b90565b9061057060018060a01b03916101ac565b9181191691161790565b61058e61058961059392610228565b610180565b610228565b90565b61059f9061057a565b90565b6105ab90610596565b90565b90565b906105c66105c16105cd926105a2565b6105ae565b825461055f565b9055565b5f0190565b6105e06006610552565b6105eb8260066105b1565b9061061f6106197f8be0079c531659141344cd1fd0a4f28419497f9722a3daafe3b4186f6b6457e0936105a2565b916105a2565b9161062861002c565b80610632816105d1565b0390a356fe60806040526004361015610013575b611446565b61001d5f356101dc565b806301ffc9a7146101d757806306fdde03146101d257806307546172146101cd578063081812fc146101c8578063095ea7b3146101c35780630b0546c4146101be578063167699b0146101b95780631bc33b49146101b457806323b872dd146101af5780632b07fce3146101aa5780633d9f3163146101a557806342842e0e146101a05780636352211e1461019b57806370a0823114610196578063715018a6146101915780638462151c1461018c5780638da5cb5b1461018757806395d89b4114610182578063a22cb4651461017d578063b88d4fde14610178578063c87b56dd14610173578063d3e894831461016e578063e985e9c514610169578063ec7ba46014610164578063edb6d0751461015f578063f2fde38b1461015a578063f9ee42f6146101555763fca3b5aa0361000e57611413565b6113d4565b6112e5565b6112b2565b61127d565b6110d0565b611064565b610d2f565b610cf8565b610b84565b610aff565b610aca565b610a95565b610a62565b610a2d565b6109da565b6109a6565b610971565b61092d565b6107d3565b610766565b610730565b6105e3565b6104cc565b610442565b6103c9565b610317565b610268565b60e01c90565b60405190565b5f80fd5b5f80fd5b5f80fd5b63ffffffff60e01b1690565b610209816101f4565b0361021057565b5f80fd5b9050359061022182610200565b565b9060208282031261023c57610239915f01610214565b90565b6101ec565b151590565b61024f90610241565b9052565b9190610266905f60208501940190610246565b565b346102985761029461028361027e366004610223565b61144e565b61028b6101e2565b91829182610253565b0390f35b6101e8565b5f9103126102a757565b6101ec565b5190565b60209181520190565b90825f9392825e0152565b601f801991011690565b6102ed6102f66020936102fb936102e4816102ac565b938480936102b0565b958691016102b9565b6102c4565b0190565b6103149160208201915f8184039101526102ce565b90565b346103475761032736600461029d565b6103436103326114c7565b61033a6101e2565b918291826102ff565b0390f35b6101e8565b1c90565b60018060a01b031690565b61036b906008610370930261034c565b610350565b90565b9061037e915461035b565b90565b61038d60095f90610373565b90565b60018060a01b031690565b6103a490610390565b90565b6103b09061039b565b9052565b91906103c7905f602085019401906103a7565b565b346103f9576103d936600461029d565b6103f56103e4610381565b6103ec6101e2565b918291826103b4565b0390f35b6101e8565b90565b61040a816103fe565b0361041157565b5f80fd5b9050359061042282610401565b565b9060208282031261043d5761043a915f01610415565b90565b6101ec565b346104725761046e61045d610458366004610424565b6114e0565b6104656101e2565b918291826103b4565b0390f35b6101e8565b6104808161039b565b0361048757565b5f80fd5b9050359061049882610477565b565b91906040838203126104c257806104b66104bf925f860161048b565b93602001610415565b90565b6101ec565b5f0190565b346104fb576104e56104df36600461049a565b906114ff565b6104ed6101e2565b806104f7816104c7565b0390f35b6101e8565b90565b61050c81610500565b0361051357565b5f80fd5b9050359061052482610503565b565b9060208282031261053f5761053c915f01610517565b90565b6101ec565b5190565b60209181520190565b60200190565b610560906103fe565b9052565b9061057181602093610557565b0190565b60200190565b9061059861059261058b84610544565b8093610548565b92610551565b905f5b8181106105a85750505090565b9091926105c16105bb6001928651610564565b94610575565b910191909161059b565b6105e09160208201915f81840391015261057b565b90565b346106135761060f6105fe6105f9366004610526565b6115c8565b6106066101e2565b918291826105cb565b0390f35b6101e8565b9190604083820312610640578061063461063d925f8601610517565b93602001610415565b90565b6101ec565b61064e90610500565b90565b9061065b90610645565b5f5260205260405f2090565b634e487b7160e01b5f52603260045260245ffd5b5490565b5f5260205f2090565b6106918161067b565b8210156106ab576106a360019161067f565b910201905f90565b610667565b90565b6106c39060086106c8930261034c565b6106b0565b90565b906106d691546106b3565b90565b6106e490600d610651565b6106ed8161067b565b82101561070a576107079161070191610688565b906106cb565b90565b5f80fd5b610717906103fe565b9052565b919061072e905f6020850194019061070e565b565b346107615761075d61074c610746366004610618565b906106d9565b6107546101e2565b9182918261071b565b0390f35b6101e8565b346107945761077e610779366004610424565b611688565b6107866101e2565b80610790816104c7565b0390f35b6101e8565b90916060828403126107ce576107cb6107b4845f850161048b565b936107c2816020860161048b565b93604001610415565b90565b6101ec565b34610802576107ec6107e6366004610799565b91611880565b6107f46101e2565b806107fe816104c7565b0390f35b6101e8565b61081090610500565b9052565b60209181520190565b61083c61084560209361084a93610833816102ac565b93848093610814565b958691016102b9565b6102c4565b0190565b60ff1690565b61085d9061084e565b9052565b61086a9061039b565b9052565b61087790610241565b9052565b906109129060e0806108ad610100840161089b5f8801515f870190610807565b6020870151858203602087015261081d565b946108c060408201516040860190610854565b6108d260608201516060860190610557565b6108e460808201516080860190610557565b6108f660a082015160a0860190610557565b61090860c082015160c0860190610861565b015191019061086e565b90565b61092a9160208201915f81840391015261087b565b90565b3461095d57610959610948610943366004610424565b611ad8565b6109506101e2565b91829182610915565b0390f35b6101e8565b61096e600a5f90610373565b90565b346109a15761098136600461029d565b61099d61098c610962565b6109946101e2565b918291826103b4565b0390f35b6101e8565b346109d5576109bf6109b9366004610799565b91611b72565b6109c76101e2565b806109d1816104c7565b0390f35b6101e8565b34610a0a57610a066109f56109f0366004610424565b611b88565b6109fd6101e2565b918291826103b4565b0390f35b6101e8565b90602082820312610a2857610a25915f0161048b565b90565b6101ec565b34610a5d57610a59610a48610a43366004610a0f565b611bb7565b610a506101e2565b9182918261071b565b0390f35b6101e8565b34610a9057610a7236600461029d565b610a7a611c42565b610a826101e2565b80610a8c816104c7565b0390f35b6101e8565b34610ac557610ac1610ab0610aab366004610a0f565b611d1b565b610ab86101e2565b918291826105cb565b0390f35b6101e8565b34610afa57610ada36600461029d565b610af6610ae5611df2565b610aed6101e2565b918291826103b4565b0390f35b6101e8565b34610b2f57610b0f36600461029d565b610b2b610b1a611e08565b610b226101e2565b918291826102ff565b0390f35b6101e8565b610b3d81610241565b03610b4457565b5f80fd5b90503590610b5582610b34565b565b9190604083820312610b7f5780610b73610b7c925f860161048b565b93602001610b48565b90565b6101ec565b34610bb357610b9d610b97366004610b57565b90611e1e565b610ba56101e2565b80610baf816104c7565b0390f35b6101e8565b5f80fd5b5f80fd5b634e487b7160e01b5f52604160045260245ffd5b90610bde906102c4565b810190811067ffffffffffffffff821117610bf857604052565b610bc0565b90610c10610c096101e2565b9283610bd4565b565b67ffffffffffffffff8111610c3057610c2c6020916102c4565b0190565b610bc0565b90825f939282370152565b90929192610c55610c5082610c12565b610bfd565b93818552602085019082840111610c7157610c6f92610c35565b565b610bbc565b9080601f83011215610c9457816020610c9193359101610c40565b90565b610bb8565b90608082820312610cf357610cb0815f840161048b565b92610cbe826020850161048b565b92610ccc8360408301610415565b92606082013567ffffffffffffffff8111610cee57610ceb9201610c76565b90565b6101f0565b6101ec565b34610d2a57610d14610d0b366004610c99565b92919091611e34565b610d1c6101e2565b80610d26816104c7565b0390f35b6101e8565b34610d5f57610d5b610d4a610d45366004610424565b611eb0565b610d526101e2565b918291826102ff565b0390f35b6101e8565b90565b610d7b610d76610d80926103fe565b610d64565b6103fe565b90565b90610d8d90610d67565b5f5260205260405f2090565b5f1c90565b90565b610dad610db291610d99565b610d9e565b90565b610dbf9054610da1565b90565b634e487b7160e01b5f52602260045260245ffd5b9060016002830492168015610df6575b6020831014610df157565b610dc2565b91607f1691610de6565b5f5260205f2090565b905f9291805490610e23610e1c83610dd6565b8094610814565b916001811690815f14610e7a5750600114610e3e575b505050565b610e4b9192939450610e00565b915f925b818410610e6257505001905f8080610e39565b60018160209295939554848601520191019290610e4f565b92949550505060ff19168252151560200201905f8080610e39565b90610e9f91610e09565b90565b90610ec2610ebb92610eb26101e2565b93848092610e95565b0383610bd4565b565b60ff1690565b610ed6610edb91610d99565b610ec4565b90565b610ee89054610eca565b90565b610ef7610efc91610d99565b6106b0565b90565b610f099054610eeb565b90565b610f18610f1d91610d99565b610350565b90565b610f2a9054610f0c565b90565b60a01c90565b60ff1690565b610f45610f4a91610f2d565b610f33565b90565b610f579054610f39565b90565b610f6590600b610d83565b90610f715f8301610db5565b91610f7e60018201610ea2565b91610f8b60028301610ede565b91610f9860038201610eff565b91610fa560048301610eff565b91610fb260058201610eff565b91610fca6006610fc3818501610f20565b9301610f4d565b90565b610fd690610500565b9052565b610fe39061084e565b9052565b939561104760e09661103d61105b969c9b996110336110288a6110629e9961101a6110519a5f6101008501940190610fcd565b8c60208184039101526102ce565b9e60408b0190610fda565b606089019061070e565b608087019061070e565b60a085019061070e565b60c08301906103a7565b0190610246565b565b3461109e5761109a61107f61107a366004610424565b610f5a565b946110919896989491949392936101e2565b98899889610fe7565b0390f35b6101e8565b91906040838203126110cb57806110bf6110c8925f860161048b565b9360200161048b565b90565b6101ec565b34611101576110fd6110ec6110e63660046110a3565b90611f69565b6110f46101e2565b91829182610253565b0390f35b6101e8565b67ffffffffffffffff8111611124576111206020916102c4565b0190565b610bc0565b9092919261113e61113982611106565b610bfd565b9381855260208501908284011161115a5761115892610c35565b565b610bbc565b9080601f8301121561117d5781602061117a93359101611129565b90565b610bb8565b906020828203126111b2575f82013567ffffffffffffffff81116111ad576111aa920161115f565b90565b6101f0565b6101ec565b905090565b6111e16111d8926020926111cf816102ac565b948580936111b7565b938491016102b9565b0190565b90565b6111f46111f9916103fe565b6111e5565b9052565b61120d61121491602094936111bc565b80926111e8565b0190565b61122c6112236101e2565b928392836111fd565b03902090565b61123b91611218565b90565b61124e906008611253930261034c565b610f33565b90565b90611261915461123e565b90565b61127a90611275600c915f92611232565b611256565b90565b346112ad576112a9611298611293366004611182565b611264565b6112a06101e2565b91829182610253565b0390f35b6101e8565b346112e0576112ca6112c5366004610a0f565b611ff4565b6112d26101e2565b806112dc816104c7565b0390f35b6101e8565b34611313576112fd6112f8366004610a0f565b612064565b6113056101e2565b8061130f816104c7565b0390f35b6101e8565b6113218161084e565b0361132857565b5f80fd5b9050359061133982611318565b565b9190610100838203126113cf57611354815f850161048b565b926113628260208301610517565b92604082013567ffffffffffffffff81116113ca578361138391840161115f565b92611391816060850161132c565b9261139f8260808301610415565b926113c76113b08460a08501610415565b936113be8160c08601610415565b9360e00161048b565b90565b6101f0565b6101ec565b3461140e5761140a6113f96113ea36600461133b565b96959095949194939293612717565b6114016101e2565b9182918261071b565b0390f35b6101e8565b346114415761142b611426366004610a0f565b6127a6565b6114336101e2565b8061143d816104c7565b0390f35b6101e8565b5f80fd5b5f90565b61145661144a565b508061147161146b6380ac58cd60e01b6101f4565b916101f4565b148015611495575b908115611485575b5090565b61148f91506127b1565b5f611481565b50806114b06114aa635b5e139f60e01b6101f4565b916101f4565b14611479565b606090565b6114c490610ea2565b90565b6114cf6114b6565b506114d95f6114bb565b90565b5f90565b6114fc906114ec6114dc565b506114f6816127d7565b50612843565b90565b90611513919061150d612862565b9161286f565b565b606090565b60209181520190565b61152d9054610eeb565b90565b60010190565b9061155361154d6115468461067b565b809361151a565b9261067f565b905f5b8181106115635750505090565b90919261158361157d60019261157887611523565b610564565b94611530565b9101919091611556565b9061159791611536565b90565b906115ba6115b3926115aa6101e2565b9384809261158d565b0383610bd4565b565b6115c59061159a565b90565b6115df6115e4916115d7611515565b50600d610651565b6115bc565b90565b90565b6115fe6115f9611603926115e7565b610d64565b6103fe565b90565b60a01b90565b9061161b60ff60a01b91611606565b9181191691161790565b61162e90610241565b90565b90565b9061164961164461165092611625565b611631565b825461160c565b9055565b61166861166361166d92610390565b610d64565b610390565b90565b61167990611654565b90565b61168590611670565b90565b336116a461169e6116996009610f20565b61039b565b9161039b565b141580611804575b806117e0575b6117c4576116cd60056116c7600b8490610d83565b01610eff565b6116df6116d95f6115ea565b916103fe565b146117a5576116fb60066116f5600b8490610d83565b01610f4d565b6117865761171860016006611712600b8590610d83565b01611634565b80611738600361173261172a84611b88565b93600b610d83565b01610eff565b9161178161176f6117697fbeaa99d72a600712e4656a7da04b2cabe31fb50fbf8f5b5f96513b0a4f495c1a93610d67565b9361167c565b936117786101e2565b9182918261071b565b0390a3565b6117a1905f91829163ab9e5cd560e01b83526004830161071b565b0390fd5b6117c0905f9182916321df5fa560e11b83526004830161071b565b0390fd5b5f63955c501b60e01b8152806117dc600482016104c7565b0390fd5b50336117fd6117f76117f2600a610f20565b61039b565b9161039b565b14156116b2565b503361181f611819611814611df2565b61039b565b9161039b565b14156116ac565b61183a61183561183f926115e7565b610d64565b610390565b90565b61184b90611826565b90565b60409061187761187e949695939661186d60608401985f8501906103a7565b602083019061070e565b01906103a7565b565b91908061189d6118976118925f611842565b61039b565b9161039b565b146118f4576118b590826118af612862565b9161287f565b91826118c96118c38361039b565b9161039b565b036118d357505050565b6118f09091925f9384936364283d7b60e01b85526004850161184e565b0390fd5b6119176119005f611842565b5f918291633250574960e11b8352600483016103b4565b0390fd5b611926610100610bfd565b90565b5f90565b606090565b5f90565b5f90565b5f90565b5f90565b61194a61191b565b906020808080808080808961195d611929565b81520161196861192d565b815201611973611932565b81520161197e611936565b815201611989611936565b815201611994611936565b81520161199f61193a565b8152016119aa61193e565b81525050565b6119b8611942565b90565b906119c590610500565b9052565b52565b906119d69061084e565b9052565b906119e4906103fe565b9052565b906119f29061039b565b9052565b90611a0090610241565b9052565b90611aca611ac16006611a1561191b565b94611a2c611a245f8301610db5565b5f88016119bb565b611a44611a3b60018301610ea2565b602088016119c9565b611a5c611a5360028301610ede565b604088016119cc565b611a74611a6b60038301610eff565b606088016119da565b611a8c611a8360048301610eff565b608088016119da565b611aa4611a9b60058301610eff565b60a088016119da565b611abb611ab2838301610f20565b60c088016119e8565b01610f4d565b60e084016119f6565b565b611ad590611a04565b90565b611ae06119b0565b50611af86005611af2600b8490610d83565b01610eff565b611b0a611b045f6115ea565b916103fe565b14611b2557611b1d611b2291600b610d83565b611acc565b90565b611b40905f9182916321df5fa560e11b83526004830161071b565b0390fd5b90611b56611b5183611106565b610bfd565b918252565b611b645f611b44565b90565b611b6f611b5b565b90565b91611b869291611b80611b67565b92611e34565b565b611b9a90611b946114dc565b506127d7565b90565b5f90565b90611bab9061167c565b5f5260205260405f2090565b611bbf611b9d565b5080611bdb611bd5611bd05f611842565b61039b565b9161039b565b14611bf657611bee611bf3916003611ba1565b610eff565b90565b611c19611c025f611842565b5f9182916322718ad960e21b8352600483016103b4565b0390fd5b611c25612904565b611c2d611c2f565b565b611c40611c3b5f611842565b612952565b565b611c4a611c1d565b565b67ffffffffffffffff8111611c645760208091020190565b610bc0565b90611c7b611c7683611c4c565b610bfd565b918252565b369037565b90611caa611c9283611c69565b92602080611ca08693611c4c565b9201910390611c80565b565b90565b611cc3611cbe611cc892611cac565b610d64565b6103fe565b90565b634e487b7160e01b5f52601160045260245ffd5b611ce8906103fe565b5f198114611cf65760010190565b611ccb565b90611d0582610544565b811015611d16576020809102010190565b610667565b611d23611515565b50611d2d81611bb7565b90611d3782611c85565b90611d415f6115ea565b90611d4c6001611caf565b5b80611d69611d63611d5e6008610eff565b6103fe565b916103fe565b111580611dd8575b15611dd057611d7f816129b3565b611d91611d8b8461039b565b9161039b565b14611da5575b611da090611cdf565b611d4d565b91611dc8611da091611dc385611dbe8891849092611cfb565b6119da565b611cdf565b929050611d97565b505050905090565b5082611dec611de6876103fe565b916103fe565b10611d71565b611dfa6114dc565b50611e056006610f20565b90565b611e106114b6565b50611e1b60016114bb565b90565b611e3291611e2a612862565b9190916129d2565b565b91611e589391611e4684828491611880565b611e4e612862565b9390919293612b9c565b565b90565b5190565b611e69611b5b565b90565b611e7a90611e8093926111bc565b906111bc565b90565b611ea29291611eae91611e946101e2565b948592602084019283611e6c565b90810382520383610bd4565b565b611eb86114b6565b50611ec2816127d7565b50611ecb612cf0565b90611edd611ed883611e5a565b611e5d565b611eef611ee95f6115ea565b916103fe565b115f14611f0d57611f03611f099291612da2565b90611e83565b5b90565b5050611f17611e61565b611f0a565b90611f269061167c565b5f5260205260405f2090565b90611f3c9061167c565b5f5260205260405f2090565b611f54611f5991610d99565b610f33565b90565b611f669054611f48565b90565b611f8e91611f84611f8992611f7c61144a565b506005611f1c565b611f32565b611f5c565b90565b611fa290611f9d612904565b611fe7565b565b5f1b90565b90611fba60018060a01b0391611fa4565b9181191691161790565b90565b90611fdc611fd7611fe39261167c565b611fc4565b8254611fa9565b9055565b611ff290600a611fc7565b565b611ffd90611f91565b565b6120109061200b612904565b612012565b565b8061202d6120276120225f611842565b61039b565b9161039b565b1461203d5761203b90612952565b565b6120606120495f611842565b5f918291631e4fbdf760e01b8352600483016103b4565b0390fd5b61206d90611fff565b565b97969594939291903361209361208d6120886009610f20565b61039b565b9161039b565b036120a4576120a1986120c0565b90565b5f63955c501b60e01b8152806120bc600482016104c7565b0390fd5b906120d998979695949392916120d4612e77565b612568565b906120e2612edc565b565b906120f060ff91611fa4565b9181191691161790565b9061210f61210a61211692611625565b611631565b82546120e4565b9055565b906121265f1991611fa4565b9181191691161790565b90565b9061214861214361214f92610d67565b612130565b825461211a565b9055565b61215e610100610bfd565b90565b61216b9051610500565b90565b61217790610d99565b90565b9061218f61218a61219692610645565b61216e565b825461211a565b9055565b5190565b601f602091010490565b1b90565b919060086121c79102916121c15f19846121a8565b926121a8565b9181191691161790565b91906121e76121e26121ef93610d67565b612130565b9083546121ac565b9055565b612205916121ff611b9d565b916121d1565b565b5b818110612213575050565b806122205f6001936121f3565b01612208565b9190601f8111612236575b505050565b61224261226793610e00565b90602061224e8461219e565b8301931061226f575b6122609061219e565b0190612207565b5f8080612231565b915061226081929050612257565b9061228d905f199060080261034c565b191690565b8161229c9161227d565b906002021790565b906122ae816102ac565b9067ffffffffffffffff821161236e576122d2826122cc8554610dd6565b85612226565b602090601f8311600114612306579180916122f5935f926122fa575b5050612292565b90555b565b90915001515f806122ee565b601f1983169161231585610e00565b925f5b8181106123565750916002939185600196941061233c575b505050020190556122f8565b61234c910151601f84169061227d565b90555f8080612330565b91936020600181928787015181550195019201612318565b610bc0565b9061237d916122a4565b565b612389905161084e565b90565b6123a061239b6123a59261084e565b610d64565b61084e565b90565b90565b906123c06123bb6123c79261238c565b6123a8565b82546120e4565b9055565b6123d590516103fe565b90565b6123e2905161039b565b90565b6123ef9051610241565b90565b906124b260e060066124b8946124155f820161240f5f8801612161565b9061217a565b61242e600182016124286020880161219a565b90612373565b612447600282016124416040880161237f565b906123ab565b6124606003820161245a606088016123cb565b90612133565b61247960048201612473608088016123cb565b90612133565b6124926005820161248c60a088016123cb565b90612133565b6124aa8282016124a460c088016123d8565b90611fc7565b0192016123e5565b90611634565b565b906124c4916123f2565b565b90565b5f5260205f2090565b5490565b6124df816124d2565b8210156124f9576124f16001916124c9565b910201905f90565b610667565b908154916801000000000000000083101561252e578261252691600161252c950181556124d6565b906121d1565b565b610bc0565b60409061255f6125546125669597969460608401908482035f8601526102ce565b966020830190610fda565b019061070e565b565b9791949295979690939650612587612582600c8890611232565b611f5c565b6126f1576001600c8761259991611232565b906125a3916120fa565b6125ad6008610eff565b6125b690611cdf565b6125c1906008612133565b6125cb6008610eff565b9784896125d791612ef0565b85928792899286909192935f956125ec612153565b975f8901906125fa916119bb565b6020880190612608916119c9565b6040870190612616916119cc565b6060860190612624916119da565b6080850190612632916119da565b60a0840190612640916119da565b60c083019061264e916119e8565b60e082019061265c916119f6565b600b8761266891610d83565b90612672916124ba565b600d8361267e91610651565b612687906124c6565b86612691916124fe565b85919293947f3fb7b2c7657069eebf9bce93fbb9db815e6ea408bc18add794a13546db37c7cd926126c190610d67565b936126cb9061167c565b946126d590610645565b956126de6101e2565b9283926126eb9284612533565b0390a490565b612713866126fd6101e2565b918291630c874b2f60e21b8352600483016102ff565b0390fd5b9061272f9796959493929161272a611b9d565b61206f565b90565b6127439061273e612904565b612745565b565b61274f6009610f20565b61275a826009611fc7565b9061278e6127887f1cf2de25c5bf439ac0287061c3a0fa69b3b02867d0ccfd2ded34e42577050b739361167c565b9161167c565b916127976101e2565b806127a1816104c7565b0390a3565b6127af90612732565b565b6127b961144a565b506127d36127cd6301ffc9a760e01b6101f4565b916101f4565b1490565b6127df6114dc565b506127e9816129b3565b90816128056127ff6127fa5f611842565b61039b565b9161039b565b1461280e575090565b612829905f918291637e27328960e01b83526004830161071b565b0390fd5b9061283790610d67565b5f5260205260405f2090565b61285a61285f916128526114dc565b50600461282d565b610f20565b90565b61286a6114dc565b503390565b9161287d9291600192612f94565b565b91906128979161288d6114dc565b50839190916130ec565b90816128b36128ad6128a85f611842565b61039b565b9161039b565b141590816128e0575b506128c45790565b5f63a24e573d60e01b8152806128dc600482016104c7565b0390fd5b90506128fc6128f66128f15f611842565b61039b565b9161039b565b14155f6128bc565b61290c611df2565b61292561291f61291a612862565b61039b565b9161039b565b0361292c57565b61294e612937612862565b5f91829163118cdaa760e01b8352600483016103b4565b0390fd5b61295c6006610f20565b612967826006611fc7565b9061299b6129957f8be0079c531659141344cd1fd0a4f28419497f9722a3daafe3b4186f6b6457e09361167c565b9161167c565b916129a46101e2565b806129ae816104c7565b0390a3565b6129ca6129cf916129c26114dc565b50600261282d565b610f20565b90565b919091826129f06129ea6129e55f611842565b61039b565b9161039b565b14612a6457612a1482612a0f612a0860058590611f1c565b8690611f32565b6120fa565b919091612a5f612a4d612a477f17307eab39ab6107e8899845ad3d59bd9653f200f220920489ca2b5937696c319361167c565b9361167c565b93612a566101e2565b91829182610253565b0390a3565b612a7f835f918291630b61174360e31b8352600483016103b4565b0390fd5b612a8c90611654565b90565b612a9890612a83565b90565b612aa490611670565b90565b60e01b90565b90505190612aba82610200565b565b90602082820312612ad557612ad2915f01612aad565b90565b6101ec565b60209181520190565b612b02612b0b602093612b1093612af981611e5d565b93848093612ada565b958691016102b9565b6102c4565b0190565b9092612b4790612b3d612b549694612b3360808601975f8701906103a7565b60208501906103a7565b604083019061070e565b6060818403910152612ae3565b90565b90612b69612b6483610c12565b610bfd565b918252565b606090565b3d5f14612b8e57612b833d612b57565b903d5f602084013e5b565b612b96612b6e565b90612b8c565b9193843b612bb2612bac5f6115ea565b916103fe565b11612bbf575b5050505050565b612bf75f602094612c02612bda612bd58a612a8f565b612a9b565b9463150b7a02929698612beb6101e2565b998a9889978896612aa7565b865260048601612b14565b03925af180915f92612cc0575b50155f14612c7d57506001612c2a57505b5f80808080612bb8565b612c32612b73565b90612c3c82611e5d565b612c4e612c485f6115ea565b916103fe565b145f14612c7457612c70905f918291633250574960e11b8352600483016103b4565b0390fd5b50602081519101fd5b612c96612c90630a85bd0160e11b6101f4565b916101f4565b03612ca15750612c20565b612cbc905f918291633250574960e11b8352600483016103b4565b0390fd5b612ce291925060203d8111612ce9575b612cda8183610bd4565b810190612abc565b905f612c0f565b503d612cd0565b612cf86114b6565b50612d01611e61565b90565b90612d0f91016103fe565b90565b369037565b90612d3c612d2483611b44565b92602080612d328693611106565b9201910390612d12565b565b6001612d4a91036103fe565b90565b90565b612d64612d5f612d6992612d4d565b610d64565b6103fe565b90565b634e487b7160e01b5f52601260045260245ffd5b612d8c612d92916103fe565b916103fe565b908115612d9d570490565b612d6c565b612daa6114b6565b50612dc7612db7826133c2565b612dc16001611caf565b90612d04565b90612dd182612d17565b91612dda611b9d565b5060208301015b600115612e4457612df4612e2091612d3e565b916f181899199a1a9b1b9c1cb0b131b232b360811b600a82061a8353612e1a600a612d50565b90612d80565b80612e33612e2d5f6115ea565b916103fe565b14612e3e5790612de1565b50505b90565b5050612e41565b90565b612e62612e5d612e6792612e4b565b610d64565b6103fe565b90565b612e746002612e4e565b90565b612e816007610eff565b612e9a612e94612e8f612e6a565b6103fe565b916103fe565b14612eb357612eb1612eaa612e6a565b6007612133565b565b5f633ee5aeb560e01b815280612ecb600482016104c7565b0390fd5b612ed96001611caf565b90565b612eee612ee7612ecf565b6007612133565b565b9081612f0c612f06612f015f611842565b61039b565b9161039b565b14612f6d57612f259190612f1f5f611842565b9161287f565b612f3f612f39612f345f611842565b61039b565b9161039b565b03612f4657565b612f69612f525f611842565b5f9182916339e3563760e11b8352600483016103b4565b0390fd5b612f90612f795f611842565b5f918291633250574960e11b8352600483016103b4565b0390fd5b9190928080156130bb575b612fbd575b505090612fb6612fbb9291600461282d565b611fc7565b565b612fc6846127d7565b9180612fe2612fdc612fd75f611842565b61039b565b9161039b565b1415806130a0575b80613086575b613067575091612fb691612fbb949361300c575b509192612fa4565b81849061304b61304561303f7f8c5be1e5ebec7d5bd14f71427d1e84f3dd0314c0f7b2291e5b200ac8c7c3b9259561167c565b9261167c565b92610d67565b926130546101e2565b8061305e816104c7565b0390a45f613004565b613082905f91829163a9fbf51f60e01b8352600483016103b4565b0390fd5b5061309b613095848390611f69565b15610241565b612ff0565b50826130b46130ae8361039b565b9161039b565b1415612fea565b50816130d76130d16130cc5f611842565b61039b565b9161039b565b1415612f9f565b906130e991036103fe565b90565b906130f56114dc565b506130ff816129b3565b928061311b6131156131105f611842565b61039b565b9161039b565b0361325a575b508261313d6131376131325f611842565b61039b565b9161039b565b03613206575b8161315e6131586131535f611842565b61039b565b9161039b565b036131d0575b613179826131746002849061282d565b611fc7565b82916131b76131b16131ab7fddf252ad1be2c89b69c2b068fc378daa952ba7f163c4a11628f55a4df523b3ef9561167c565b9261167c565b92610d67565b926131c06101e2565b806131ca816104c7565b0390a490565b6132016131dd6001611caf565b6131fb6131ec60038690611ba1565b916131f683610eff565b612d04565b90612133565b613164565b6132246132125f611842565b8261321c5f611842565b905f92612f94565b6132556132316001611caf565b61324f61324060038790611ba1565b9161324a83610eff565b6130de565b90612133565b613143565b6132679084908391613646565b5f613121565b90565b61328461327f6132899261326d565b610d64565b6103fe565b90565b90565b6132a361329e6132a89261328c565b610d64565b6103fe565b90565b90565b6132c26132bd6132c7926132ab565b610d64565b6103fe565b90565b90565b6132e16132dc6132e6926132ca565b610d64565b6103fe565b90565b90565b6133006132fb613305926132e9565b610d64565b6103fe565b90565b90565b61331f61331a61332492613308565b610d64565b6103fe565b90565b90565b61333e61333961334392613327565b610d64565b6103fe565b90565b90565b61335d61335861336292613346565b610d64565b6103fe565b90565b90565b61337c61337761338192613365565b610d64565b6103fe565b90565b90565b61339b6133966133a092613384565b610d64565b6103fe565b90565b90565b6133ba6133b56133bf926133a3565b610d64565b6103fe565b90565b6133ca611b9d565b506133d45f6115ea565b90806134036133fd7a184f03e93ff9f4daa797ed6e38ed64bf6a1f010000000000000000613270565b916103fe565b10156135db575b8061342b6134256d04ee2d6d415b85acef81000000006132ae565b916103fe565b10156135a0575b8061344c613446662386f26fc100006132ec565b916103fe565b101561356c575b8061346a6134646305f5e10061332a565b916103fe565b101561353b575b80613486613480612710613368565b916103fe565b101561350c575b806134a161349b60646133a6565b916103fe565b10156134de575b6134bb6134b5600a612d50565b916103fe565b10156134c5575b90565b6134d9906134d36001611caf565b90612d04565b6134c2565b6134f5613506916134ef60646133a6565b90612d80565b916135006002612e4e565b90612d04565b906134a8565b6135246135359161351e612710613368565b90612d80565b9161352f6004613387565b90612d04565b9061348d565b6135556135669161354f6305f5e10061332a565b90612d80565b916135606008613349565b90612d04565b90613471565b61358961359a91613583662386f26fc100006132ec565b90612d80565b91613594601061330b565b90612d04565b90613453565b6135c46135d5916135be6d04ee2d6d415b85acef81000000006132ae565b90612d80565b916135cf60206132cd565b90612d04565b90613432565b61360c61361d916136067a184f03e93ff9f4daa797ed6e38ed64bf6a1f010000000000000000613270565b90612d80565b91613617604061328f565b90612d04565b9061340a565b91602061364492949361363d60408201965f8301906103a7565b019061070e565b565b61365b613655828486916136c2565b15610241565b61366457505050565b61367e6136786136735f611842565b61039b565b9161039b565b145f146136a4576136a0825f918291637e27328960e01b83526004830161071b565b0390fd5b6136be5f92839263177e802f60e01b845260048401613623565b0390fd5b91906136cc61144a565b50806136e86136e26136dd5f611842565b61039b565b9161039b565b141592836136f7575b50505090565b809192935061370e6137088461039b565b9161039b565b14908115613750575b5091821561372a575b50505f80806136f1565b61374891925061373c61374291612843565b9261039b565b9161039b565b145f80613720565b61375c91508290611f69565b5f61371756fea2646970667358221220b7f2c2fd44b1ed290b331b593b5698c99172e5bc4c6b2f2fb56c14e73c0befbc64736f6c634300081a0033","linkReferences":{}},"methodIdentifiers":{"approve(address,uint256)":"095ea7b3","balanceOf(address)":"70a08231","flightPolicies(bytes32,uint256)":"167699b0","getApproved(uint256)":"081812fc","getFlightPolicies(bytes32)":"0b0546c4","getPolicy(uint256)":"2b07fce3","isApprovedForAll(address,address)":"e985e9c5","markPayoutExecuted(uint256)":"1bc33b49","mintPolicy(address,bytes32,string,uint8,uint256,uint256,uint256,address)":"f9ee42f6","minter()":"07546172","name()":"06fdde03","oracleAdapter()":"3d9f3163","owner()":"8da5cb5b","ownerOf(uint256)":"6352211e","pnrUsed(string)":"ec7ba460","policies(uint256)":"d3e89483","renounceOwnership()":"715018a6","safeTransferFrom(address,address,uint256)":"42842e0e","safeTransferFrom(address,address,uint256,bytes)":"b88d4fde","setApprovalForAll(address,bool)":"a22cb465","setMinter(address)":"fca3b5aa","setOracleAdapter(address)":"edb6d075","supportsInterface(bytes4)":"01ffc9a7","symbol()":"95d89b41","tokenURI(uint256)":"c87b56dd","tokensOfOwner(address)":"8462151c","transferFrom(address,address,uint256)":"23b872dd","transferOwnership(address)":"f2fde38b"},"id":48}